:020000040000fa
:080000000002040000000000f2
:020000040000fa
:040008004c040000a4
:020000040000fa
:04000c004c040000a0
:020000040000fa
:040010004c0400009c
:020000040000fa
:040014004c04000098
:020000040000fa
:040018004c04000094
:020000040000fa
:04001c004c04000090
:020000040000fa
:040020004c0400008c
:020000040000fa
:040024004c04000088
:020000040000fa
:040028004c04000084
:020000040000fa
:04002c004c04000080
:020000040000fa
:040030004c0400007c
:020000040000fa
:0400340004030000c1
:020000040000fa
:040038004c04000074
:020000040000fa
:04003c004c04000070
:020000040000fa
:040040004c0400006c
:020000040000fa
:040044004c04000068
:020000040000fa
:040048004803000069
:020000040000fa
:04004c004c04000060
:020000040000fa
:040050004c0400005c
:020000040000fa
:0400540004040000a0
:020000040000fa
:04005800d8030000c9
:020000040000fa
:04005c00b2030000eb
:020000040000fa
:040060004c0400004c
:020000040000fa
:040064004c04000048
:020000040000fa
:040068004c04000044
:020000040000fa
:04006c004c04000040
:020000040000fa
:040070004c0400003c
:020000040000fa
:040074004c04000038
:020000040000fa
:040078004c04000034
:020000040000fa
:04007c004c04000030
:020000040000fa
:040080004c0400002c
:020000040000fa
:040084004c04000028
:020000040000fa
:040088004c04000024
:020000040000fa
:04008c004c04000020
:020000040000fa
:040090004c0400001c
:020000040000fa
:040094005203000013
:020000040000fa
:040098004c04000014
:020000040000fa
:04009c004c04000010
:020000040000fa
:0400a0004c0400000c
:020000040000fa
:0400a4004c04000008
:020000040000fa
:0400a8004c04000004
:020000040000fa
:0400ac004c04000000
:020000040000fa
:0400b0004c040000fc
:020000040000fa
:0400b4004c040000f8
:020000040000fa
:0400b8004c040000f4
:020000040000fa
:0400bc004c040000f0
:020000040000fa
:0400c0004c040000ec
:020000040000fa
:0400c4004c040000e8
:020000040000fa
:0400c8004c040000e4
:020000040000fa
:0400cc004c040000e0
:020000040000fa
:0400d0004c040000dc
:020000040000fa
:0400d4004c040000d8
:020000040000fa
:0400d8004c040000d4
:020000040000fa
:0400dc004c040000d0
:020000040000fa
:0400e0004c040000cc
:020000040000fa
:0400e4004c040000c8
:020000040000fa
:0400e8004c040000c4
:020000040000fa
:0400ec004c040000c0
:020000040000fa
:0400f0004c040000bc
:020000040000fa
:0400f4004c040000b8
:020000040000fa
:0400f8004c040000b4
:020000040000fa
:0400fc004c040000b0
:020000040000fa
:040100004c040000ab
:020000040000fa
:040104004c040000a7
:020000040000fa
:040108004c040000a3
:020000040000fa
:04010c004c0400009f
:020000040000fa
:040110004c0400009b
:020000040000fa
:040114004c04000097
:020000040000fa
:040118004c04000093
:020000040000fa
:04011c004c0400008f
:020000040000fa
:040120004c0400008b
:020000040000fa
:040124004c04000087
:020000040000fa
:040128004c04000083
:020000040000fa
:04012c004c0400007f
:020000040000fa
:040130004c0400007b
:020000040000fa
:040134004c04000077
:020000040000fa
:040138004c04000073
:020000040000fa
:04013c004c0400006f
:020000040000fa
:040140004c0400006b
:020000040000fa
:040144004c04000067
:020000040000fa
:040148004c04000063
:020000040000fa
:04014c004c0400005f
:020000040000fa
:040150004c0400005b
:020000040000fa
:040154004c04000057
:020000040000fa
:040158004c04000053
:020000040000fa
:04015c004c0400004f
:020000040000fa
:040160004c0400004b
:020000040000fa
:040164004c04000047
:020000040000fa
:040168004c04000043
:020000040000fa
:04016c004c0400003f
:020000040000fa
:040170004c0400003b
:020000040000fa
:040174004c04000037
:020000040000fa
:040178004c04000033
:020000040000fa
:04017c004c0400002f
:020000040000fa
:040180004c0400002b
:020000040000fa
:040184004c04000027
:020000040000fa
:040188004c04000023
:020000040000fa
:04018c004c0400001f
:020000040000fa
:040190004c0400001b
:020000040000fa
:040194004c04000017
:020000040000fa
:040198004c04000013
:020000040000fa
:04019c004c0400000f
:020000040000fa
:0401a0004c0400000b
:020000040000fa
:0401a4004c04000007
:020000040000fa
:0401a8004c04000003
:020000040000fa
:0401ac004c040000ff
:020000040000fa
:0401b0004c040000fb
:020000040000fa
:0401b4004c040000f7
:020000040000fa
:0401b8004c040000f3
:020000040000fa
:0401bc004c040000ef
:020000040000fa
:0401c0004c040000eb
:020000040000fa
:0401c4004c040000e7
:020000040000fa
:0401c8004c040000e3
:020000040000fa
:0401cc004c040000df
:020000040000fa
:0401d0004c040000db
:020000040000fa
:0401d4004c040000d7
:020000040000fa
:0401d8004c040000d3
:020000040000fa
:0401dc004c040000cf
:020000040000fa
:0401e0004c040000cb
:020000040000fa
:0401e4004c040000c7
:020000040000fa
:0401e8004c040000c3
:020000040000fa
:0401ec004c040000bf
:020000040000fa
:0401f0004c040000bb
:020000040000fa
:0401f4004c040000b7
:020000040000fa
:0401f8004c040000b3
:020000040000fa
:0401fc004c040000af
:020000040000fa
:040200004c040000aa
:020000040000fa
:040204004c040000a6
:020000040000fa
:040208004c040000a2
:020000040000fa
:04020c004c0400009e
:020000040000fa
:040210004c0400009a
:020000040000fa
:040214004c04000096
:020000040000fa
:040218004c04000092
:020000040000fa
:04021c004c0400008e
:020000040000fa
:040220004c0400008a
:020000040000fa
:040224004c04000086
:020000040000fa
:040228004c04000082
:020000040000fa
:04022c004c0400007e
:020000040000fa
:040230004c0400007a
:020000040000fa
:040234004c04000076
:020000040000fa
:040238004c04000072
:020000040000fa
:04023c004c0400006e
:020000040000fa
:040240004c0400006a
:020000040000fa
:040244004c04000066
:020000040000fa
:040248004c04000062
:020000040000fa
:04024c004c0400005e
:020000040000fa
:040250004c0400005a
:020000040000fa
:040254004c04000056
:020000040000fa
:040258004c04000052
:020000040000fa
:04025c004c0400004e
:020000040000fa
:040260004c0400004a
:020000040000fa
:040264004c04000046
:020000040000fa
:100400008f9b21000eff27000e01880000000000d6
:10041000000020000000e000020032000001200087
:1004200020028800180007001d0107000000e000fe
:1004300003003a0020d02300010020000200370012
:100440000000200001002000810f70000200320037
:100450000001eb0012000700100007000000200060
:100460000000e00002003200000002000000000076
:10047000be0407003a20020000000000cc04070080
:100480000040da000000fe00200020000000e00034
:1004900002003200100020009001880000000600d9
:1004a000a1028800800478000000eb0020003700e3
:1004b0000a054100e284440054a0b4009905ba0042
:1004c000e284440054a0b4009906ba00e2844400d7
:1004d00054a0b4000006eb00476fde00fd07b20039
:1004e000ae018800636ce10003003a000ad8010005
:1004f0000000eb000e003700606ce10008003a00dd
:10050000004deb000a05e800020039003420ec0041
:100510000af0a0008b05e900f9ff3e000400370057
:100520006168e100010032000086eb000b0007006b
:1005300019c7ba000e04e0001905ba0003003a001a
:100540000a00e000daff3a0000000600fe07b200f1
:10055000ae0288008a047800f5ff37000cd0a300b3
:10056000e20f4d001c003b0089027800354dba00b7
:100570000a05e800020039003420ec000af0a0006f
:100580008b05e9000f003200254dba000a05e8008e
:10059000020039003420ec000af0a0008b05e900cd
:1005a000080032000c00e0000600320015cdba0051
:1005b0000a05e800020039003420ec000af0a0002f
:1005c0008b05e9008984e80054a0b4000b00e0002a
:1005d000e2ff3a00000006009902ba00055d7800cb
:1005e0008b05e900f7ff3200c82ade00055d7800c0
:1005f0008b05e900f3ff32000c00e000f1ff320050
:1006000019ddba00eeff37003600f800809fbe000b
:10061000829fbe00849fbe00869fbe000000fa003d
:100620000068a900a7190700e41c0700c917070004
:100630002a140700440e0700e08180008000e800d3
:10064000e18188009101200001017800110009007a
:100650000200d8008000fd000000e00004003a0025
:1006600009120700f8180700a3120700490e070037
:10067000000000000080fa004f03be004f02be00e1
:100680004f01be004f00be003600f90000400600da
:100690000000fa000108a900000000000080fa0034
:1006a000004006003600f800809fbe00829fbe001a
:1006b000849fbe00869fbe000000fa000368a90068
:1006c000c0818000d181800061004000e08048004e
:1006d000c0818800d1818800c0818000d1818000e4
:1006e000823e200003002000c8000700800178003f
:1006f000010178000300780082007800e00f5000cc
:10070000e08f58000b003a00207080004a00de00a5
:1007100061406000614068000080fb006100600093
:100720004a00dd002170800001a0a10001007000de
:1007300020708800908180000000e00001003200fd
:100740000a100700000000000080fa004f03be00fe
:100750004f02be004f01be004f00be003600f90040
:1007600000400600801f78000000fa0001a8a900e0
:100770000018800050cd88001018800060cd8800df
:100780002018800070cd88003018800080cd88004f
:100790004018800090cd880010c0b30063f0b7000f
:1007a000000000000080fa004f00780000400600c2
:1007b0003600f800809fbe00829fbe00849fbe006e
:1007c000869fbe000000fa000188a900b182800067
:1007d000a0828000808f500002003200121c0700af
:1007e000010037005870ef00000000000080fa00a0
:1007f0004f03be004f02be004f01be004f00be00bf
:100800003600f900004006003600f800809fbe0068
:10081000829fbe00849fbe00869fbe000000fa003b
:100820000168a900101180004200de0061406000f4
:10083000e14f500001003a002242a900101180004f
:100840000000d10061406000e14f500005003a0017
:100850002222a900030037003011800000407800f8
:10086000551d0700101180000040780061406000b5
:10087000e14f5000f8ff3200000000000080fa0055
:100880004f03be004f02be004f01be004f00be002e
:100890003600f900004006000040da000000fe00cb
:1008a0000000050014002000ca033700f4ff2f00e9
:1008b000c80337000001be003f0007000470a70016
:1008c00003f0a1006509b100160032000d003500eb
:1008d0006828e10006003500f0ff2f00f1ff270037
:1008e0000300e00013003b000100280000000500a9
:1008f00000004000818048008502e900fcff3a00ca
:1009000008003700f88f420002003c008000eb0036
:10091000000005008100d1000080d3008502e800be
:10092000fcff3a000300e00002003b006000100002
:10093000e0801800000006000001be001e00070055
:100940000470a70003f0a10003f8a30013003a000d
:100950006509b10010003200090035006928e10086
:1009600002003500010028000000050000004000e2
:10097000818048008502e900fcff3a000000060083
:10098000f88f4200050035008100d1000080d300bf
:100990008502e800fcff3a00000006008000eb0042
:1009a000000005004f89de0082017800a4033700b3
:1009b0006011b800b2033700c70ade00f107b200c9
:1009c000f50fb20008003200e1cf42000200320011
:1009d0000170a00024000500810f700001003200aa
:1009e0000408050044000500810f700002003a0071
:1009f000140005008502e9000000400081c04800a5
:100a0000fcff3b000170a00024000500f903070073
:100a10000400be000000060007f8270007836100fd
:100a20000638e10004003a00f707200087836100e0
:100a30008703710001003a0003f0a200889fbe0006
:100a40008a9fbe008c9fbe00470ade000480a10082
:100a5000c71ade000580a100070028000785600096
:100a600087856100f70f20000720e1009e0032001b
:100a70000728e1009c003200010678000400e00035
:100a8000b4003200f7072000878060000170a000ea
:100a90000500e000c0003200f707200087816100f8
:100aa0000370a000050652000f003a000b50e10051
:100ab0000b0032000308e10002003a000200e100ee
:100ac0007e0032000204500083845800040031008c
:100ad0000001fd008101fd008402fd008a05fd008a
:100ae0006044b800210037000520e10005003d000a
:100af0000001fd008101fd008402fd008a05fd006a
:100b0000050652007a60e100050035000170a10081
:100b10004722dd00848070008a8070006300370007
:100b20006044b800ef02660007ff2f00070666006a
:100b30000500e00006003400f08312008714dd0099
:100b40000511de00071bdd00060171008519de00be
:100b50007060e10005003500090478008204780027
:100b6000030178008001eb00700656000b50e10095
:100b700003003a0002004000838048000400370070
:100b800060041400e0841c000200580083805800b8
:100b90000188a300060032008100d1000080d3004c
:100ba0008984d3000884d3000402e80027003700ba
:100bb0000178a30025003a000100e00003003200a4
:100bc0008186cf00698656000a0037008c0020001d
:100bd0000000e00004003a00090078008804780072
:100be0000004eb00700252008086cf000d06460024
:100bf0000c06e9007060e100060035008000780016
:100c000009007800880478000004eb0070065600a4
:100c1000700252000c00e0000c0034008c08dd0073
:100c2000f00316000703de00868070000c00dd0074
:100c3000074bde00060070008c4cdd000743de0031
:100c4000868474000c44dd000c0252006120e10037
:100c500020003500610160000700280087816400e2
:100c6000f7ff270087836400070374000300e00098
:100c70000600320082037300040032000000e80026
:100c8000e08048000188a3000e003a00f70f200022
:100c90000720e1004a003d000170a1004722dd006d
:100ca000810072008a8070000000be004f06be0006
:100cb0004f05be004f04be00000006006000b800f3
:100cc000faff37008100d1000080d3000402e80061
:100cd000eeff37000401780089017400a1010700cc
:100ce0008a807000f1ff3700f701070007027800e3
:100cf0000001fd008101fd00f3010700870278007b
:100d0000850372000778a300040032000001fd0093
:100d10008101fd0006020700e4ff37008503620041
:100d20000768a300080032000b50e1000300320006
:100d3000f0ff2f00f1ff2700dcff37000001fd006e
:100d40008101fd00d9ff37000468a300d7ff3200fe
:100d5000faff3700f8ff2700888360000b003a0095
:100d60000000e00009003a008303640082837300fe
:100d7000020032000200be00ccff37000b50e10041
:100d8000ceff3a000200be00c8ff3700140020006a
:100d9000810064003eff3700f8ff27008883610070
:100da00004003a000200e00002003a008c007800e3
:100db000beff3700150020008301640039ff3700b3
:100dc00001f827000000200081007500b7ff370000
:100dd000889fbe008a9fbe008c9fbe001b00200023
:100de0000202be00058668000600280006066600ae
:100df0004709de00f20fb200820032000243e80031
:100e000080003200c729de00f30fb2007d003200ff
:100e10000343e8007b003200f107b2000170a0003c
:100e2000f507b2000570a000c708dd004903de0029
:100e3000868070004700dd00c72add004923de0000
:100e4000868272004722dd00030551000403500032
:100e50008583580003003100000040008180480075
:100e60000a05e9008c1f78008a9fbe00040050002c
:100e7000858058000402420085824a00000040003c
:100e8000818048000005eb000004be006033b8001c
:100e90000406be000d48e1005600310011000900b3
:100ea0004dccd8000c01b8000d02b800848141007f
:100eb00060824a008283530003045c0084845c00e7
:100ec00060055d000a00e00025003a00800578001a
:100ed0000d40e100490031008800780007007800eb
:100ee000110009004d88d8000c01b8000d02b800af
:100ef0008481410060824a006003110083835b00ab
:100f000004045c00e0845c000900e00021003a0079
:100f10004f01be000300e0002b003200e30160003f
:100f2000070673008c8171000100320064007000bc
:100f30004200de004e5edd000c007000c258de0094
:100f400001e0a00083010700cf01780081807100db
:100f50004f06be004f05be004f04be000000060055
:100f60008c8343000d044c00e0844c0060054d0070
:100f70000000e9000a00e000d4ff32008c83430047
:100f80000d044c00e0844c0060054d000000e900b9
:100f9000ceff37000c0343008d834b0060044c00f0
:100fa000e0844c000000e9000900e000d8ff3200b6
:100fb0000c0343008d834b0060044c00e0844c0024
:100fc0000000e900d2ff37004200de004e5edd0087
:100fd0000c007000c258de0001e0a000cf017800d4
:100fe0000300e000daff320060001000e08018002b
:100ff000d7ff3700f0ff2f00aaff3700f0ff2f00c8
:10100000b9ff37000404be002f01070087067800ef
:101010000004fd008104fd002b010700078366002a
:101020000678a300030032000960a7000800be0094
:101030002c0037000d78a300020032000800be002b
:10104000280037000778a30026003a0001f0a1002d
:1010500009f0a1000668a30003003200f1ff270099
:10106000f0ff2f00baff37000d68a3000300320025
:101070000800be008c807000b5ff37000768a30031
:1010800007003a000648a30003003200f1ff2700e2
:10109000f0ff2f00aeff37000d48a3000300320021
:1010a0006000b8008c807000a9ff37000748a300db
:1010b0000400320001f82700000020008c8070003e
:1010c000a3ff3700760107000004fd008104fd0046
:1010d00002057800720107000802be008a0178004c
:1010e00059ff37000160a00012022000228388000f
:1010f00097ff37000100e000120032000500e00019
:1011000010003200889fbe008a9fbe008c9fbe00e8
:101110000006eb0001f8a30003003200600010009d
:10112000e08018000cf0a00005f8a30003003200d6
:1011300060021200e0821a000cf0a2008005eb00b1
:1011400041ff37006000b80002000500038368001b
:101150000700280007036300470ade000480a1009f
:10116000c71ade000580a100f70f20000720e1006c
:10117000420032000728e10040003200889fbe0094
:101180008a9fbe008c1f7800f107b200f307b200ff
:101190000400e000640032000170a0000500e000df
:1011a000680032000370a00085054200eb07b10023
:1011b0000204b8000302b8008484440060854a0039
:1011c000020ab800848444000a854a00030ab80071
:1011d00004054500040033000804d0008984d200cf
:1011e0000a85d2008b05e9006158e1003d00350019
:1011f00002102000090161000308200089816100bc
:10120000f70720008783640008867300c84cde005f
:10121000c853dd00878474004855de000300e000f9
:101220000600320082037600040032008904e800e0
:1012300060054d000a88a3000c003a00f70f20005b
:101240000758e10044003d000a70a100c75ddd00c1
:101250000a8575008a007300090078004f0678003f
:101260004f05be004f04be00000006000a05d10075
:101270008984d3008b05e800f0ff3700881f7800d1
:101280000604780090000700070278000001fd00c6
:101290008101fd008c000700870278008503720041
:1012a0000778a300050032000001fd008101fd0068
:1012b0009f0007004f0478000000060085037200bd
:1012c0000748a30003003200f0ff2f00f1ff2700c2
:1012d000f8ff37000000200001f827008880700028
:1012e000f4ff3700880178004848dd0080817100f4
:1012f0004848de00c850dd0001007000c850de0024
:10130000060478000b017800160007008880700042
:10131000d2ff37000500e000050032001700200072
:101320003a0007009dff370081037000f9ff3a0083
:10133000860078004f0678004f05be004f04be00bf
:101340000000050083037100f9ff32002700200030
:101350002e00070094ff370001f8270086807000f8
:10136000f4ff37000100e0002600320061011100a7
:101370007810e10023003c006022b8007010e1000a
:101380000400350080027800010078008000eb0046
:10139000700151000200e0000900340070031100e8
:1013a000062add00822ade008603dd0087827200c5
:1013b0000200de00860bdd00070070008208de0000
:1013c00084817100f4ff270004826200848171002f
:1013d00004002800848262006102600005f0a6001b
:1013e0000000060004827100070032000000e800df
:1013f000e0804800000006000002be006000b80067
:10140000efff37006000b80000000600889fbe00b4
:101410000004eb006138e10016003a000100e00032
:1014200008003a00c800de004800dd008800200007
:101430000100e00003003a00c800de004800dd00c3
:10144000680444008184cf00e9845400060034001d
:101450008908dd00f08314008703de0087807000b8
:101460000900dd0009044400610214004f04be00bd
:10147000000006000300e00008003a00c811de008a
:101480004811dd00880020000300e00003003a005e
:10149000c811de004811dd00680444008384cf00d9
:1014a000e9845400060034008919dd00f08314003b
:1014b0008713de00878171000911dd0009044400f3
:1014c000e1021400e9ff37002700200001f0a70027
:1014d00017002000470bde00f60fb20004003200b8
:1014e0000643e8000a0032004702b300000006008d
:1014f00001037800f607b2000603700002003a000c
:101500000703b300000006008702b30000000600d6
:1015100001037800f607b2000603700002003200f3
:101520000770a000000006000760a0000000060091
:101530000478a300040032000578a3000300320001
:101540000168a30001003a000200be000160a00093
:101550000000060081017000270032008002eb00cd
:1015600001f8a3000300320060001000e0801800c2
:1015700015002000f4072000020242002000340081
:10158000f7032000870360000604200000036300c7
:1015900002082000000161004700de00c909dd00eb
:1015a00000807100c708de000600e000080032007d
:1015b00087037100060032001000b0000180b00007
:1015c0000188a30002003200c108de000402e80026
:1015d000f107b200f30f20000320e10003003d00fb
:1015e0004722dd00810072002900370001f8270042
:1015f0000000eb00260037006000b8000000060085
:10160000680212007f20e100020034006000b80090
:101610001f0037006011b8007020e10004003500a1
:1016200080017800010078008000eb007002520019
:101630000400e00009003400f00312000719dd0087
:101640008419de000703dd00868171000400de00de
:10165000070bdd00060070008408de00f7ff27009e
:10166000838363008703710006002800030363007f
:10167000070032000700e00003003a00610160004b
:1016800002817300020032001000b0000180b0003f
:101690000500a6000000060001f0a0000000060002
:1016a0004f0ade004709de00f107b200f20fb20078
:1016b0000b003200f207b1000170a000c708dd0086
:1016c000c901de00838070004700dd000400a60031
:1016d0000000060060001000e08018000000060016
:1016e000810f700001003a00000006008182cf00e7
:1016f0000500e00010003e008082cf00ee82420034
:101700007028e1000400390007003e0080007800e6
:101710000000eb000e003700708312008600de0030
:101720000500dd000a003700708352008600dd00ee
:101730000000eb0006003700e28252008508dd0061
:10174000708312000603de00868070000500dd0055
:101750007507b0000501ea000400a60000000600bd
:1017600060001000e080180000000600889fbe00a6
:101770008a9fbe005400f8000a0020000a00e00022
:10178000070032000900200008002000a90288009c
:10179000b805ba000b0001000a85e900fcff3c0017
:1017a0005400f9004f05be004f04be0000000600c3
:1017b000889fbe008a9fbe005400f8000a002000e7
:1017c0000a00e000f6ff32000900200008002000b7
:1017d000eeff3700889fbe008a9fbe00841f7800fe
:1017e0007c0007004f00780011003300f0ff2f004d
:1017f000838f6c0006003b00040565000a00a7000b
:101800000800370009f0a60010002000080037008b
:10181000820f5400838f5c00030039001000200009
:1018200001003e000000200009f0a7000000ea00cf
:101830004f05be004f04be000000e000000006009f
:10184000881f7800030478000300e00007003d00d3
:1018500060001000e080180060011900e0811900ac
:1018600002003b0001f02d000300370004000700d8
:1018700008f0a70001f0a0004f0478000000060067
:10188000889fbe008a9fbe00008270000402710023
:1018900004827100260032000004be000200be0077
:1018a0006011b8006b092000950220000182cf0072
:1018b0000a0039000541b1000082cf00070039005d
:1018c0000541b1000982cf00040039000541b10093
:1018d0000882cf00010039000541b10005425200e5
:1018e000120032000a003b00828171006101640035
:1018f0008100d1000080d3008984d3000884d30004
:101900008b05e8000442e800f7ff3a0007003700c3
:101910000804440089844c0000004800818048008d
:101920008b05e9000442e900f9ff3a0003000700d3
:101930004f05be004f04be000000060081002000dd
:10194000618055000b003d000b00200061fe2f0060
:101950000100e1001d00340082817100610164001a
:101960008904d1000884d3000000e800faff3a009f
:10197000710020006100640003007000020060003c
:101980000900320061044400e0844c000988a5008d
:10199000050032008b05e8006808e10002003a000b
:1019a0008904d1000884d300f20f20000258e1001e
:1019b00005003d00c75ddd00f907b20089807500b4
:1019c00008007800000006000bf827008b00780064
:1019d000000005000004be00f7fb07000003be0086
:1019e0000405be000200be00f3fb0700844f750033
:1019f000000006006022b800060220000000d000af
:101a00008180d2000482d2008582d2000000a00032
:101a10000202520083825a00030031000202420097
:101a200083824a000000a1000603e900f3ff3a00a8
:101a3000000006000400fa00889fbe008a9fbe00d6
:101a40008c9fbe00020378008303780007f0a1009a
:101a50000800200009f82700880f5300898f5b00d9
:101a600006003e0000057800810578000bf0a1001b
:101a7000880f5500898f5d0006003600effb0700d8
:101a80004f06be004f05be004f04be000080fa00a6
:101a9000000006000800200009f82300880f51000c
:101aa000898f590002003a00a9000700f4ff3700af
:101ab0004e1cde000900200088bf9f0099bf9f00d8
:101ac0000fbe9700620466008004eb004f0ade0040
:101ad000050020000404740085847400e00f5500a4
:101ae000e08f5d000d003a0024002000050020007a
:101af000840f5400858f5c008f003200840f5400e7
:101b0000858f5c00deff39003400200005002000d6
:101b1000840f5400858f5c006d003200e00f53008d
:101b2000e08f5b0008003a00610064008000eb0079
:101b3000e00f5000e08f580082003200b0fd20001e
:101b400091fc2b00ceff37000400200005f8270091
:101b5000840f5300858f5b0015003a0014002000ad
:101b600005002000860f5500878f5d0048003a0071
:101b7000840f5400858f5c0064003200e00f540035
:101b8000e08f5c006400320024002000050020008b
:101b9000840f5400858f5c00310032003400200037
:101ba00005002000840f5400858f5c003500320052
:101bb0000c0020000dd020000602460087824e0057
:101bc000840f5500858f5d00d7ff3e000400200084
:101bd00005f82700840f5500858f5d00d2ff320085
:101be000620264008002eb00e00f5200e08f5a00b6
:101bf000050032000a0646008b864e008c0f53000b
:101c00008d8f5b0035003e0071fc070088010700e6
:101c10004f0007001200200003002000820f540034
:101c2000838f5c002f003200e00f5400e08f5c00d7
:101c300093ff32002200200003002000820f540096
:101c4000838f5c0029003200e2d22b00b33b2300db
:101c50007afb0700b2fd200093042400290037001e
:101c60000200200003042400b0fd200091042400a1
:101c700036fd07000200200003e8230033fd0700c3
:101c80007fff37000200200003042c00f6ff37001e
:101c9000840f5400858f5c0022003200e00f540056
:101ca000e08f5c00220032002400200005002000ac
:101cb000840f5400858f5c001f0032003400200028
:101cc00005002000840f5400858f5c00b8ff3a00a7
:101cd000b0fd200091042c0069ff37006000b800bf
:101ce000ccff370001f0a20065ff3700e2d22b00e5
:101cf000b33b230051fb07000001be00b0fd2000f4
:101d00009104240044fb07005dff3700b0fd200074
:101d100091f42b005aff3700b0fd200091f423000e
:101d200057ff3700000020000100280054ff370053
:101d30006000b80052ff3700b0fd2000910424007d
:101d40004fff3700b0fd200091fc23004cff37000f
:101d5000ea874700889fbe008a9fbe008c9fbe0016
:101d60008e1f78000002be004f0dde000b00200029
:101d7000000478008504780009f0a100f0ff2f002e
:101d8000f1c72400800f5400818f5c0010003600e2
:101d90000000200001f82700800f5400818f5c00b4
:101da00025003e000200200003382000a0fd200096
:101db00091fc230021fb07000002be00e00f55004c
:101dc000e08f5d001c00320005f0a2001a00370011
:101dd000f0ff2f00f1ed2300800f5400818f5c0095
:101de0001c003e00f0ff2f00f19723000087eb005e
:101df000800f5400818f5c0033003e006000b8000b
:101e000003f8270085806100e00f5000e08f580044
:101e100009003a000401be000400be00f4b79f00b0
:101e200085bf9f00c9fc0700d0b79f00e1b79f00a6
:101e30007fb297008fba97000400be004f0778006a
:101e40004f06be004f05be004f04be00af00b100fc
:101e5000000006000400be00f50007000006be00fa
:101e6000f0ff2f0071f92300800f5400818f5c0078
:101e700055003e00f0ff2f00f1f22300800f5400c8
:101e8000818f5c0041003e000c01be000c00be00d2
:101e9000eafa07000200200003f82300defa070038
:101ea0000004be0002002000030024000c00be005d
:101eb000e2fa07000001be000800be00c4fb0700f4
:101ec0000002be000007eb000401be000400be00db
:101ed000f4b79f0085bf9f009cfc07000006be0072
:101ee0000001be0099fc07000004be0052c22a0097
:101ef000c3d7230095fc0700d2502f0013e1230025
:101f0000cefa07000801be0090fc070092aa2a0042
:101f1000a3ea2300c9fa07000c01be008bfc0700ee
:101f20000006be0072242100a3dd2b000800be00c5
:101f300086fc070082a92c00c3e42300b6fa070040
:101f40000801be0081fc07000001be000c00be00bd
:101f5000bafa07007fb297008fba97000401be005b
:101f60007afc07000003be007fb297008fba97008b
:101f70000e00e00032003d000001be000400be0083
:101f8000a5fa07000002be00abff370002002000e8
:101f900003f823000c00be009ffa07000004be00f7
:101fa0000200200003f823000c00be00a3fa070083
:101fb0000001be000800be0085fb07000002be0055
:101fc0001e002000c0ff3700f0ff2f00b1012400e9
:101fd000800f5400818f5c0012003e000200200040
:101fe00003fc23000c00be008bfa07000004be00b7
:101ff0000200200003fc23000c00be0053fc07007d
:102000000200200003f823008cfa07000001be0044
:102010000800be006efb07000002be002e0020007c
:10202000a9ff37000c01be000000200001f82b00c2
:1020300067fb07000002be003e002000a2ff370041
:102040004277dd00089921000e0444000098210029
:102050000e0740001e0178009e0190000600be00a1
:10206000f4b79f0085bf9f006bfa07007fb297000f
:102070008fba97000401be0067fa07000001be0096
:10208000180078009800900063fa07004aff3700b4
:102090000400fa00000178008101780003f0a1003b
:1020a000a4fd200095f42300840f5100858f590072
:1020b0000e003e00f4ff2f00f5972300840f51001f
:1020c000858f59003a003e000200200003b8270027
:1020d0005afa0700e0bf9f00f1bf9f0000002000f8
:1020e00001f823000080fa00000006004f0ade001d
:1020f00005002000163d2500b7072400860f51007b
:10210000878f59001b003e0036be2c00670124005b
:10211000860f5100878f59000a003600b2fd20005b
:10212000930424000400e0000400320043fa070096
:10213000ee01070001f0a200eaff370036fa0700bf
:10214000fbff37000400e00005003200b2fd200074
:1021500093fc230039fa07006f020700e1ff370004
:102160000001be00b0fd200091fc23002afa070008
:10217000f9ff3700561d2300270e2400860f51005b
:10218000878f590014003e00f6dd2e00f70a240068
:10219000860f5100878f590009003600b2fd2000dc
:1021a000930c24000400e0000300320023fa07002f
:1021b000ce010700cbff370017fa0700fcff3700fe
:1021c0000400e0000100320001f0a20042be2c0039
:1021d00063092400e5ff3700f4ff2f00f5f727001f
:1021e000840f5100858f5900030036000001be00a6
:1021f00009fa0700bbff370064815700ef010700b1
:10220000630160006fb89700ffb89700e10f5100bd
:1022100005003200e20f5100c5ff32000200e0006d
:10222000cdff3a00e2ff370001f0a200caff3700fd
:102230000101780002f0a100820078000000060091
:102240000400fa00889fbe008a9fbe00020341007e
:1022500083834900e00f5300e08f5b0010003200e1
:10226000020278008302780005f0a1000800200037
:1022700009f82700880f5200898f5a0008003e0095
:10228000a0bf9f00b1bf9f00470dde000b002000e4
:10229000f40f20000a056200840f550007003a0081
:1022a000aafb07000001be00c9fa07004f05be00e7
:1022b0004f04be000080fa0000000600000240004b
:1022c00081824800840f5300858f5b00060039002f
:1022d000840f5300858f5b00f4ff3a006011b80053
:1022e0009afb0700f1ff37000a00e0004c003a00bb
:1022f0002fbb9700bfbb9700493add00c732de0015
:10230000850272004932dd00e00f5200e08f5a0072
:102310003f003d00610215002fbb9700bfbb970037
:10232000040478000804e9000300330006034300b6
:1023300087834b00fbff37000602be00471bde0011
:10234000070020000683fb000600e0003d003a0085
:10235000491cdd00c714de00890474004914dd0047
:10236000e00f5400e08f5c0032003d00e1031300f9
:102370000204be008703e9000300330008044400a0
:1023800089844c00fbff37000801520089815a0004
:10239000860f55002f003c00e00f5100e08f5900e0
:1023a00004003500e00f5100e08f5900cbff3200f0
:1023b0000202be004728de0001002000e00f5000ae
:1023c000e08f58002e0032000a00e0003000340098
:1023d0000000200001f82f00040240008582480020
:1023e0006150b900c700dd0000002000040070004b
:1023f000858070006022b80002002800bfb99700f5
:10240000830261000000720081807200a7ff370024
:102410000a05e9000402420085824a00baff37003b
:102420002fba9700bfba9700f507b2000570a00059
:10243000c2ff37000603e9000804440089844c0009
:10244000c7ff37000204be00f907b2000970a00000
:10245000cdff3700e00f5100e08f59000400350038
:10246000e00f5100e08f59009cff32000202be00d5
:102470000402420085824a000a05e900c2ff3700d3
:102480000402420085824a000a05e900c9ff3700bc
:10249000610515000400be000a05e90003003300d1
:1024a0008100d1000080d300fbff3700d1ff37004f
:1024b0000400fa00889fbe000004be008900780076
:1024c00001f0a100a4fd200095f42300840f50002a
:1024d000858f58001e003e00f4ff2f00f597230063
:1024e000840f5000858f580016003e006000b80031
:1024f00003f8270089806100e00f5000e08f58004a
:102500000b003a0002002000033820000800be0043
:102510000efb07000001be00c2bf9f00d3bf9f009b
:102520000800be004f04be000080fa000000060054
:102530000200200003b827000800be003ff9070092
:10254000f4ff37000800be007301070018003700d1
:102550004f49de0003002000143d2500b50724008c
:10256000840f5000858f58001d003e0034be2c00a3
:1025700065012400840f5000858f58000e003e0036
:102580000800be000200e000b2fd200093fc230022
:102590000500320029f90700d40007000004be003e
:1025a00009f0a200deff37001bf90700cf0007008b
:1025b0000004be00daff37000800be000200e000a1
:1025c000b2fd200093042400030032001bf9070031
:1025d00001f0a200dcff37000ff90700fcff370015
:1025e000541d2300250e2400840f5000858f5800b1
:1025f00017003e00f4dd2e00f50a2400840f500081
:10260000858f580009003e000800be000200e0006f
:1026100042be2c00630924000200320007f90700c3
:10262000e2ff3700fcf80700dbff37000800be00c0
:102630000200e000b2fd2000930c240002003200f2
:10264000fef80700c0ff3700f3f80700beff3700b1
:10265000f2ff2f00f3f72700820f5000838f5800fe
:10266000050036000801be000800be00eaf80700b9
:102670000004be00aaff3700688157000800be00b2
:10268000ce000700630160004fb89700dfb89700e5
:10269000e10f5100c5ff3200e20f5100ccff3200c4
:1026a0000200e000bcff3a00a7ff3700889fbe0091
:1026b0008a9fbe008c1f78000004be000003be008d
:1026c0006055b80004f82700890562000400200066
:1026d00005f82700840f5500858f5d000b003a0038
:1026e0000001be0099fa07000001be000800be000c
:1026f000d2f807000004be000800be004f067800b4
:102700004f05be004f04be0000000600e00f500061
:10271000e08f580011003c0000027800870278002a
:1027200005f0a100e00f5200e08f5a00f2ff3200e6
:10273000e00f5000e08f580008003d00100220001c
:10274000b0cd88000801be000800be00b2f8070046
:102750000001be009ef90700e6ff3700478dde004e
:10276000cf8dde00e00f5500e08f5d000c003a00d9
:10277000000040008180480061024500e0824d0079
:102780000001eb00810178000308b200e00f510066
:10279000e08f59004d00320060051500e0851d00f6
:1027a000fa07b1000b80b1000001be00f307b200d0
:1027b0000370a000610065008000eb00e00f500096
:1027c000e08f58000200320002014100838149007d
:1027d0008b85d1000a85d300020041008380490027
:1027e0009c01200002002000031020006044b8007b
:1027f0006033b8000602410087824900800f520012
:10280000818f5a0006003c00040341008583490083
:102810000400500085805800080441008984490064
:1028200000004000818048008301d1000281d30074
:102830000c06e9000c00e000eeff3a00e00f50004b
:10284000e08f5800160032000226240023da200010
:102850000000200001f823006ff8070002002000ac
:1028600003f8230011f807000000e0000c00350019
:102870000226240023da20000000200001f82300b3
:102880006ef807000200200003f8230007f8070095
:102890000000e0000f00340062044400e0844c00bb
:1028a0008984d1000884d3000000200001f02300b7
:1028b0000800400089804800c755dd000a0020005c
:1028c0000a0440008b8448008bff37000405be00db
:1028d000a7ff370061004400e0804c00000478004e
:1028e0000800a10081047800edff37000400fa0021
:1028f000889fbe008a9fbe008c9fbe000001be0064
:1029000012fa07000004be000001be000ffa070023
:102910000005be000200200003f02b000800be00ee
:102920000afa07000200200003f8230043f807001a
:102930000006be00f2a92a00a3d223000a00be00ae
:1029400002fa07000001be000c00be003bf80700c1
:102950000002be0072a12900c37c23000800be0053
:1029600084bf9f0095bf9f00f8f90700f243200045
:1029700063ab230028f807000006be000a01be0072
:102980000800be00f1f907000001be000c00be0007
:10299000eef907000001be000fba97009fba97003a
:1029a0000400be0025f807004f06be004f05be001c
:1029b0004f04be000080fa00000006000400fa0088
:1029c000889fbe008a9fbe008c9fbe0000067800d4
:1029d000810478008206780001f0a100a2fd2000a9
:1029e00093dc2400820f5000838f580023003e00a8
:1029f00032982f0023f2230089007800d3f90700d2
:102a00000200200003b424000cf80700020020009c
:102a100003b4240000f807000005be00a5f7070076
:102a200000047800a2fd200093fc23000a00be00f1
:102a3000c6f907000001be000c007800890078008c
:102a4000f5f707000002be00325a28008328230051
:102a50000a00be0084bf9f0095bf9f00bbf907001e
:102a60000001be000fba97009fba97000400be0095
:102a7000e9f70700808ebe000b003700f2ff2f0041
:102a8000f3f72700820f5000838f58000c003600a8
:102a9000000178008901780089007800def70700de
:102aa000808ebe000004eb00080078004f06be00d8
:102ab0004f05be004f04be000080fa000000060073
:102ac000890078004c0007000005be0032982f00f6
:102ad00023f223009df907000200200003f02300e9
:102ae000d6f70700530007000004780054fb0700e6
:102af00032982f0023f22300b5f807000001be0032
:102b00000a00be00c4f707006000b800a0069800e5
:102b1000b1069800d7ff37000400fa00889fbe0076
:102b20008a9fbe008c9fbe000006be000001be0052
:102b300086f907000004be000001be000c00be00c4
:102b400082f907000005be000801be000800be00b3
:102b50007ef907000a01be007cf907000002be00f2
:102b6000c2c32600636323000800be0084bf9f0029
:102b700095bf9f0075f90700f27c200003952300a4
:102b8000a5f707000001be000fba97009fba970093
:102b90000400be006df907000002be004288280054
:102ba00083c023000800be0084bf9f0095bf9f0024
:102bb00066f90700b2aa2a00a3e2230096f70700ed
:102bc0000a01be0061f907000c01be009bf7070077
:102bd0000001be000fba97009fba97000400be0024
:102be00096f707004f06be004f05be004f04be001b
:102bf0000080fa00000006000400fa006011b8002e
:102c0000e2bf9f00f3bf9f006fbb9700ffbb970021
:102c10000002be00f3ff270083816300f2ff2f0054
:102c20000200620082806200020163000080fa00fc
:102c3000000006000003be005ff707006011b80047
:102c40000470a70007f0a1006509b1001b00320065
:102c500012003500860220000628e1000800350039
:102c6000f3ff2700f2ff2f006110b9000700e0001a
:102c700018003b00030028006000b80002000500b7
:102c80000000400081804800020149008381490022
:102c90008502e900faff3a0008003700f88f420089
:102ca00002003c008000eb00000005008100d10024
:102cb0000080d3008502e800fcff3a000700e00036
:102cc00004003b0060001000e08018006001190063
:082cd000e0811900000006007c
:020000040000fa
:102cd8001600fa004007980052079800630798000a
:102ce80074079800050f9800160f9800270f980092
:102cf8004e0090005e019000ee0190000288be0038
:102d08004e0090007e0190008e09900022009800ed
:102d1800330098004e0090001e099000ae09900004
:102d280042009800530098004e0090003eb997006a
:102d3800ceb9970062009800730098004e0090008a
:102d48005eb19700eeb1970062109800731098007a
:102d58004e0090001eb19700aeb19700021898007f
:102d6800131898004e0090003eb19700ceb197001e
:102d780022209800332098004e0090001eb997003a
:102d8800aeb9970002109800131098004e009000fa
:102d98007eb197008eb997002210980033109800e2
:102da8004e009000d0209000402090000001be000e
:102db8001eb89700aeb8970015f70700008fbe0041
:102dc8004e009000f0209000602090000001be00ae
:102dd8007eb097008eb897000df70700200798007f
:102de800310798001e0078009e0090002e02900087
:102df800be0290000001be000400be000bfb0700ed
:102e08000001be004e0090000208980013089800c8
:102e18004e00900040219000d02190004e0090007c
:102e280022289800332898004e00900060219000d6
:102e3800f02190004e0090004228980053289800f6
:102e48004e0190006000b800002198001121980000
:102e58004e0090005eb19700eeb1970062109800a6
:102e680073109800000000000080fa0000000600bf
:102e78000000fa00889fbe008a9fbe00a0c980009b
:102e8800b1c9800024c9800035c980000001be0096
:102e98000400be00b91007000002be0020c980006f
:102ea80031c980000001be000400be00d8f607004a
:102eb8008001780001017800030078008200780022
:102ec8000000be00c0c98800d1c9880044c980007c
:102ed80055c9800040c9800051c980000001be006a
:102ee8000400be0097f80700000178000100780090
:102ef800820478000004780060c9800071c98000ed
:102f08000001be00cbf60700000178000100780040
:102f180082017800000178000300780082007800c0
:102f28000001be0009007800880078000000be009b
:102f3800a5f70700800178000101780003007800f8
:102f4800820078000000be00e0c98800f1c988004e
:102f580040c9800051c9800002002000a337240026
:102f680099f70700800178000101780003007800d4
:102f7800820078000000be0000ca880011ca8800dc
:102f880040c9800051c980006011b80043f60700ad
:102f98000000e00005003d00e0c98000f1c98000a4
:102fa80001f0a200e0c98800f1c98800e0c98000ea
:102fb800f1c980006011b8003af607000000e0008f
:102fc80006003500c0c98000d1c980006011b80072
:102fd80034f607000000e0000c003d00e0c9800066
:102fe800f1c980006011b8002cf607000000e0006d
:102ff80074003c00c0c98000d1c980006011b800cd
:1030080026f607000000e0006e003c00c0c9800002
:10301800d1c98000041107000004be00e0c9800087
:10302800f1c98000001107000001be000800be00c1
:103038001cf607000000e0006200350060c980004f
:1030480071c98000f226210033b823003df807003b
:103058000001780001007800820278000002780000
:1030680040c9800051c980000001be0005007800f9
:10307800840078000000be006ef60700800178002a
:103088000101780003007800820078000000be008b
:1030980040c9880051c98800c0c98000d1c98000d2
:1030a8006011b800fff507000000e0001e003400c2
:1030b80088c9800099c980004ac980005bc980001e
:1030c80060c9800071c9800002002000a337240075
:1030d8003df70700000178000100780082017800c0
:1030e8000001780003007800820078000001be002b
:1030f8000a00be004ff607000001780001007800c2
:1031080082027800000278000801be0005007800fd
:10311800840078000000be00ef10070040c9880056
:1031280051c988007a003700c0c98000d1c9800021
:103138006011b800d9f507000000e0000100350073
:103148007300370080c9800091c980000004be0068
:1031580009f0a2004ac980005bc9800060c98000ec
:1031680071c9800002002000a337240016f7070069
:1031780000017800010078008201780000017800e1
:1031880003007800820078000001be000a00be003b
:103198001ff607000001780001007800820278001d
:1031a800000278000801be0005007800840078005d
:1031b8000000be00c810070040c9880051c9880037
:1031c8005300370040c9800051c980006011b80021
:1031d800b4f507000000e0001c00340048c9800076
:1031e80059c9800060c9800071c98000f226210099
:1031f80033b82300d3f707000001780001007800f6
:1032080082017800000178000300780082007800cd
:103218000001be000800be00fdf5070000017800af
:103228000100780082027800000278006011b8007e
:1032380005007800840078000000be00a610070092
:1032480040c9880051c988002100370040c9800062
:1032580051c980006011b80090f507000000e00037
:103268001b003d0048c9800059c9800060c9800022
:1032780071c98000f226210033b82300b1f7070096
:1032880000017800010078008201780000017800d0
:1032980003007800820078000001be000800be002c
:1032a800e4f5070000017800010078008202780048
:1032b800000278006011b8000500780084007800ea
:1032c8000000be006d10070040c9880051c9880081
:1032d800c0c98000d1c98000531007000004be0097
:1032e80000ca800011ca80004f1007000001be000c
:1032f8000800be0069f507000000e00004003d007a
:10330800c0c98000d1c9800000ca880011ca8800dd
:1033180004ca800015ca800020c9800031c9800015
:103328000001be000400be00c2f50700800178005d
:103338000101780003007800820078000000be00d8
:1033480020c9880031c9880040c9800051c980005f
:103358006011b80051f507000000e00001003200dc
:103368000f003700c0c98000d1c980002e100700a7
:10337800a2702d0033c2230048f507000000e000ca
:103388000100350006003700a0c98000b1c98000df
:1033980020c9880031c98800200020005082880098
:1033a800000000004f05be004f04be000080fa0078
:1033b800000006003400fa00889fbe008a9fbe0005
:1033c8002017980031179800421798005317980053
:1033d8006417980075179800061f9800171f980023
:1033e8006e119000fe1190002e109000be109000fb
:1033f80087f5070020079800310798000e199000fc
:103408009e1990004e109000de10900080f5070085
:1034180040079800510798006011b8002e009000ee
:10342800be0090001df507000000e00038003a00db
:103438006011b8004e009000de00900017f50700fc
:103448000000e00032003a002e119000be119000fa
:103458006e109000fe1090006df507006007980050
:10346800710798004e119000de1190000e18900020
:103478009e18900066f50700000f9800110f98003d
:103488006e019000fe0190006e009000fe0090001a
:103498002cf707000001780001007800820478000a
:1034a800000478000e0990009e0990000e08900014
:1034b8009e08900023f707000001780001007800bb
:1034c800820178000001780003007800820078000b
:1034d8000001be0009007800880078000000be00e6
:1034e80054f5070000017800010078008201780097
:1034f8000001780003007800820078000000be0018
:1035080068fc07000001780001007800bb00370064
:103518002e119000be1190006e109000fe109000c9
:103528003bf507000001780001007800820278006e
:10353800000278002e019000be019000050078007e
:10354800840078000000be00fef607000001780045
:103558000100780082047800000478004e11900081
:10356800de1190000e1890009e18900028f50700b4
:1035780000017800010078008202780000027800db
:103588004e019000de01900005007800840078006c
:103598000000be00ebf6070000017800010078008b
:1035a800820178000001780003007800820078002a
:1035b8000001be0009007800880078000000be0005
:1035c8001cf50700000178000100780082047800eb
:1035d800000478002e019000be0190002e0090009b
:1035e800be009000d7f607000001780001007800bf
:1035f80082057800000578004e019000de019000f9
:103608004e009000de009000cef607000001780022
:10361800010078008201780000017800030078003a
:10362800820078000001be000b0078008a00780054
:103638000000be00fff407000001780001007800d8
:103648008201780000017800030078008200780089
:103658000001be0009007800880078000000be0064
:10366800d9f50700008fbe006011b8001e00780071
:103678009e00900089f407000000e00002003d0071
:103688006000b800008fbe000200200003f823008d
:103698001e0078009e00900082f407000000e00001
:1036a800030034000000200001f82300008fbe0052
:1036b8002e019000be0190001e0078009e00900030
:1036c800a0f6070000017800010078008201780068
:1036d8000001780003007800820078000001be0035
:1036e8002e109000be109000d2f40700200f980012
:1036f800310f98004e019000de0190001e00780006
:103708009e0090008ff60700000178000100780005
:1037180082017800000178000300780082007800b8
:103728000001be004e109000de109000c1f40700aa
:10373800400f9800510f98002e099000be09900084
:103748006e109000fe109000b1f40700600f980012
:10375800710f98004e099000de0990000e18900035
:103768009e189000aaf407000017980011179800f7
:103778006e099000fe0990006e089000fe08900007
:1037880070f60700000178000100780082047800d4
:10379800000478000e1190009e1190000e10900009
:1037a8009e10900067f6070000017800010078007d
:1037b8008201780000017800030078008200780018
:1037c8000001be0009007800880078000000be00f3
:1037d80098f4070000017800010078008201780061
:1037e8000001780003007800820078000000be0025
:1037f800acfb070000017800010078008201780026
:103808000001780003007800820078000000be0004
:103818004f05be004f04be000080fa0000000600fd
:103828000800fa00889fbe008a9fbe0084cb8000f3
:1038380095cb800062cb800073cb800040ca8000ab
:1038480051ca800028ca800039ca80000403be001b
:103858000202be000001be000800be00d5fe07003f
:1038680060ca880071ca880024ca800035ca8000ee
:1038780060cb800071cb80000001be000400be0058
:1038880063f40700000178000100780082047800e2
:103898000004780044ca800055ca800080cb8000ac
:1038a80091cb80000001be000400be0058f4070060
:1038b8000001780001007800820278000002780098
:1038c80009007800880078000001be000500780033
:1038d800840078000000be0054f80700008fbe0086
:1038e80024c9800035c980001e0078009e00900021
:1038f8000001be000400be00200e07000002be004a
:1039080020c9800031c980000001be000400be004b
:103918003ff4070020079800310798002e00900018
:10392800be009000c00e0700b2fd200093fc2300eb
:10393800dcf307000000e0000500340060ca8000e6
:1039480071ca800001f0a20060ca880071ca8800ac
:1039580084ca800095ca800080ca800091ca80000d
:103968000001be000400be00f6f507000001780063
:10397800010078008204780000047800a0ca800062
:10398800b1ca80000001be002af4070000017800d7
:1039980001007800820178000001780003007800b7
:1039a800820078000001be000900780088007800d5
:1039b8000000be0004f507008001780001017800ce
:1039c80003007800820078000000be00e0ca88008a
:1039d800f1ca880080ca800091ca800002002000d5
:1039e800a3372400f8f4070080017800010178006b
:1039f80003007800820078000000be00c0ca88007a
:103a0800d1ca880080ca800091ca80006011b800bd
:103a1800a2f307000000e00005003d00e0ca8000b6
:103a2800f1ca800001f0a200e0ca8800f1ca88004b
:103a3800e0ca8000f1ca80006011b80099f307005d
:103a48000000e0000600350060ca800071ca8000ee
:103a58006011b80093f307000000e0000c003d007f
:103a6800e0ca8000f1ca80006011b8008bf307003b
:103a78000000e00074003c0060ca800071ca800049
:103a88006011b80085f307000000e0006e003c00fc
:103a980060ca800071ca8000630e07000004be007f
:103aa800e0ca8000f1ca80005f0e07000001be0076
:103ab8000800be007bf307000000e000620035004c
:103ac800a0ca8000b1ca8000f226210033b82300c2
:103ad8009cf5070000017800010078008202780058
:103ae8000002780080ca800091ca80000001be00f0
:103af80005007800840078000000be00cdf30700c0
:103b080080017800010178000300780082007800c5
:103b18000000be0080ca880091ca880060ca800080
:103b280071ca80006011b8005ef307000000e00071
:103b38001e00340048cb800059cb80008aca800020
:103b48009bca8000a0ca8000b1ca80000200200081
:103b5800a33724009cf407000001780001007800d6
:103b68008201780000017800030078008200780064
:103b78000001be000a00be00aef307000001780095
:103b88000100780082027800000278000801be0077
:103b980005007800840078000000be004e0e070083
:103ba80080ca880091ca88007a00370060ca8000fd
:103bb80071ca80006011b80038f307000000e00007
:103bc800010035007300370040cb800051cb8000e6
:103bd8000004be0009f0a2008aca80009bca8000c7
:103be800a0ca8000b1ca800002002000a3372400c8
:103bf80075f4070000017800010078008201780060
:103c08000001780003007800820078000001be00ff
:103c18000a00be007ef3070000017800010078006a
:103c280082027800000278000801be0005007800d2
:103c3800840078000000be00100e070080ca8800cb
:103c480091ca88005300370080ca800091ca80005a
:103c58006011b80013f307000000e0001c003400f6
:103c680088ca800099ca8000a0ca8000b1ca8000b2
:103c7800f226210033b8230032f50700000178004e
:103c880001007800820178000001780003007800c4
:103c9800820078000001be000800be005cf3070047
:103ca80000017800010078008202780000027800a4
:103cb8006011b80005007800840078000000be009c
:103cc800ee0d070080ca880091ca880021003700dd
:103cd80080ca800091ca80006011b800eff2070026
:103ce8000000e0001b003d0088ca800099ca8000df
:103cf800a0ca8000b1ca8000f226210033b8230090
:103d080010f50700000178000100780082017800b2
:103d18000001780003007800820078000001be00ee
:103d28000800be0043f30700000178000100780096
:103d380082027800000278006011b800050078005f
:103d4800840078000000be00e30d070080ca8800e8
:103d580091ca880060ca800071ca8000b20d07004d
:103d68000004be00c0ca8000d1ca8000ae0d0700a2
:103d78000001be000800be00c8f207000000e00015
:103d880004003d0060ca800071ca8000c0ca880073
:103d9800d1ca8800c4ca8000d5ca800020cb800060
:103da80031cb80000001be000400be0021f30700f3
:103db8008001780001017800030078008200780013
:103dc8000000be0020cb880031cb8800c8cb800023
:103dd800d9cb80002acb80003bcb800020c9800053
:103de80031c98000a8f807000001be000a00be0023
:103df800d4f40700000178000100780082017800ff
:103e08000001780003007800820078000001be00fd
:103e18000800be0007f30700800178000101780060
:103e280003007800820078000000be0060cb8800a4
:103e380071cb8800e8cb8000f9cb80002acb8000ca
:103e48003bcb800020c9800031c9800096f907006b
:103e58000001be000a00be00baf4070000017800a5
:103e680001007800820178000001780003007800e2
:103e7800820078000001be000800be00edf20700d5
:103e88008001780001017800030078008200780042
:103e98000000be0080cb880091cb880080ca8000db
:103ea80091ca80006011b8007cf207000000e000b1
:103eb800010032001d00370060ca800071ca80000e
:103ec800590d0700a2702d0033c2230073f20700ba
:103ed8000000e000010035001400370020ca80000f
:103ee80031ca800060cb880071cb880040ca80004e
:103ef80051ca800080cb880091cb880060cb8000bd
:103f080071cb8000c0cb8800d1cb880080cb8000eb
:103f180091cb8000e0cb8800f1cb88006000b8002e
:103f280020cb880031cb88004a30ef000000000029
:103f38004f05be004f04be000080fa0000000600d6
:103f48000000fa0050828000e10f500008003200a3
:103f5800e20f5000080032000000e00008003a00bc
:103f68006000b80020c9880031c988000400370003
:103f7800bffb07000200370029fe07000000000011
:103f8800000000000080fa00000006002000fa008f
:103f980040c9800051c980000001be008000eb00cc
:103fa8000e007800c80c070080c9800091c9800005
:103fb8000001be00410020000e007800c20c07007e
:103fc80060c9800071c980000001be008100200026
:103fd8000e007800bc0c070020c9800031c98000a1
:103fe8000001be00c10020000e007800b60c0700da
:103ff800a0c98000b1c980000001be0001012000f5
:104008000e007800b00c070060cb800071cb8000f8
:104018000001be00410120000e007800aa0c070034
:1040280080cb800091cb80000001be008101200080
:104038000e007800a40c070060ca800071ca8000d6
:104048000001be00c10120000e0078009e0c070090
:104058000e01780001022000000720000806070072
:10406800000000000080fa00000006000a00fa00c4
:10407800b40e0700010f07009e0a07000d0e070087
:1040880086070700460807005f0807008a0f070031
:104098001e09070025090700e4808000f5808000dc
:1040a800c2808000d380800000002000010a240024
:1040b800809fbe0000002000010a2400809fbe00ef
:1040c80000002000010a2400809fbe006033b80071
:1040d800408f2100de030700ec8757002481800011
:1040e800358180000281800013818000000020005b
:1040f800010a2400809fbe0000002000010a24005d
:10410800809fbe0000002000010a2400809fbe009e
:104118006033b800408c2100cd030700ec875700be
:104128006000b80000c6880011c688006000b800aa
:1041380060cb880071cb88006000b80080cb880015
:1041480091cb88006000b800809fbe006000b80076
:10415800809fbe006000b800809fbe006000b8006d
:10416800809fbe006000b800809fbe006000b8005d
:10417800809fbe006033b8006022b8006011b800ac
:1041880040922100d2fa0700f887570084cea90090
:1041980084aea900848ea900856ea900754ea90079
:1041a800040ea900052ea90095eea900054ea90048
:1041b800746ea9000000eb00000f780005003700be
:1041c8000c0f0700204798002e4090002206070099
:1041d8001e0fe800210f07009e0f1000f8ff3500a2
:1041e800fd0d0700e14f50002b013a00fe0d0700be
:1041f800f50d0700200798002e00900010007800a9
:104208008000eb00e8f10700323323003305240077
:10421800ccf30700000178000100780082027800e2
:1042280000027800020020000358240005007800ee
:10423800840078000000be00e3f207003007980011
:10424800410798003e019000ce0190000000200038
:1042580081202400dcf207000001780001007800ca
:10426800820278000002780002002000030a24007d
:1042780005007800840078000000be00e4f1070023
:10428800800178000101780003007800820078003e
:104298000000be0040c4880051c488006400470084
:1042a8001080e800100078008000eb00bef10700e5
:1042b8003233230033052400a2f3070000017800fd
:1042c80001007800820278000002780002002000d5
:1042d8000358240005007800840078000000be0020
:1042e800b9f2070030079800410798003e01900096
:1042f800ce0190000000200081202400b2f20700c7
:10430800000178000100780082027800000278003d
:1043180002002000030a24000500780084007800c9
:104328000000be00baf107008001780001017800a2
:1043380003007800820078000000be0020c48800d6
:1043480031c488006400470041002000108040000c
:10435800100078008000eb0093f10700323323004f
:104368003305240077f30700000178000100780086
:10437800820278000002780002002000035824001e
:1043880005007800840078000000be008ef2070067
:1043980030079800410798003e019000ce01900038
:1043a800000020008120240087f207000001780027
:1043b80001007800820278000002780002002000e4
:1043c800030a240005007800840078000000be007d
:1043d8008ff1070080017800010178000300780060
:1043e800820078000000be0000c4880011c4880064
:1043f8006400470061002000108040001000780031
:104408008000eb0068f107003233230033052400f5
:104418004cf3070000017800010078008202780060
:1044280000027800020020000358240005007800ec
:10443800840078000000be0063f20700300798008f
:10444800410798003e019000ce0190000000200036
:10445800812024005cf20700000178000100780048
:10446800820278000002780002002000030a24007b
:1044780005007800840078000000be0064f10700a1
:10448800800178000101780003007800820078003c
:104498000000be00c0c38800d1c388006400470084
:1044a8008100200010804000100078008000eb00a0
:1044b8003df10700323323003305240021f30700c0
:1044c800000178000100780082027800000278007c
:1044d80002002000035824000500780084007800ba
:1044e8000000be0038f20700300798004107980026
:1044f8003e019000ce0190000000200081202400a1
:1045080031f207000001780001007800820278008b
:104518000002780002002000030a24000500780049
:10452800840078000000be0039f10700800178009f
:104538000101780003007800820078000000be00c6
:10454800e0c38800f1c3880040c4800051c48000e3
:104558000200200003112400d0f007000000e00052
:1045680003003d006000b80040c4880051c48800c2
:1045780020c4800031c48000020020000311240000
:10458800c6f007000000e00003003d006000b8002e
:1045980020c4880031c48800e0c38000f1c38000d3
:1045a8000200200003112400bcf007000000e00016
:1045b80003003d006000b800e0c38800f1c3880034
:1045c800c0c38000d1c38000020020000311240072
:1045d800b2f007000000e00003003d006000b800f2
:1045e800c0c38800d1c3880000c4800011c4800003
:1045f8000200200003112400a8f007000000e000da
:1046080003003d006000b80000c4880011c48800a1
:1046180040c4800051c48000c5f007008040780085
:10462800009a21000148780020c4800031c480002d
:10463800bff0070080407800009a210011409800e0
:1046480000c4800011c48000b9f0070080407800e1
:10465800009a210021409800c0c38000d1c3800087
:10466800b3f0070080407800009a2100314098009c
:10467800e0c38000f1c38000adf0070080407800ff
:10468800009a210041409800029a21005100200020
:10469800000320007a04070040c4800051c4800051
:1046a80002002000032024007cf007000000e00046
:1046b80002003d0084cea8000100370084cea90086
:1046c80020c4800031c4800002002000432124005f
:1046d80072f007000000e00002003d0084aea80070
:1046e8000100370084aea90000c4800011c4800016
:1046f800020020004323240068f007000000e000c7
:1047080002003d00848ea80001003700848ea900b5
:10471800c0c38000d1c380000200200043212400d0
:104728005ef007000000e00002003d00856ea80072
:1047380001003700856ea900e0c38000f1c3800046
:10474800020020000320240054f007000000e000cd
:1047580002003d00754ea80096fe3700754ea90070
:1047680094fe37000000fa0030d0bf000080fb0044
:104778006100b9000001be00b00020000100200067
:10478800800f5100818f5900e0003e0002060100b1
:104798000b0037002c003700350037005500370074
:1047a800590037007a0037007e0037009c00370038
:1047b800a0003700c0003700c4003700ce00370023
:1047c8006000b800e0c58800f1c588006000b80046
:1047d80000c6880011c688003830ef003a30ef0074
:1047e800bc03070010c0b30030f0b700509a210096
:1047f8008040eb0031409800509a2100b040900072
:10480800509a210021409800509a2100a040900021
:10481800509a210011409800509a21009040900031
:10482800509a210001487800c081800080407800bb
:10483800509a210041409800529a210051002000ce
:10484800000520000e040700c2818000d38180008b
:104858004006200001002000800f5100818f590080
:10486800ac00360020c0b30030f0b700a900370014
:104878000000200001f02300e0c58800f1c5880091
:104888006000b80000c6880011c6880091030700c0
:1048980030c0b30030f0b700509a21008040eb00e0
:1048a80031409800509a2100b0409000509a210061
:1048b80021409800509a2100a0409000509a210071
:1048c80011409800509a210011c0b30001487800a7
:1048d800c081800080407800509a210041409800b3
:1048e800529a21005100200000052000e40307002f
:1048f80093003700908180000000e00087003200bc
:104908009200070085003700d0cc2c00c1e42300ba
:10491800e0c58800f1c588000000200001f82300e8
:1049280000c6880011c688006a03070050c0b3009b
:1049380030f0b700509a21008040eb0031409800d9
:10494800509a2100b0409000509a21000148780008
:10495800509a210090407800509a21001140980008
:10496800509a210011c0b30021409800c0818000f6
:1049780080407800509a210041409800529a2100c6
:104988005100200000052000bd0307006c0037001f
:10499800908180000000e000620032006b00070098
:1049a80060003700d0cc2c00c1e42300e0c58800ab
:1049b800f1c588000000200001f82b0000c688001f
:1049c80011c688004303070070c0b30030f0b70079
:1049d800509a21008040eb0011409800509a210025
:1049e80090409000509a210021409800509a210050
:1049f800a0409000509a210001487800509a210068
:104a080011c0b30031409800c08180008040780018
:104a1800509a2100414098002e03070048003700b3
:104a2800908180000000e00040003200470007004d
:104a38003e0037006000b800e0c58800f1c5880076
:104a4800305c2f00810c240000c6880011c6880045
:104a58002003070090c0b30030f0b700509a21003f
:104a68008040eb0031409800509a2100b0409000ff
:104a7800509a210021409800509a2100a0409000af
:104a8800509a210001487800509a210011c0b300c3
:104a980011409800c081800080407800509a210021
:104aa80041409800529a2100510020000005200042
:104ab8007303070022003700908180000000e000a7
:104ac8001c003200210007001a0037006000b800ff
:104ad800e0c58800f1c58800305c2f00810c2c00ef
:104ae80000c6880011c68800fa020700b0c0b300eb
:104af80030f0b70012003700908180000000e0001d
:104b08000e003200110007000c0037003070ef0073
:104b18000b0037000000000009003700000000000b
:104b28000700370000000000050037000000000003
:104b380003003700000000000100370000000000fb
:104b4800000000000080fa00000006000200fa00e1
:104b58000040eb00004f78000040eb00004f780069
:104b68002a70ef002b70ef002c70ef002d70ef0013
:104b78002e70ef002f70ef0000c4800011c4800079
:104b8800020020000322240044ef07000000e00098
:104b980003003d002fd0bf000024a0002ff0b70075
:104ba800c0c38000d1c3800002002000032024007d
:104bb8003aef07000000e00003003d002dd0bf00e1
:104bc8000014a0002df0b700e0c38000f1c38000fe
:104bd80002002000831c240030ef07000000e000e2
:104be80003003d002ed0bf000004a0002ef0b70047
:104bf80020c4800031c4800002002000032024006b
:104c080026ef07000000e00003003d002bd0bf00a6
:104c18000034a0002bf0b70040c4800051c48000cd
:104c280002002000831c24001cef07000000e000a5
:104c380003003d002cd0bf000044a0002cf0b700ba
:104c4800c1022100914078002bd0bf0080c07000c5
:104c58002fd0bf0080c070002dd0bf0080c0700072
:104c68002ed0bf0080c070002ad0bf0000c07000e6
:104c78002af0b70030d0bf00e94f500009003a00d1
:104c880030d0bf00eb4f500006003a0030d0bf00d4
:104c9800e74f500003003a0030d0bf00e54f500006
:104ca8004d0032002ad0bf00f44f500006003200f9
:104cb8002ad0bf00ec4f5000030032002ad0bf00ba
:104cc800fc4f500003003a0030c0b300004f78009a
:104cd800410037002ad0bf00e54f500006003200df
:104ce8002ad0bf00e64f5000030032002ad0bf0090
:104cf800e74f500003003a0030c0b300004f78007f
:104d0800350037002ad0bf00e44f500015003200ac
:104d18002ad0bf00ee4f5000120032002ad0bf0048
:104d2800f74f50000f0032002ad0bf00ff4f50004d
:104d38000c0032002ad0bf00ef4f500009003200ab
:104d48002ad0bf00fe4f5000060032002ad0bf0014
:104d5800fd4f5000030032002ad0bf00f54f50002d
:104d680003003a0030c0b300004f78001a00370043
:104d78002ad0bf00f04f5000060032002ad0bf00f2
:104d8800e84f5000030032002ad0bf00f84f50000f
:104d980003003a0010c0b300004f78000e0037003f
:104da8002ad0bf00e14f5000060032002ad0bf00d1
:104db800e24f5000030032002ad0bf00e34f5000fa
:104dc80003003a0020c0b300004f7800020037000b
:104dd8000040eb00004f78008040eb009ecf1000b1
:104de80003003a0020c0b30034f0b70017003700c2
:104df80021c0b3009ecf100003003a0040c0b300aa
:104e080034f0b7001100370011c0b3009ecf100076
:104e180003003a0060c0b30034f0b7000b0037005d
:104e280031c0b3009ecf100003003a0080c0b30029
:104e380034f0b7000500370041c0b3009ecf100022
:104e480002003a00a0c0b30034f0b70034d0bf006d
:104e58000080fb0001032100914078008180fb0065
:104e68008100e900810f50000200320034d0bf00f9
:104e780030f0b700000000000080fa0000000600d3
:104e88000800fa00a0c38000b1c3800001f0a200ae
:104e98000001be008000eb000e0078000a09070040
:104ea80060c3800071c380000001be004100200083
:104eb8000e007800040907000e0178008100200028
:104ec800000420006e020700000000000080fa00c5
:104ed800000006001a00fa00889fbe008a9fbe00e4
:104ee800000f78001e007800104078000004e000f1
:104ef80027003a00510120001e007800e70907004a
:104f08001007980021079800110120001e00780062
:104f1800e20907000005be00d10020001e0078004d
:104f2800de0907000004be00910020001e00780082
:104f3800da0907003007980041079800510020005f
:104f48001e007800d50907005007980061079800ef
:104f5800110020001e007800d00907001e019000f3
:104f6800ae019000829fbe008a9fbe00889fbe004f
:104f78003e039000ce0390005e029000ee02900087
:104f88000001be00408c210031000700ec8757006b
:104f98001e00780010407800e14f500027003a00ca
:104fa800510120001e007800bc0907007007980016
:104fb800010f9800110120001e007800b7090700b2
:104fc8000005be00d10020001e007800b3090700cc
:104fd8000004be00910020001e007800af09070001
:104fe800100f9800210f9800510020001e00780033
:104ff800aa090700300f9800410f980011002000ff
:105008001e007800a50907007e0190008e09900017
:10501800829fbe008a9fbe00889fbe001e0b900024
:10502800ae0b90003e0a9000ce0a90000001be0030
:10503800408f210006000700ec87570000000000a1
:105048004f05be004f04be000080fa0000000600b5
:105058000e00fa00000f7800120798002307980046
:105068003407980045079800560798006707980086
:105078001e0078001e019000ae0190000288be005c
:105088001e0078003eb99700ceb9970062009800dc
:10509800730098001e0078003e019000ce01900039
:1050a80022009800330098001e0078001eb997006f
:1050b800aeb9970002089800130898001e007800ff
:1050c8005e019000ee0190004200980053009800a5
:1050d8001e0078007eb197008eb9970022089800cc
:1050e80033089800000000000080fa000000060065
:1050f8005000fa0020c6800031c680000001be00c2
:105108008000eb000e0078006f08070040c68000a2
:1051180051c680000001be00410020000e0078004a
:105128006908070060c6800071c680000001be00e3
:10513800810020000e0078006308070080c6800008
:1051480091c680000001be00c10020000e0078005a
:105158005d080700a0c68000b1c680000001be003f
:10516800010120000e00780057080700c0c6800023
:10517800d1c680000001be00410120000e00780069
:1051880051080700a0c78000b1c780000001be0019
:10519800810120000e0078004b080700c0c780007e
:1051a800d1c780000001be00c10120000e007800b8
:1051b80045080700e0c78000f1c780000001be0075
:1051c800010220000e0078003f08070000c8800098
:1051d80011c880000001be00410220000e007800c6
:1051e8003908070020c8800031c880000001be00cf
:1051f800810220000e0078003308070040c88000b4
:1052080051c880000001be00c10220000e007800d5
:105218002d08070020c7800031c780000001be00ac
:10522800010320000e0078002708070040c780000f
:1052380051c780000001be00410320000e00780025
:105248002108070060c7800071c780000001be0008
:10525800810320000e0078001b08070080c780002b
:1052680091c780000001be00c10320000e00780035
:1052780015080700a0c88000b1c880000001be0062
:10528800010420000e0078000f080700c0c8800045
:10529800d1c880000001be00410420000e00780043
:1052a80009080700e0c88000f1c880000001be00be
:1052b800810420000e0078000308070000c9800060
:1052c80011c980000001be00c10420000e00780052
:1052d800fd0707000e0178000105200010062000d8
:1052e80067010700000000000080fa0000000600c7
:1052f8001200fa00889fbe006007980072079800a5
:10530800030f98006e0090007e0190008e099000b7
:1053180002109800131098006e0090006002900030
:10532800f00290006e00900090009000100078004d
:105338000001be000400be00a3ee070000017800d3
:105348000100780082047800000478006e00900064
:10535800f00090006000900001f0a2006e01900043
:10536800920190001201780097ee07000001780082
:105378000100780082017800000178007e03900027
:105388008e0b900009007800880078000002be00ab
:1053980003007800820078000001be000600be000d
:1053a80064080700008fbe006e0090009000900017
:1053b800100078001e0178009e01900061ef070040
:1053c80080017800010178000300780082007800ed
:1053d8000001be006e009000221098003310980063
:1053e8006e009000400c9000d00c9000020020004d
:1053f800a33724007e0090008e08900072ee07000c
:10540800000178000100780082017800000178002e
:1054180003007800820078000001be000800be008a
:1054280084ed07008001780001017800030078000e
:10543800820078000001be006e00900042089800cb
:10544800530898006e009000000a9000900a90009f
:105458006e009000b0009000200090000001be0097
:105468000400be0058ee0700000178000100780033
:1054780082047800000478006e0090009008900084
:105488000008900001f0a2006e019000b2019000a7
:10549800220190004cee070000017800010078001e
:1054a80082017800000178006e009000400b9000a7
:1054b800d00b900009007800880078000002be0038
:1054c80003007800820078000001be000600be00dc
:1054d800180807000001be006e00900042089800fe
:1054e800530898006e00900020029000b0029000cf
:1054f8006e009000d0089000400890000001be00a7
:105508000400be000fef0700800178000101780059
:1055180003007800820078000001be006e00900051
:1055280042109800531098006e009000f008900008
:10553800600890000001be007e0090008e08900078
:1055480033ed07000001780001007800820278003e
:105558000002780002002000a3372400050078002c
:10556800840078000000be00f6ee070020079800cf
:10557800310798006e009000200a9000b00a900051
:105588006e009000d0009000400090000001be0026
:105598000400be000cee070000017800010078004e
:1055a80082047800000478006e009000b008900033
:1055b8002008900001f0a2006e019000d201900036
:1055c8004201900000ee0700000178000100780019
:1055d80082017800000178002e039000be0390003d
:1055e80009007800880078000002be0003007800f7
:1055f800820078000001be000600be00cd0707004b
:1056080040079800510798006e0090007e019000b6
:105618008e09900062089800730898006e00900048
:10562800d0009000400090004e019000de019000f4
:10563800c4ee0700800178000101780003007800bb
:10564800820078000001be006e0090006210980091
:10565800731098006e00900020129000b012900015
:105668006e009000d0109000401090000001be0025
:105678000400be00efec070000017800010078008c
:1056880082027800000278006e009000f01090000e
:10569800601090000001be000500780084007800ca
:1056a8000000be00e3ec070000017800010078006c
:1056b80082007800810178000001780003007800fa
:1056c800820078000000be004f04be000080fa008f
:1056d800000006000000fa00e4c58000f5c580005f
:1056e800a0c48000b1c480000001be000400be0058
