:020000040000fa
:080000000002040000000000f2
:020000040000fa
:0400080048040000a8
:020000040000fa
:04000c0048040000a4
:020000040000fa
:0400100048040000a0
:020000040000fa
:04001400480400009c
:020000040000fa
:040018004804000098
:020000040000fa
:04001c004804000094
:020000040000fa
:040020004804000090
:020000040000fa
:04002400480400008c
:020000040000fa
:040028004804000088
:020000040000fa
:04002c004804000084
:020000040000fa
:040030004804000080
:020000040000fa
:04003400fa020000cc
:020000040000fa
:040038004804000078
:020000040000fa
:04003c004804000074
:020000040000fa
:040040004804000070
:020000040000fa
:04004400480400006c
:020000040000fa
:040048004003000071
:020000040000fa
:04004c004804000064
:020000040000fa
:040050004804000060
:020000040000fa
:0400540000040000a4
:020000040000fa
:04005800d4030000cd
:020000040000fa
:04005c00ae030000ef
:020000040000fa
:040060004804000050
:020000040000fa
:04006400480400004c
:020000040000fa
:040068004804000048
:020000040000fa
:04006c004804000044
:020000040000fa
:040070004804000040
:020000040000fa
:04007400480400003c
:020000040000fa
:040078004804000038
:020000040000fa
:04007c004804000034
:020000040000fa
:040080004804000030
:020000040000fa
:04008400480400002c
:020000040000fa
:040088004804000028
:020000040000fa
:04008c004804000024
:020000040000fa
:040090004804000020
:020000040000fa
:040094004a0300001b
:020000040000fa
:040098004804000018
:020000040000fa
:04009c004804000014
:020000040000fa
:0400a0004804000010
:020000040000fa
:0400a400480400000c
:020000040000fa
:0400a8004804000008
:020000040000fa
:0400ac004804000004
:020000040000fa
:0400b0004804000000
:020000040000fa
:0400b40048040000fc
:020000040000fa
:0400b80048040000f8
:020000040000fa
:0400bc0048040000f4
:020000040000fa
:0400c00048040000f0
:020000040000fa
:0400c40048040000ec
:020000040000fa
:0400c80048040000e8
:020000040000fa
:0400cc0048040000e4
:020000040000fa
:0400d00048040000e0
:020000040000fa
:0400d40048040000dc
:020000040000fa
:0400d80048040000d8
:020000040000fa
:0400dc0048040000d4
:020000040000fa
:0400e00048040000d0
:020000040000fa
:0400e40048040000cc
:020000040000fa
:0400e80048040000c8
:020000040000fa
:0400ec0048040000c4
:020000040000fa
:0400f00048040000c0
:020000040000fa
:0400f40048040000bc
:020000040000fa
:0400f80048040000b8
:020000040000fa
:0400fc0048040000b4
:020000040000fa
:0401000048040000af
:020000040000fa
:0401040048040000ab
:020000040000fa
:0401080048040000a7
:020000040000fa
:04010c0048040000a3
:020000040000fa
:04011000480400009f
:020000040000fa
:04011400480400009b
:020000040000fa
:040118004804000097
:020000040000fa
:04011c004804000093
:020000040000fa
:04012000480400008f
:020000040000fa
:04012400480400008b
:020000040000fa
:040128004804000087
:020000040000fa
:04012c004804000083
:020000040000fa
:04013000480400007f
:020000040000fa
:04013400480400007b
:020000040000fa
:040138004804000077
:020000040000fa
:04013c004804000073
:020000040000fa
:04014000480400006f
:020000040000fa
:04014400480400006b
:020000040000fa
:040148004804000067
:020000040000fa
:04014c004804000063
:020000040000fa
:04015000480400005f
:020000040000fa
:04015400480400005b
:020000040000fa
:040158004804000057
:020000040000fa
:04015c004804000053
:020000040000fa
:04016000480400004f
:020000040000fa
:04016400480400004b
:020000040000fa
:040168004804000047
:020000040000fa
:04016c004804000043
:020000040000fa
:04017000480400003f
:020000040000fa
:04017400480400003b
:020000040000fa
:040178004804000037
:020000040000fa
:04017c004804000033
:020000040000fa
:04018000480400002f
:020000040000fa
:04018400480400002b
:020000040000fa
:040188004804000027
:020000040000fa
:04018c004804000023
:020000040000fa
:04019000480400001f
:020000040000fa
:04019400480400001b
:020000040000fa
:040198004804000017
:020000040000fa
:04019c004804000013
:020000040000fa
:0401a000480400000f
:020000040000fa
:0401a400480400000b
:020000040000fa
:0401a8004804000007
:020000040000fa
:0401ac004804000003
:020000040000fa
:0401b00048040000ff
:020000040000fa
:0401b40048040000fb
:020000040000fa
:0401b80048040000f7
:020000040000fa
:0401bc0048040000f3
:020000040000fa
:0401c00048040000ef
:020000040000fa
:0401c40048040000eb
:020000040000fa
:0401c80048040000e7
:020000040000fa
:0401cc0048040000e3
:020000040000fa
:0401d00048040000df
:020000040000fa
:0401d40048040000db
:020000040000fa
:0401d80048040000d7
:020000040000fa
:0401dc0048040000d3
:020000040000fa
:0401e00048040000cf
:020000040000fa
:0401e40048040000cb
:020000040000fa
:0401e80048040000c7
:020000040000fa
:0401ec0048040000c3
:020000040000fa
:0401f00048040000bf
:020000040000fa
:0401f40048040000bb
:020000040000fa
:0401f80048040000b7
:020000040000fa
:0401fc0048040000b3
:020000040000fa
:0402000048040000ae
:020000040000fa
:0402040048040000aa
:020000040000fa
:0402080048040000a6
:020000040000fa
:04020c0048040000a2
:020000040000fa
:04021000480400009e
:020000040000fa
:04021400480400009a
:020000040000fa
:040218004804000096
:020000040000fa
:04021c004804000092
:020000040000fa
:04022000480400008e
:020000040000fa
:04022400480400008a
:020000040000fa
:040228004804000086
:020000040000fa
:04022c004804000082
:020000040000fa
:04023000480400007e
:020000040000fa
:04023400480400007a
:020000040000fa
:040238004804000076
:020000040000fa
:04023c004804000072
:020000040000fa
:04024000480400006e
:020000040000fa
:04024400480400006a
:020000040000fa
:040248004804000066
:020000040000fa
:04024c004804000062
:020000040000fa
:04025000480400005e
:020000040000fa
:04025400480400005a
:020000040000fa
:040258004804000056
:020000040000fa
:04025c004804000052
:020000040000fa
:04026000480400004e
:020000040000fa
:04026400480400004a
:020000040000fa
:10040000ef9a21000eff27000e0188000000000077
:10041000000020000000e000020032000001200087
:1004200020028800140007001b0107000000e00004
:1004300003003a00c0c12300010020000200370081
:100440000000200001002000810f70000100320038
:100450000f000700000020000000e0000200320052
:100460000000020000000000401f02000000000029
:100470000040da000000fe00200020000000e00044
:1004800002003200100020009001880000000600e9
:10049000a1028800800478000000eb001f003700f4
:1004a000e284440054a0b4009905ba00e2844400f8
:1004b00054a0b4009906ba00e284440054a0b400e9
:1004c0000006eb00476fde00fd07b200ae018800ba
:1004d000636ce10003003a000ad801000000eb0061
:1004e0000e003700606ce10008003a00004deb00a0
:1004f0000a05e800020039003420ec000af0a000f0
:100500008b05e900f9ff3e00040037006168e10057
:10051000010032000086eb000b00070019c7ba008b
:100520000e04e0001905ba0003003a000a00e000da
:10053000dbff3a0000000600fe07b200ae028800b2
:100540008a047800f5ff37000cd0a300e20f4d00bd
:100550001c003b0089027800354dba000a05e8000e
:10056000020039003420ec000af0a0008b05e900fd
:100570000f003200254dba000a05e80002003900dc
:100580003420ec000af0a0008b05e90008003200de
:100590000c00e0000600320015cdba000a05e800a4
:1005a000020039003420ec000af0a0008b05e900bd
:1005b0008984e80054a0b4000b00e000e2ff3a0098
:1005c000000006009902ba00055d78008b05e9007d
:1005d000f7ff3200c82ade00055d78008b05e900d0
:1005e000f3ff32000c00e000f1ff320019ddba0029
:1005f000eeff37003600f800809fbe00829fbe00ed
:10060000849fbe00869fbe000000fa000068a9001b
:100610003c190700761c07005e170700b01307009f
:10062000c40907002d0c0700e08180008000e8006d
:10063000e18188009101200001017800110009008a
:100640000200d8008000fd000000e00004003a0035
:10065000901107008c1807002a120700d00d070020
:10066000000000000080fa004f03be004f02be00f1
:100670004f01be004f00be003600f90000400600ea
:100680000000fa000108a900000000000080fa0044
:10069000004006003600f800809fbe00829fbe002a
:1006a000849fbe00869fbe000000fa000368a90078
:1006b000c2818000d3818000100020000100200052
:1006c0000200400083804800c0818800d1818800fa
:1006d000c0818000d1818000823e20000300200084
:1006e000c80007008001780001017800030078004d
:1006f00082007800e00f5000e08f58000b003a00b5
:10070000207080004a00de006140600061406800a7
:100710000080fb00610060004a00dd002170800065
:1007200001a0a1000100700020708800908180006d
:100730000000e00001003200900f07000000000000
:100740000080fa004f03be004f02be004f01be0002
:100750004f00be003600f90000400600801f780000
:100760000000fa0001a8a9000018800010cd880040
:100770001018800020cd88002018800030cd88001f
:100780003018800040cd88004018800050cd88008f
:1007900010c0b30061f0b700000000000080fa0054
:1007a0004f007800004006003600f800809fbe0031
:1007b000829fbe00849fbe00869fbe000000fa009c
:1007c0000188a900a182800090828000808f500063
:1007d00002003200a41b0700010037005670ef0032
:1007e000000000000080fa004f03be004f02be0070
:1007f0004f01be004f00be003600f9000040060069
:100800003600f800809fbe00829fbe00849fbe001d
:10081000869fbe000000fa000168a9001011800048
:100820004200de0061406000e14f500001003a00ec
:100830002242a900101180000000d1006140600038
:10084000e14f500005003a002222a90003003700c2
:100850003011800000407800df1c0700101180007c
:100860000040780061406000e14f5000f8ff320026
:10087000000000000080fa004f03be004f02be00df
:100880004f01be004f00be003600f90000400600d8
:100890000040da000000fe00000005001400200007
:1008a000b0033700f4ff2f00ae0337000001be0095
:1008b0003f0007000470a70003f0a1006509b10024
:1008c000160032000d0035006828e10006003500f2
:1008d000f0ff2f00f1ff27000300e00013003b00b2
:1008e0000100280000000500000040008180480051
:1008f0008502e900fcff3a0008003700f88f42004b
:1009000002003c008000eb00000005008100d100e7
:100910000080d3008502e800fcff3a000300e000fd
:1009200002003b0060001000e0801800000006009c
:100930000001be001e0007000470a70003f0a10024
:1009400003f8a30013003a006509b100100032005b
:10095000090035006928e100020035000100280087
:100960000000050000004000818048008502e90089
:10097000fcff3a0000000600f88f42000500350039
:100980008100d1000080d3008502e800fcff3a001e
:10099000000006008000eb00000005004f89de002b
:1009a000820178008a0337006011b800980337008d
:1009b000c70ade00f107b200f50fb20008003200ee
:1009c000e1cf4200020032000170a00024000500c7
:1009d000810f70000100320004080500440005008a
:1009e000810f700002003a00140005008502e90042
:1009f0000000400081c04800fcff3b000170a000e7
:100a000024000500df0307000400be00000006000c
:100a100007f82700078361000638e10004003a0068
:100a2000f7072000878361008703710001003a0007
:100a300003f0a200889fbe008a9fbe008c9fbe006c
:100a4000470ade000480a100c71ade000580a1006d
:100a5000070028000785600087856100f70f2000e8
:100a60000720e1009e0032000728e1009c003200d0
:100a7000010678000400e000b4003200f70720000f
:100a8000878060000170a0000500e000c000320017
:100a9000f7072000878161000370a000050652005f
:100aa0000f003a000b50e1000b0032000308e10098
:100ab00002003a000200e1007e0032000204500011
:100ac00083845800040031000001fd008101fd0015
:100ad0008402fd008a05fd006044b8002100370053
:100ae0000520e10005003d000001fd008101fd0041
:100af0008402fd008a05fd00050652007a60e100cf
:100b0000050035000170a1004722dd0084807000df
:100b10008a807000630037006044b800ef0266000e
:100b200007ff2f00070666000500e00006003400fe
:100b3000f08312008714dd000511de00071bdd00c5
:100b4000060171008519de007060e10005003500c6
:100b50000904780082047800030178008001eb002a
:100b6000700656000b50e10003003a0002004000fe
:100b7000838048000400370060041400e0841c00f7
:100b800002005800838058000188a300060032004c
:100b90008100d1000080d3008984d3000884d30071
:100ba0000402e800270037000178a30025003a007e
:100bb0000100e000030032008186cf006986560004
:100bc0000a0037008c0020000000e00004003a001a
:100bd00009007800880478000004eb0070025200dd
:100be0008086cf000d0646000c06e9007060e1002b
:100bf000060035008000780009007800880478003d
:100c00000004eb0070065600700252000c00e00079
:100c10000c0034008c08dd00f00316000703de0032
:100c2000868070000c00dd00074bde0006007000bf
:100c30008c4cdd000743de00868474000c44dd002c
:100c40000c0252006120e1002000350061016000cb
:100c50000700280087816400f7ff2700878364006e
:100c6000070374000300e0000600320082037300f3
:100c7000040032000000e800e08048000188a30082
:100c80000e003a00f70f20000720e1004a003d0067
:100c90000170a1004722dd00810072008a8070008f
:100ca0000000be004f06be004f05be004f04be0050
:100cb000000006006000b800faff37008100d10094
:100cc0000080d3000402e800eeff37000401780042
:100cd00089017400a10107008a807000f1ff3700cc
:100ce000f7010700070278000001fd008101fd0007
:100cf000f301070087027800850372000778a300dc
:100d0000040032000001fd008101fd000602070021
:100d1000e4ff3700850362000768a3000800320083
:100d20000b50e10003003200f0ff2f00f1ff27001d
:100d3000dcff37000001fd008101fd00d9ff370015
:100d40000468a300d7ff3200faff3700f8ff27003e
:100d5000888360000b003a000000e00009003a00c0
:100d60008303640082837300020032000200be002d
:100d7000ccff37000b50e100ceff3a000200be006e
:100d8000c8ff370014002000810064003eff3700d8
:100d9000f8ff27008883610004003a000200e000a9
:100da00002003a008c007800beff370015002000da
:100db0008301640039ff370001f82700000020009c
:100dc00081007500b7ff3700889fbe008a9fbe0074
:100dd0008c9fbe001b0020000202be00058668003a
:100de00006002800060666004709de00f20fb20082
:100df000820032000243e80080003200c729de0092
:100e0000f30fb2007d0032000343e8007b003200a4
:100e1000f107b2000170a000f507b2000570a00054
:100e2000c708dd004903de00868070004700dd0052
:100e3000c72add004923de00868272004722dd00da
:100e4000030551000403500085835800030031005e
:100e500000004000818048000a05e9008c1f7800ee
:100e60008a9fbe00040050008580580004024200a2
:100e700085824a0000004000818048000005eb00a8
:100e80000004be006033b8000406be000d48e10057
:100e900056003100110009004dccd8000c01b800fb
:100ea0000d02b8008481410060824a0082835300b1
:100eb00003045c0084845c0060055d000a00e000bf
:100ec00025003a00800578000d40e100490031001e
:100ed0008800780007007800110009004d88d800cc
:100ee0000c01b8000d02b8008481410060824a0004
:100ef0006003110083835b0004045c00e0845c00f9
:100f00000900e00021003a004f01be000300e000ac
:100f10002b003200e3016000070673008c81710032
:100f200001003200640070004200de004e5edd0011
:100f30000c007000c258de0001e0a0008301070031
:100f4000cf017800818071004f06be004f05be00c2
:100f50004f04be00000006008c8343000d044c00cb
:100f6000e0844c0060054d000000e9000a00e0004c
:100f7000d4ff32008c8343000d044c00e0844c000d
:100f800060054d000000e900ceff37000c03430070
:100f90008d834b0060044c00e0844c000000e900ad
:100fa0000900e000d8ff32000c0343008d834b00a2
:100fb00060044c00e0844c000000e900d2ff3700e0
:100fc0004200de004e5edd000c007000c258de0004
:100fd00001e0a000cf0178000300e000daff32005a
:100fe00060001000e0801800d7ff3700f0ff2f00ee
:100ff000aaff3700f0ff2f00b9ff37000404be003e
:101000002f010700870678000004fd008104fd0021
:101010002b010700078366000678a3000300320057
:101020000960a7000800be002c0037000d78a3005f
:10103000020032000800be00280037000778a30035
:1010400026003a0001f0a10009f0a1000668a30003
:1010500003003200f1ff2700f0ff2f00baff370036
:101060000d68a300030032000800be008c807000f1
:10107000b5ff37000768a30007003a000648a30041
:1010800003003200f1ff2700f0ff2f00aeff370012
:101090000d48a300030032006000b8008c8070008f
:1010a000a9ff37000748a3000400320001f8270019
:1010b000000020008c807000a3ff3700760107003d
:1010c0000004fd008104fd000205780072010700a4
:1010d0000802be008a01780059ff37000160a000b5
:1010e000120220001283880097ff37000100e00001
:1010f000120032000500e00010003200889fbe00a0
:101100008a9fbe008c9fbe000006eb0001f8a30082
:101110000300320060001000e08018000cf0a00016
:1011200005f8a3000300320060021200e0821a00fa
:101130000cf0a2008005eb0041ff37006000b80012
:10114000020005000383680007002800070363000e
:10115000470ade000480a100c71ade000580a10056
:10116000f70f20000720e100420032000728e100cd
:1011700040003200889fbe008a9fbe008c1f78000e
:10118000f107b200f307b2000400e000640032008f
:101190000170a0000500e000680032000370a000ac
:1011a00085054200eb07b1000204b8000302b80055
:1011b0008484440060854a00020ab80084844400a4
:1011c0000a854a00030ab8000405450004003300fc
:1011d0000804d0008984d2000a85d2008b05e9007a
:1011e0006158e1003d003500021020000901610056
:1011f0000308200089816100f707200087836400cd
:1012000008867300c84cde00c853dd008784740074
:101210004855de000300e00006003200820376003d
:10122000040032008904e80060054d000a88a3002c
:101230000c003a00f70f20000758e10044003d0081
:101240000a70a100c75ddd000a8575008a00730081
:10125000090078004f0678004f05be004f04be001d
:10126000000006000a05d1008984d3008b05e80040
:10127000f0ff3700881f7800060478009000070010
:10128000070278000001fd008101fd008c000700cd
:1012900087027800850372000778a30005003200fa
:1012a0000001fd008101fd009f0007004f04780050
:1012b00000000600850372000748a3000300320007
:1012c000f0ff2f00f1ff2700f8ff3700000020009b
:1012d00001f8270088807000f4ff3700880178004b
:1012e0004848dd00808171004848de00c850dd00bc
:1012f00001007000c850de00060478000b01780081
:101300001600070088807000d2ff37000500e0005b
:1013100005003200170020003a0007009dff37004b
:1013200081037000f9ff3a00860078004f067800cc
:101330004f05be004f04be0000000500830371008e
:10134000f9ff3200270020002e00070094ff37002d
:1013500001f8270086807000f4ff37000100e000ec
:1013600026003200610111007810e10023003c00ea
:101370006022b8007010e10004003500800278009f
:10138000010078008000eb00700151000200e000d5
:101390000900340070031100062add00822ade00f5
:1013a0008603dd00878272000200de00860bdd000e
:1013b000070070008208de0084817100f4ff2700be
:1013c000048262008481710004002800848262002b
:1013d0006102600005f0a6000000060004827100b2
:1013e000070032000000e800e0804800000006002e
:1013f0000002be006000b800efff37006000b800d8
:1014000000000600889fbe000004eb006138e10088
:1014100016003a000100e00008003a00c800de00b3
:101420004800dd00880020000100e00003003a00d1
:10143000c800de004800dd00680444008184cf005d
:10144000e9845400060034008908dd00f0831400ac
:101450008703de00878070000900dd000904440076
:10146000610214004f04be00000006000300e0000b
:1014700008003a00c811de004811dd008800200095
:101480000300e00003003a00c811de004811dd004f
:10149000680444008384cf00e984540006003400cb
:1014a0008919dd00f08314008713de008781710045
:1014b0000911dd0009044400e1021400e9ff3700ce
:1014c0002700200001f0a70017002000470bde00d6
:1014d000f60fb200040032000643e8000a003200b2
:1014e0004702b3000000060001037800f607b200cf
:1014f0000603700002003a000703b3000000060074
:101500008702b3000000060001037800f607b2006e
:1015100006037000020032000770a0000000060001
:101520000760a000000006000478a3000400320059
:101530000578a300030032000168a30001003a000f
:101540000200be000160a0000000060081017000e2
:10155000270032008002eb0001f8a30003003200f4
:1015600060001000e080180015002000f407200043
:101570000202420020003400f703200087036000cd
:10158000060420000003630002082000000161003f
:101590004700de00c909dd0000807100c708de00d9
:1015a0000600e000080032008703710006003200e8
:1015b0001000b0000180b0000188a30002003200da
:1015c000c108de000402e800f107b200f30f2000ba
:1015d0000320e10003003d004722dd00810072008e
:1015e0002900370001f827000000eb002600370033
:1015f0006000b80000000600680212007f20e100d1
:10160000020034006000b8001f0037006011b8000d
:101610007020e100040035008001780001007800ae
:101620008000eb00700252000400e000090034006a
:10163000f00312000719dd008419de000703dd0046
:10164000868171000400de00070bdd0006007000db
:101650008408de00f7ff270083836300870371009f
:101660000600280003036300070032000700e000c3
:1016700003003a0061016000028173000200320041
:101680001000b0000180b0000500a60000000600b8
:1016900001f0a000000006004f0ade004709de004e
:1016a000f107b200f20fb2000b003200f207b100f6
:1016b0000170a000c708dd00c901de008380700052
:1016c0004700dd000400a6000000060060001000d6
:1016d000e080180000000600810f700001003a0051
:1016e000000006008182cf000500e00010003e00ef
:1016f0008082cf00ee8242007028e10004003900b1
:1017000007003e00800078000000eb000e0037006c
:10171000708312008600de000500dd000a0037003d
:10172000708352008600dd000000eb0006003700e9
:10173000e28252008508dd00708312000603de009d
:10174000868070000500dd007507b0000501ea0025
:101750000400a6000000060060001000e0801800f1
:1017600000000600889fbe008a9fbe00841f78008c
:101770007c0007004f00780011003300f0ff2f00bd
:10178000838f6c0006003b00040565000a00a7007b
:101790000800370009f0a6001000200008003700fc
:1017a000820f5400838f5c0003003900100020007a
:1017b00001003e000000200009f0a7000000ea0040
:1017c0004f05be004f04be000000e0000000060010
:1017d000881f7800030478000300e00007003d0044
:1017e00060001000e080180060011900e08119001d
:1017f00002003b0001f02d00030037000400070049
:1018000008f0a70001f0a0004f04780000000600d7
:10181000889fbe008a9fbe00008270000402710093
:1018200004827100260032000004be000200be00e7
:101830006011b8006b092000950220000182cf00e2
:101840000a0039000541b1000082cf0007003900cd
:101850000541b1000982cf00040039000541b10003
:101860000882cf00010039000541b1000542520055
:10187000120032000a003b008281710061016400a5
:101880008100d1000080d3008984d3000884d30074
:101890008b05e8000442e800f7ff3a000700370034
:1018a0000804440089844c000000480081804800fe
:1018b0008b05e9000442e900f9ff3a000300070044
:1018c0004f05be004f04be0000000600810020004e
:1018d000618055000b003d000b00200061fe2f00d1
:1018e0000100e1001d00340082817100610164008b
:1018f0008904d1000884d3000000e800faff3a0010
:1019000071002000610064000300700002006000ac
:101910000900320061044400e0844c000988a500fd
:10192000050032008b05e8006808e10002003a007b
:101930008904d1000884d300f20f20000258e1008e
:1019400005003d00c75ddd00f907b2008980750024
:1019500008007800000006000bf827008b007800d4
:10196000000005000004be0011fc07000003be00db
:101970000405be000200be000dfc0700844f750088
:10198000000006006022b800060220000000d0001f
:101990008180d2000482d2008582d2000000a000a3
:1019a0000202520083825a00030031000202420008
:1019b00083824a000000a1000603e900f3ff3a0019
:1019c000000006000400fa00889fbe008a9fbe0047
:1019d0008c9fbe000205be000bf0a1000800200095
:1019e00009f82700880f5500898f5d0005003e002b
:1019f0000003be0007f0a100880f5300898f5b0031
:101a0000060036000bfc07004f06be004f05be0067
:101a10004f04be000080fa0000000600080020000d
:101a200009f82300880f5100898f590002003a00fd
:101a300097000700f4ff37004e1cde00090020006d
:101a400088bf9f0099bf9f000fbe97006204660089
:101a50008004eb004f0ade0005002000040474003f
:101a600085847400e00f5300e08f5b0009003a00aa
:101a7000e20f5400e08f5c007f003200e20f540060
:101a8000e08f5c00e0ff3900e30f5400e08f5c0062
:101a90005f003200e00f5500e08f5d0008003a0063
:101aa000610064008000eb00e00f5000e08f580000
:101ab00074003200b0fd200091fc2b00d2ff3700f3
:101ac0000400200005f82700840f5500858f5d0075
:101ad0000f003a008a0f53008b8f5b0040003a00e2
:101ae000e10f5400e08f5c0058003200e00f54001a
:101af000e08f5c0058003200e20f5400e08f5c0081
:101b00002b003200e30f5400e08f5c003100320004
:101b10000c0020000dd020000a0246008b824e00ef
:101b2000840f5300858f5b00ddff3e000400200022
:101b300005f82700840f5300858f5b00d8ff320023
:101b4000620264008002eb00e00f5200e08f5a0056
:101b5000050032000606460087864e008c0f5500b1
:101b60008d8f5d002d003e0097fc0700810107006e
:101b700047000700e10f5400e08f5c0029003200ad
:101b8000e00f5400e08f5c009fff3200e20f540032
:101b9000e08f5c0025003200e2d22b00b33b230033
:101ba000a4fb0700b2fd20009304240025003700a9
:101bb0000200200003042400b0fd20009104240052
:101bc00060fd07000200200003e823005dfd070020
:101bd0008dff37000200200003042c00f6ff3700c1
:101be000e10f5400e08f5c001e003200e00f540053
:101bf000e08f5c001e003200e20f5400e08f5c00ba
:101c00001d003200e30f5400e08f5c00c0ff3a007b
:101c1000b0fd200091042c007bff37006000b8006d
:101c2000d4ff370001f0a20077ff3700e2d22b008b
:101c3000b33b23007ffb07000001be00b0fd200086
:101c40009104240072fb07006fff3700b0fd2000f5
:101c500091f42b006cff3700b0fd200091f42300bd
:101c600069ff3700000020000100280066ff3700f0
:101c70006000b80064ff3700b0fd2000910424002c
:101c800061ff3700b0fd200091fc23005eff3700ac
:101c9000ea874700889fbe008a9fbe008c9fbe00d7
:101ca0008e1f78000002be004f0dde000b002000ea
:101cb000000478008504780009f0a100f0ff2f00ef
:101cc000f1c72400800f5400818f5c0010003600a3
:101cd0000000200001f82700800f5400818f5c0075
:101ce00025003e000200200003382000a0fd200057
:101cf00091fc23004ffb07000002be00e00f5500df
:101d0000e08f5d001c00320005f0a2001a003700d1
:101d1000f0ff2f00f1ed2300800f5400818f5c0055
:101d20001c003e000087eb00f0ff2f00f19723001e
:101d3000800f5400818f5c0033003e006000b800cb
:101d400003f8270085806100e00f5000e08f580005
:101d500009003a000401be000400be00f4b79f0071
:101d600085bf9f00f7fc0700d0b79f00e1b79f0039
:101d70007fb297008fba97000400be004f0778002b
:101d80004f06be004f05be004f04be00af00b100bd
:101d9000000006000400be00f60007000006be00ba
:101da000f0ff2f0071f92300800f5400818f5c0039
:101db00055003e00f0ff2f00f1f22300800f540089
:101dc000818f5c0041003e000c01be000c00be0093
:101dd00018fb07000200200003f823000cfb07009b
:101de0000004be0002002000030024000c00be001e
:101df00010fb07000001be000800be00f2fb070058
:101e00000002be000007eb000401be000400be009b
:101e1000f4b79f0085bf9f00cafc07000006be0004
:101e20000001be00c7fc07000004be0052c22a0029
:101e3000c3d72300c3fc0700d2502f0013e12300b7
:101e4000fcfa07000801be00befc070092aa2a00a7
:101e5000a3ea2300f7fa07000c01be00b9fc070053
:101e60000006be0072242100a3dd2b000800be0086
:101e7000b4fc070082a92c00c3e42300e4fa0700a5
:101e80000801be00affc07000001be000c00be0050
:101e9000e8fa07007fb297008fba97000401be00ee
:101ea000a8fc07000003be000e00e0007fb2970010
:101eb0008fba970032003d000001be000400be0052
:101ec000d3fa07000002be00abff3700020020007b
:101ed00003f823000c00be00cdfa07000004be008a
:101ee0000200200003f823000c00be00d1fa070016
:101ef0000001be000800be00b3fb07000002be00e8
:101f00001e002000c0ff3700f0ff2f00b1012400a9
:101f1000800f5400818f5c0012003e000200200000
:101f200003fc23000c00be00b9fa07000004be0049
:101f30000200200003fc23000c00be0081fc07000f
:101f40000200200003f82300bafa07000001be00d7
:101f50000800be009cfb07000002be002e0020000f
:101f6000a9ff37000c01be000000200001f82b0083
:101f700095fb07000002be003e002000a2ff3700d4
:101f80004277dd00889821000e04440080972100ec
:101f90000e0740001e0178009e0190000600be0062
:101fa000f4b79f0085bf9f0099fa07007fb29700a2
:101fb0008fba97000401be0095fa07000001be0029
:101fc000180078009800900091fa07004aff370047
:101fd0000400fa000001be0003f0a100a4fd2000ef
:101fe00095f42300840f5100858f59000e003e00a8
:101ff000f4ff2f00f5972300840f5100858f5900bf
:102000003a003e000200200003b8270089fa0700ca
:10201000e0bf9f00f1bf9f000000200001f82300f7
:102020000080fa00000006004f0ade0005002000d4
:10203000163d2500b7072400860f5100878f5900f1
:102040001b003e0036be2c0067012400860f5100a5
:10205000878f59000a003600b2fd20009304240047
:102060000400e0000400320072fa0700ef010700ec
:1020700001f0a200eaff370065fa0700fbff370016
:102080000400e00005003200b2fd200093fc2300b4
:1020900068fa070070020700e1ff37000001be0088
:1020a000b0fd200091fc230059fa0700f9ff37002a
:1020b000561d2300270e2400860f5100878f5900dc
:1020c00014003e00f6dd2e00f70a2400860f5100b2
:1020d000878f590009003600b2fd2000930c2400c0
:1020e0000400e0000300320052fa0700cf010700ad
:1020f000cbff370046fa0700fcff37000400e00082
:102100000100320001f0a20042be2c00630924004d
:10211000e5ff3700f4ff2f00f5f72700840f51008b
:10212000858f5900040036000001be000200be0089
:1021300037fa0700baff3700c2ff2f000f01410036
:10214000ee010700630160006fb89700ffb89700c9
:10215000e10f510005003200e20f5100c3ff3200d1
:102160000200e000cbff3a00e0ff370001f0a200e0
:10217000c8ff37000101780002f0a100820078005a
:10218000000006000400fa00889fbe008a9fbe007f
:102190000203410083834900e00f5300e08f5b009e
:1021a0000f0032000202be0005f0a100080020006e
:1021b00009f82700880f5200898f5a0008003e0056
:1021c000a0bf9f00b1bf9f00470dde000b002000a5
:1021d000f40f20000a056200840f550007003a0042
:1021e000d8fb07000001be00f7fa07004f05be004c
:1021f0004f04be000080fa0000000600000240000c
:1022000081824800840f5300858f5b0006003900ef
:10221000840f5300858f5b00f4ff3a006011b80013
:10222000c8fb0700f1ff37000a00e0004c003a004d
:102230002fbb9700bfbb9700493add00c732de00d5
:10224000850272004932dd00e00f5200e08f5a0033
:102250003f003d00610215002fbb9700bfbb9700f8
:10226000040478000804e900030033000603430077
:1022700087834b00fbff37000602be00471bde00d2
:10228000070020000683fb000600e0003d003a0046
:10229000491cdd00c714de00890474004914dd0008
:1022a000e00f5400e08f5c0032003d00e1031300ba
:1022b0000204be008703e900030033000804440061
:1022c00089844c00fbff37000801520089815a00c5
:1022d000860f55002f003c00e00f5100e08f5900a1
:1022e00004003500e00f5100e08f5900cbff3200b1
:1022f0000202be004728de0001002000e00f50006f
:10230000e08f58002e0032000a00e0003000340058
:102310000000200001f82f000402400085824800e0
:102320006150b900c700dd0000002000040070000b
:10233000858070006022b80002002800bfb99700b5
:10234000830261000000720081807200a7ff3700e5
:102350000a05e9000402420085824a00baff3700fc
:102360002fba9700bfba9700f507b2000570a0001a
:10237000c2ff37000603e9000804440089844c00ca
:10238000c7ff37000204be00f907b2000970a000c1
:10239000cdff3700e00f5100e08f590004003500f9
:1023a000e00f5100e08f59009cff32000202be0096
:1023b0000402420085824a000a05e900c2ff370094
:1023c0000402420085824a000a05e900c9ff37007d
:1023d000610515000400be000a05e9000300330092
:1023e0008100d1000080d300fbff3700d1ff370010
:1023f0000400fa00889fbe000004be008900780037
:1024000001f0a100a4fd200095f42300840f5000ea
:10241000858f58001e003e00f4ff2f00f597230023
:10242000840f5000858f580016003e006000b800f1
:1024300003f8270089806100e00f5000e08f58000a
:102440000b003a0002002000033820000800be0004
:102450003cfb07000001be00c2bf9f00d3bf9f002e
:102460000800be004f04be000080fa000000060015
:102470000200200003b827000800be006df9070025
:10248000f4ff37000800be00730107001800370092
:102490004f49de0003002000143d2500b50724004d
:1024a000840f5000858f58001d003e0034be2c0064
:1024b00065012400840f5000858f58000e003e00f7
:1024c0000800be000200e000b2fd200093fc2300e3
:1024d0000500320057f90700d40007000004be00d1
:1024e00009f0a200deff370049f90700cf0007001e
:1024f0000004be00daff37000800be000200e00062
:10250000b2fd2000930424000300320049f90700c3
:1025100001f0a200dcff37003df90700fcff3700a7
:10252000541d2300250e2400840f5000858f580071
:1025300017003e00f4dd2e00f50a2400840f500041
:10254000858f580009003e000800be000200e00030
:1025500042be2c00630924000200320035f9070056
:10256000e2ff37002af90700dbff37000800be0052
:102570000200e000b2fd2000930c240002003200b3
:102580002cf90700c0ff370021f90700beff370014
:10259000f2ff2f00f3f72700820f5000838f5800bf
:1025a000050036000801be000800be0018f907004b
:1025b0000004be00aaff370082ff2f000f01410078
:1025c0000800be00cd000700630160004fb897000f
:1025d000dfb89700e10f5100c4ff3200e20f510055
:1025e000cbff32000200e000bbff3a00a6ff37003d
:1025f000889fbe008a9fbe008c1f78000004be002a
:102600000003be006055b80004f827008905620089
:102610000400200005f82700840f5500858f5d0019
:102620000b003a000001be00c6fa07000001be0020
:102630000800be00fff807000004be000800be004e
:102640004f0678004f05be004f04be000000060094
:10265000e00f5000e08f580010003c000002be0068
:1026600005f0a100e00f5200e08f5a00f3ff3200a6
:10267000e00f5000e08f580008003d0010022000dd
:1026800060cd88000801be000800be00e0f8070029
:102690000001be00ccf90700e7ff370047bdde00b0
:1026a000cfbdde00e00f5500e08f5d000c003a006a
:1026b0000603430087834b0061004500e0804d0026
:1026c0000001eb00870178000308b200e00f510021
:1026d000e08f59004d00320060051500e0851d00b7
:1026e000fa07b1000b80b1000600be00f107b2008e
:1026f0000170a000610165008001eb00e00f510056
:10270000e08f590002003200000040008180480044
:102710008b85d1000a85d3000000400081804800ed
:102720009c01200002002000031020006044b8003b
:102730006033b8000602410087824900800f5200d2
:10274000818f5a0006003c00040341008583490044
:102750000400500085805800080441008984490025
:1027600000004000818048008301d1000281d30035
:102770000c06e9000c00e000eeff3a00e00f50000c
:10278000e08f5800160032000226240023da2000d1
:102790000000200001f823009df80700020020003f
:1027a00003f823003ff807000000e0000c003500ac
:1027b0000226240023da20000000200001f8230074
:1027c0009cf807000200200003f8230035f80700fa
:1027d0000000e0000f00340062044400e0844c007c
:1027e0008984d1000884d3000000200001f0230078
:1027f0000800400089804800c755dd000a0020001d
:102800000a0440008b8448008cff37000005be009e
:10281000a7ff370061004400e0804c00000478000e
:102820000800a10081047800edff37000400fa00e1
:10283000889fbe008a9fbe008c9fbe000001be0024
:1028400040fa07000004be000001be003dfa070088
:102850000005be000200200003f02b000800be00af
:1028600038fa07000200200003f8230071f807007f
:102870000006be00f2a92a00a3d223000a00be006f
:1028800030fa07000001be000c00be0069f8070026
:102890000002be0072a12900c37c23000800be0014
:1028a00084bf9f0095bf9f0026fa0700f2432000d7
:1028b00063ab230056f807000006be000a01be0005
:1028c0000800be001ffa07000001be000c00be0099
:1028d0001cfa07000001be000fba97009fba9700cc
:1028e0000400be0053f807004f06be004f05be00af
:1028f0004f04be000080fa00000006000400fa0049
:10290000889fbe008a9fbe008c9fbe000006780094
:10291000810478008206780001f0a100a2fd200069
:1029200093dc2400820f5000838f580023003e0068
:1029300032982f0023f223008900780001fa070063
:102940000200200003b424003af80700020020002f
:1029500003b424002ef807000005be00d3f70700db
:1029600000047800a2fd200093fc23000a00be00b2
:10297000f4f907000001be000c007800890078001f
:1029800023f807000002be00325a280083282300e3
:102990000a00be0084bf9f0095bf9f00e9f90700b1
:1029a0000001be000fba97009fba97000400be0056
:1029b00017f80700808ebe000b003700f2ff2f00d3
:1029c000f3f72700820f5000838f58000c00360069
:1029d0000001780089017800890078000cf8070070
:1029e000808ebe000004eb00080078004f06be0099
:1029f0004f05be004f04be000080fa000000060034
:102a0000890078004c0007000005be0032982f00b6
:102a100023f22300cbf907000200200003f023007b
:102a200004f80700550007000004780068fb070061
:102a300032982f0023f22300e3f807000001be00c4
:102a40000a00be00f2f707006000b800a006980078
:102a5000b1069800d7ff37000400fa00889fbe0037
:102a60008a9fbe008c9fbe000006be000001be0013
:102a7000b4f907000004be000001be000c00be0057
:102a8000b0f907000005be000801be000800be0046
:102a9000acf907000a01be00aaf907000002be0057
:102aa000c2c32600636323000800be0084bf9f00ea
:102ab00095bf9f00a3f90700f27c20000395230037
:102ac000d3f707000001be000fba97009fba970026
:102ad0000400be009bf907000002be0042882800e7
:102ae00083c023000800be0084bf9f0095bf9f00e5
:102af00094f90700b2aa2a00a3e22300c4f7070052
:102b00000a01be008ff907000c01be00c9f70700db
:102b10000001be000fba97009fba97000400be00e4
:102b2000c4f707004f06be004f05be004f04be00ad
:102b30000080fa00000006000400fa006011b800ee
:102b4000e2bf9f00f3bf9f006fbb9700ffbb9700e2
:102b50000002be00f0ff2f00f1ff2f00f2ff2f0058
:102b6000f3ff270000006200818062000201630021
:102b7000838163000080fa00000006000003be00ad
:102b80008bf707006011b8000470a70007f0a100e0
:102b90006509b1001b0032001200350086022000da
:102ba0000628e10008003500f3ff2700f2ff2f00a0
:102bb0006110b9000700e00018003b000300280086
:102bc0006000b8000200050000004000818048005d
:102bd00002014900838149008502e900faff3a00b9
:102be00008003700f88f420002003c008000eb0034
:102bf000000005008100d1000080d3008502e800bc
:102c0000fcff3a000700e00004003b0060001000f9
:102c1000e080180060011900e08119000000060042
:020000040000fa
:102c20000e00fa00000f78001207980023079800a2
:102c300034079800450798005607980067079800e2
:102c40001e0078001e019000ae0190000288be00b8
:102c50001e0078003e019000ce01900022009800f6
:102c6000330098001e0078005e019000ee01900095
:102c700042009800530098001e0078003eb997006b
:102c8000ceb9970062009800730098001e0078008b
:102c90005eb19700eeb19700621098007310980033
:102ca0001e0078001eb19700aeb197000218980080
:102cb000131898001e0078003eb19700ceb197001f
:102cc00022209800332098001e0078001eb997003b
:102cd000aeb9970002109800131098001e007800fb
:102ce0007eb197008eb9970022109800331098009b
:102cf0001eb99700aeb997007eb097008eb89700c6
:102d000030fb07000001be001e007800020898009a
:102d1000130898001e0078005eb19700eeb197008e
:102d20006210980073109800000000000080fa0004
:102d3000000006000000fa00889fbe008a9fbe00c7
:102d400090c98000a1c9800014c9800025c98000f5
:102d50000001be000400be009a1007000002be0081
:102d600010c9800021c980000001be000400be001f
:102d700027f7070080017800010178000300780040
:102d8000820078000000be00b0c98800c1c9880078
:102d900034c9800045c9800030c9800041c9800025
:102da0000001be000400be00e6f807000001780044
:102db00001007800820478000004780050c9800087
:102dc00061c980000001be001af707000001780009
:102dd000010078008201780000017800030078008b
:102de000820078000001be000900780088007800a9
:102df0000000be00f4f707008001780001017800b0
:102e000003007800820078000000be00d0c988006e
:102e1000e1c9880030c9800041c98000020020005b
:102e2000a3372400e8f7070080017800010178004b
:102e300003007800820078000000be00f0c988001e
:102e400001ca880030c9800041c980006011b80003
:102e500092f607000000e00005003d00d0c98000a8
:102e6000e1c9800001f0a200d0c98800e1c9880052
:102e7000d0c98000e1c980006011b80089f6070060
:102e80000000e00006003500b0c98000c1c9800024
:102e90006011b80083f607000000e0000c003d0060
:102ea000d0c98000e1c980006011b8007bf607003e
:102eb0000000e00074003c00b0c98000c1c980007f
:102ec0006011b80075f607000000e0006e003c00dd
:102ed000b0c98000c1c98000e51007000004be0031
:102ee000d0c98000e1c98000e11007000001be00e8
:102ef0000800be006bf607000000e000620035002d
:102f000050c9800061c98000f226210033b8230037
:102f10008cf8070000017800010078008202780038
:102f20000002780030c9800041c980000001be0065
:102f300005007800840078000000be00bdf60700a0
:102f40008001780001017800030078008200780099
:102f50000000be0030c9880041c98800b0c98000a7
:102f6000c1c980006011b8004ef607000000e00003
:102f70001e00340078c9800089c980003ac98000e9
:102f80004bc9800050c9800061c980000200200048
:102f9000a33724008cf707000001780001007800b7
:102fa0008201780000017800030078008200780038
:102fb0000001be000a00be009ef607000001780076
:102fc0000100780082027800000278000801be004b
:102fd00005007800840078000000be00d0100700d3
:102fe00030c9880041c988007a003700b0c9800024
:102ff000c1c980006011b80028f607000000e00099
:10300000010035007300370070c9800081c980005d
:103010000004be0009f0a2003ac980004bc980003c
:1030200050c9800061c9800002002000a33724003d
:1030300065f7070000017800010078008201780040
:103040000001780003007800820078000001be00d3
:103050000a00be006ef6070000017800010078004b
:1030600082027800000278000801be0005007800a6
:10307000840078000000be00a910070030c9880055
:1030800041c988005300370030c9800041c9800021
:103090006011b80003f607000000e0001c003400d7
:1030a00038c9800049c9800050c9800061c98000ca
:1030b000f226210033b8230022f80700000178002f
:1030c0000100780082017800000178000300780098
:1030d000820078000001be000800be004cf6070028
:1030e0000001780001007800820278000002780078
:1030f0006011b80005007800840078000000be0070
:103100008710070030c9880041c9880021003700b6
:1031100030c9800041c980006011b800dff50700a8
:103120000000e0001b003d0038c9800049c9800054
:1031300050c9800061c98000f226210033b8230005
:1031400000f8070000017800010078008201780093
:103150000001780003007800820078000001be00c2
:103160000800be0033f60700000178000100780077
:1031700082027800000278006011b8000500780033
:10318000840078000000be004e10070030c988009f
:1031900041c98800b0c98000c1c98000341007004f
:1031a0000004be00f0c9800001ca80003010070092
:1031b0000001be000800be00b8f507000000e000f6
:1031c00004003d00b0c98000c1c98000f0c988007a
:1031d00001ca8800f4c9800005ca800010c98000b7
:1031e00021c980000001be000400be0011f60700e6
:1031f00080017800010178000300780082007800e7
:103200000000be0010c9880021c9880030c98000b4
:1032100041c980006011b800a0f507000000e0007f
:10322000010032000d003700b0c98000c1c9800024
:103230000f100700a2702d0033c2230097f507007e
:103240000000e000010035000400370090c9800054
:10325000a1c9800010c9880021c9880000000000b1
:103260004f05be004f04be000080fa0000000600bb
:103270003400fa00889fbe008a9fbe002017980085
:103280003117980042179800531798006417980058
:1032900075179800061f9800171f98006e11900070
:1032a000fe1190002e109000be109000d8f507007f
:1032b00020079800310798000e1990009e19900081
:1032c0004e109000de109000d1f5070040079800e6
:1032d000510798006011b8002e009000be009000c9
:1032e0006ef507000000e00038003a006011b800f9
:1032f0004e009000de00900068f507000000e0003e
:1033000032003a002e119000be1190006e10900015
:10331000fe109000bef50700600798007107980046
:103320004e119000de1190000e1890009e18900033
:10333000b7f50700000f9800110f98006e0190007c
:10334000fe0190006e009000fe0090007df70700e7
:103350000001780001007800820478000004780001
:103360000e0990009e0990000e0890009e089000a3
:1033700074f70700000178000100780082017800ee
:103380000001780003007800820078000001be0090
:1033900009007800880078000000be00a5f507004d
:1033a00000017800010078008201780000017800b7
:1033b00003007800820078000000be008cfc07004b
:1033c0000001780001007800bb0037002e1190004a
:1033d000be1190006e109000fe1090008cf507005a
:1033e0000001780001007800820278000002780075
:1033f0002e019000be019000050078008400780046
:103400000000be004ff707000001780001007800bf
:1034100082047800000478004e119000de119000c4
:103420000e1890009e18900079f5070000017800b2
:103430000100780082027800000278004e019000be
:10344000de01900005007800840078000000be00d6
:103450003cf7070000017800010078008201780045
:103460000001780003007800820078000001be00af
:1034700009007800880078000000be006df50700a4
:1034800000017800010078008204780000047800d0
:103490002e019000be0190002e009000be00900012
:1034a00028f7070000017800010078008205780005
:1034b000000578004e019000de0190004e00900063
:1034c000de0090001ff7070000017800010078007f
:1034d0008201780000017800030078008200780003
:1034e0000001be000b0078008a0078000000be00da
:1034f00050f5070000017800010078008201780093
:103500000001780003007800820078000001be000e
:1035100009007800880078000000be002af6070045
:10352000008fbe006011b8001e0078009e00900061
:10353000daf407000000e00002003d006000b8007f
:10354000008fbe000200200003f823001e00780058
:103550009e009000d3f407000000e0000300340058
:103560000000200001f82300008fbe002e01900013
:10357000be0190001e0078009e009000f1f607004a
:1035800000017800010078008201780000017800d5
:1035900003007800820078000001be002e10900029
:1035a000be10900023f50700200f9800310f9800ff
:1035b0004e019000de0190001e0078009e009000f9
:1035c000e0f6070000017800010078008201780031
:1035d0000001780003007800820078000001be003e
:1035e0004e109000de10900012f50700400f98007a
:1035f000510f98002e099000be0990006e109000a7
:10360000fe10900002f50700600f9800710f9800ff
:103610004e099000de0990000e1890009e18900050
:10362000fbf4070000179800111798006e0990002e
:10363000fe0990006e089000fe089000c1f6070099
:10364000000178000100780082047800000478000e
:103650000e1190009e1190000e1090009e10900090
:10366000b8f60700000178000100780082017800b8
:103670000001780003007800820078000001be009d
:1036800009007800880078000000be00e9f4070017
:1036900000017800010078008201780000017800c4
:1036a00003007800820078000000be00d0fb070015
:1036b00000017800010078008201780000017800a4
:1036c00003007800820078000000be004f05be00b5
:1036d0004f04be000080fa00000006000800fa0057
:1036e000889fbe008a9fbe0074cb800085cb80007f
:1036f00052cb800063cb800030ca800041ca80007a
:1037000018ca800029ca80000403be000202be005d
:103710000001be000800be00d5fe070050ca8800a8
:1037200061ca880014ca800025ca800050cb80007e
:1037300061cb80000001be000400be00b4f40700ad
:10374000000178000100780082047800000478000d
:1037500034ca800045ca800070cb800081cb8000d5
:103760000001be000400be00a9f4070000017800bb
:1037700001007800820278000002780009007800d9
:10378000880078000001be00050078008400780001
:103790000000be008bf80700008fbe0010c980003b
:1037a00021c980001e0178009e019000050e0700cf
:1037b0000002be0010c9800021c980000001be00c7
:1037c0000400be0092f4070020079800310798001b
:1037d0002e009000be009000a50e0700b2fd200054
:1037e00093fc23002ff407000000e00005003400e4
:1037f00050ca800061ca800001f0a20050ca88004f
:1038000061ca88002e009000be009000980e07004c
:103810000004be000000200001f82300160f07007e
:103820000001be000800be001cf407000000e0001c
:103830000d0035002e009000be0090008c0e070099
:103840000004be0000002000313324000a0f0700ee
:103850000001be000800be0012f407000000e000f6
:1038600001003c004901370074ca800085ca80000d
:1038700070ca800081ca80000001be000400be0042
:1038800030f607000001780001007800820478001b
:103890000004780090ca8000a1ca80000001be0028
:1038a00064f40700000178000100780082017800cc
:1038b0000001780003007800820078000001be005b
:1038c00009007800880078000000be003ef507007f
:1038d0008001780001017800030078008200780000
:1038e0000000be0090cb8800a1cb880070ca800089
:1038f00081ca800002002000a337240032f50700af
:1039000080017800010178000300780082007800cf
:103910000000be00b0ca8800c1ca880070ca80001a
:1039200081ca80006011b800dcf307000000e000ed
:1039300005003d00d0ca8000e1ca800001f0a2006d
:10394000d0ca8800e1ca8800d0ca8000e1ca8000dd
:103950006011b800d3f307000000e0000600350056
:1039600050ca800061ca80006011b800cdf3070022
:103970000000e0000c003d00d0ca8000e1ca8000d9
:103980006011b800c5f307000000e00074003c00bf
:1039900050ca800061ca80006011b800bff3070000
:1039a0000000e0006e003c0050ca800061ca800048
:1039b0002f0e07000004be00d0ca8000e1ca8000bc
:1039c0002b0e07000001be000800be00b5f3070083
:1039d0000000e0006200350090ca8000a1ca8000ab
:1039e000f226210033b82300d6f507000001780045
:1039f00001007800820278000002780070ca80001e
:103a000081ca80000001be000500780084007800b3
:103a10000000be0007f40700800178000101780073
:103a200003007800820078000000be0070ca8800a1
:103a300081ca880050ca800061ca80006011b80045
:103a400098f307000000e0001e00340038cb80002f
:103a500049cb80007aca80008bca800090ca80005f
:103a6000a1ca800002002000a3372400d6f407007a
:103a700000017800010078008201780000017800e0
:103a800003007800820078000001be000a00be003a
:103a9000e8f3070000017800010078008202780056
:103aa000000278000801be0005007800840078005c
:103ab0000000be001a0e070070ca880081ca880084
:103ac0006a00370050ca800061ca80006011b800e7
:103ad00072f307000000e0000100350063003700ca
:103ae00030cb800041cb80000004be0009f0a20072
:103af0007aca80008bca800090ca8000a1ca800068
:103b000002002000a3372400aff407000001780072
:103b1000010078008201780000017800030078003d
:103b2000820078000001be000a00be00b8f3070062
:103b3000000178000100780082027800000278001d
:103b40000801be0005007800840078000000be0077
:103b5000f30d070070ca880081ca8800430037004f
:103b600070ca800081ca80006011b8004df3070060
:103b70000000e0001c00340078ca800089ca800080
:103b800090ca8000a1ca8000f226210033b8230029
:103b90006cf50700000178000100780082017800d0
:103ba0000001780003007800820078000001be0068
:103bb0000800be0096f307000001780001007800bd
:103bc00082027800000278006011b80005007800d9
:103bd000840078000000be00d10d070070ca880084
:103be00081ca88002100370070ca800081ca800025
:103bf0006011b80029f307000000e0001b003d0041
:103c000078ca800089ca800090ca8000a1ca80005a
:103c1000f226210033b823004af50700000178009e
:103c2000010078008201780000017800030078002c
:103c3000820078000001be000800be007df307008e
:103c4000000178000100780082027800000278000c
:103c50006011b80005007800840078000000be0004
:103c6000980d070070ca880081ca8800b8ca800011
:103c7000c9ca800010c9800021c98000d4f807009b
:103c80000001be000800be002ef50700000178000c
:103c900001007800820278000002780050cb80009a
:103ca00061cb80000001be00050078008400780030
:103cb0000000be005ff3070080017800010178007a
:103cc00003007800820078000000be0050cb88001e
:103cd00061cb8800b8ca8000c9ca800010c98000c2
:103ce00021c98000c2f907000001be000800be0023
:103cf00014f50700000178000100780082027800c6
:103d00000002780070cb800081cb80000001be00f3
:103d100005007800840078000000be0045f307002d
:103d200080017800010178000300780082007800ab
:103d30000000be0070cb880081cb880070ca800074
:103d400081ca80006011b800d4f207000000e000d2
:103d5000010032000d00370050ca800061ca8000a7
:103d6000430d0700a2702d0033c22300cbf20700e1
:103d70000000e0000100350004003700f0ca8000b8
:103d800001cb800010cb880021cb88000000000010
:103d90004f05be004f04be000080fa000000060080
:103da0002000fa0030c9800041c980000001be0037
:103db0008000eb000e007800d50c070070c9800071
:103dc00081c980000001be00410020000e00780083
:103dd000cf0c070050c9800061c980000001be00ff
:103de000810020000e007800c90c070010c9800077
:103df00021c980000001be00c10020000e00780033
:103e0000c30c070090c98000a1c980000001be005a
:103e1000010120000e007800bd0c070050cb80008f
:103e200061cb80000001be00410120000e0078003f
:103e3000b70c070070cb800081cb80000001be0072
:103e4000810120000e007800b10c070050ca8000ec
:103e500061ca80000001be00c10120000e00780090
:103e6000ab0c07000e0178000102200000072000c3
:103e700006060700000000000080fa0000000600af
:103e80000a00fa00ba0e0700060f0700ab0a070087
:103e90001a0e070093070700530807006c08070075
:103ea0008f0f07002b09070032090700e48080000c
:103eb000f5808000c2808000d38080000000200058
:103ec000010a2400809fbe0000002000010a240097
:103ed000809fbe0000002000010a2400809fbe00d9
:103ee0006033b800208f2100de030700ec87570005
:103ef0002481800035818000028180001381800050
:103f000000002000010a2400809fbe000000200065
:103f1000010a2400809fbe0000002000010a240046
:103f2000809fbe006033b800208c2100cd030700c5
:103f3000ec8757006000b800f0c5880001c6880013
:103f40006000b80050cb880061cb88006000b800ea
:103f500070cb880081cb88006000b800809fbe00d5
:103f60006000b800809fbe006000b800809fbe0067
:103f70006000b800809fbe006000b800809fbe0057
:103f80006000b800809fbe006033b8006022b800b7
:103f90006011b8002092210021fb0700f88757002c
:103fa00084cea90084aea900848ea900856ea900e4
:103fb000754ea900040ea900052ea90095eea900d2
:103fc000054ea900746ea9000000eb00000f7800f8
:103fd00005003700110f0700204798002e40900081
:103fe000210607001e0fe800260f07009e0078003c
:103ff000808f5000f7ff3500060e0700e14f50009c
:104000002b013a00070e0700fe0d0700200798005d
:104010002e009000100078008000eb0062f2070094
:10402000323323003305240046f4070000017800f2
:10403000010078008202780000027800020020006f
:104040000358240005007800840078000000be00ba
:104050005df3070030079800410798003e0190008b
:10406000ce019000000020008120240056f30700bc
:1040700000017800010078008202780000027800d8
:1040800002002000030a2400050078008400780064
:104090000000be005ef20700800178000101780098
:1040a00003007800820078000000be0030c4880061
:1040b00041c48800640047001080e80010007800c8
:1040c0008000eb0038f20700323323003305240070
:1040d0001cf40700000178000100780082027800db
:1040e0000002780002002000035824000500780038
:1040f000840078000000be0033f30700300798000a
:10410000410798003e019000ce0190000000200081
:10411000812024002cf307000001780001007800c2
:10412000820278000002780002002000030a2400c6
:1041300005007800840078000000be0034f207001b
:104140008001780001017800030078008200780087
:104150000000be0010c4880021c48800640047002d
:104160004100200010804000100078008000eb002b
:104170000df207003233230033052400f1f307006a
:1041800000017800010078008202780000027800c7
:104190000200200003582400050078008400780005
:1041a0000000be0008f307003007980041079800a0
:1041b0003e019000ce0190000000200081202400ec
:1041c00001f3070000017800010078008202780006
:1041d0000002780002002000030a24000500780095
:1041e000840078000000be0009f20700800178001a
:1041f0000101780003007800820078000000be0012
:10420000f0c3880001c488006400470061002000fa
:1042100010804000100078008000eb00e2f1070001
:104220003233230033052400c6f307000001780071
:10423000010078008202780000027800020020006d
:104240000358240005007800840078000000be00b8
:10425000ddf2070030079800410798003e0190000a
:10426000ce0190000000200081202400d6f207003b
:1042700000017800010078008202780000027800d6
:1042800002002000030a2400050078008400780062
:104290000000be00def10700800178000101780017
:1042a00003007800820078000000be00b0c38800e0
:1042b000c1c38800640047008100200010804000d6
:1042c000100078008000eb00b7f1070032332300c4
:1042d000330524009bf307000001780001007800fb
:1042e00082027800000278000200200003582400b7
:1042f00005007800840078000000be00b2f20700dc
:1043000030079800410798003e019000ce019000d0
:104310000000200081202400abf20700000178009b
:10432000010078008202780000027800020020007c
:10433000030a240005007800840078000000be0015
:10434000b3f10700800178000101780003007800d4
:10435000820078000000be00d0c38800e1c388005e
:1043600030c4800041c480000200200003112400fa
:104370004af107000000e00003003d006000b800c3
:1043800030c4880041c4880010c4800021c480006b
:10439000020020000311240040f107000000e000ab
:1043a00003003d006000b80010c4880021c48800ec
:1043b000d0c38000e1c3800002002000031124006c
:1043c00036f107000000e00003003d006000b80087
:1043d000d0c38800e1c38800b0c38000c1c380009f
:1043e00002002000031124002cf107000000e0006f
:1043f00003003d006000b800b0c38800c1c388005e
:10440000f0c3800001c480000200200003112400da
:1044100022f107000000e00003003d006000b8004a
:10442000f0c3880001c4880030c4800041c480000b
:104430003ff1070080407800809921000148780012
:1044400010c4800021c4800039f10700804078004a
:104450008099210011409800f0c3800001c48000c1
:1044600033f10700804078008099210021409800b6
:10447000b0c38000c1c380002df1070080407800e8
:104480008099210031409800d0c38000e1c38000b2
:1044900027f1070080407800809921004140980072
:1044a00082992100510020000003200077040700ba
:1044b00030c4800041c4800002002000032024009a
:1044c000f6f007000000e00002003d0084cea800e6
:1044d0000100370084cea90010c4800021c48000f0
:1044e0000200200043212400ecf007000000e0005f
:1044f00002003d0084aea8000100370084aea90090
:10450000f0c3800001c48000020020004323240087
:10451000e2f007000000e00002003d00848ea800e9
:1045200001003700848ea900b0c38000c1c38000a1
:104530000200200043212400d8f007000000e00022
:1045400002003d00856ea80001003700856ea900bd
:10455000d0c38000e1c380000200200003202400bb
:10456000cef007000000e00002003d00754ea800fc
:1045700095fe3700754ea90093fe37000000fa0043
:1045800030d0bf000080fb006100b900b200200005
:1045900003002000820f5000838f5800e0003e008f
:1045a000000601000b0037002c00370035003700f3
:1045b00055003700590037007a0037007e00370079
:1045c0009c003700a0003700c0003700c40037004f
:1045d000ce0037006000b800d0c58800e1c5880073
:1045e0006000b800f0c5880001c688003830ef00d0
:1045f0003a30ef00ba03070010c0b30030f0b70044
:10460000d09921008040eb0031409800d0992100e2
:10461000b0409000d099210021409800d09921000d
:10462000a0409000d099210011409800d09921001d
:1046300090409000d099210001487800c08180000e
:1046400080407800d099210041409800d299210003
:1046500051002000000520000c040700c2818000ea
:10466000d38180004006200001002000800f51000f
:10467000818f5900ac00360020c0b30030f0b70085
:10468000a90037000000200001f02300d0c58800f9
:10469000e1c588006000b800f0c5880001c6880048
:1046a0008f03070030c0b30030f0b700d09921006d
:1046b0008040eb0031409800d0992100b04090003c
:1046c000d099210021409800d0992100a04090006d
:1046d000d099210011409800d099210011c0b30059
:1046e00001487800c081800080407800d099210086
:1046f00041409800d299210051002000000520007f
:10470000e203070093003700908180000000e00082
:10471000870032009200070085003700d0cc2c00c3
:10472000c1e42300d0c58800e1c588000000200056
:1047300001f82300f0c5880001c68800680307005f
:1047400050c0b30030f0b700d09921008040eb009a
:1047500031409800d0992100b0409000d0992100bc
:1047600001487800d099210090407800d09921002c
:1047700011409800d099210011c0b3002140980049
:10478000c081800080407800d0992100414098008d
:10479000d29921005100200000052000bb03070032
:1047a0006c003700908180000000e0006200320061
:1047b0006b00070060003700d0cc2c00c1e4230060
:1047c000d0c58800e1c588000000200001f82b005a
:1047d000f0c5880001c688004103070070c0b3001f
:1047e00030f0b700d09921008040eb0011409800d4
:1047f000d099210090409000d0992100214098004c
:10480000d0992100a0409000d09921000148780063
:10481000d099210011c0b30031409800c0818000c0
:1048200080407800d0992100414098002c03070077
:1048300048003700908180000000e0004000320016
:10484000470007003e0037006000b800d0c5880070
:10485000e1c58800305c2f00810c2400f0c5880081
:1048600001c688001e03070090c0b30030f0b700f7
:10487000d09921008040eb0031409800d099210070
:10488000b0409000d099210021409800d09921009b
:10489000a0409000d099210001487800d0992100d3
:1048a00011c0b30011409800c081800080407800a2
:1048b000d099210041409800d29921005100200058
:1048c000000520007103070022003700908180005e
:1048d0000000e0001c003200210007001a00370031
:1048e0006000b800d0c58800e1c58800305c2f00aa
:1048f000810c2c00f0c5880001c68800f802070072
:10490000b0c0b30030f0b7001200370090818000d3
:104910000000e0000e003200110007000c0037001c
:104920003070ef000b003700000000000900370076
:1049300000000000070037000000000005003700fd
:1049400000000000030037000000000001003700f5
:1049500000000000000000000080fa0000000600d7
:104960000200fa000040eb00004f78000040eb002e
:10497000004f78002a70ef002b70ef002c70ef00d2
:104980002d70ef002e70ef002f70ef00f0c380004d
:1049900001c480000200200003222400bfef0700b2
:1049a0000000e00003003d002fd0bf000024a00065
:1049b0002ff0b700b0c38000c1c380000200200008
:1049c00003202400b5ef07000000e00003003d00d5
:1049d0002dd0bf000014a0002df0b700d0c3800080
:1049e000e1c3800002002000831c2400abef07001d
:1049f0000000e00003003d002ed0bf000004a00036
:104a00002ef0b70010c4800021c4800002002000f6
:104a100003202400a1ef07000000e00003003d0098
:104a20002bd0bf000034a0002bf0b70030c48000b2
:104a300041c4800002002000831c240097ef07007f
:104a40000000e00003003d002cd0bf000044a000a7
:104a50002cf0b700c1022100914078002bd0bf009c
:104a600080c070002fd0bf0080c070002dd0bf006c
:104a700080c070002ed0bf0080c070002ad0bf0060
:104a800000c070002af0b70030d0bf00e94f5000de
:104a900009003a0030d0bf00eb4f500006003a004a
:104aa00030d0bf00e74f500003003a0030d0bf00c5
:104ab000e54f50004d0032002ad0bf00f44f5000a7
:104ac000060032002ad0bf00ec4f50000300320035
:104ad0002ad0bf00fc4f500003003a0030c0b300a2
:104ae000004f7800410037002ad0bf00e54f50004a
:104af000060032002ad0bf00e64f5000030032000b
:104b00002ad0bf00e74f500003003a0030c0b30086
:104b1000004f7800350037002ad0bf00e44f500026
:104b2000150032002ad0bf00ee4f500012003200b4
:104b30002ad0bf00f74f50000f0032002ad0bf002c
:104b4000ff4f50000c0032002ad0bf00ef4f500042
:104b5000090032002ad0bf00fe4f5000060032008c
:104b60002ad0bf00fd4f5000030032002ad0bf0002
:104b7000f54f500003003a0030c0b300004f7800fa
:104b80001a0037002ad0bf00f04f50000600320054
:104b90002ad0bf00e84f5000030032002ad0bf00e7
:104ba000f84f500003003a0010c0b300004f7800e7
:104bb0000e0037002ad0bf00e14f5000060032003f
:104bc0002ad0bf00e24f5000030032002ad0bf00bd
:104bd000e34f500003003a0020c0b300004f7800bc
:104be000020037000040eb00004f78001e407800c4
:104bf0000004e00003003a0020c0b30034f0b70026
:104c0000170037001e407800e24f500003003a00c2
:104c100040c0b30034f0b700110037001e407800e8
:104c2000e14f500003003a0060c0b30034f0b70019
:104c30000b0037001e407800e34f500003003a009d
:104c400080c0b30034f0b700050037001e40780084
:104c5000e44f500002003a00a0c0b30034f0b700a7
:104c600034d0bf000080fb00010321009140780098
:104c70008180fb008100e900810f500002003200ba
:104c800034d0bf0030f0b700000000000080fa0010
:104c9000000006000800fa0090c38000a1c3800055
:104ca00001f0a2000001be008000eb000e007800c1
:104cb0001709070050c3800061c380000001be00d7
:104cc000410020000e007800110907000e01780055
:104cd00081002000000420006c020700000000009a
:104ce0000080fa00000006001a00fa00889fbe004b
:104cf0008a9fbe00000f78001e00780010407800e8
:104d00000004e00027003a00510120001e00780056
:104d1000f4090700100798002107980011012000ee
:104d20001e007800ef0907000005be00d10020003a
:104d30001e007800eb0907000004be00910020006f
:104d40001e007800e7090700300798004107980027
:104d5000510020001e007800e2090700500798006b
:104d600061079800110020001e007800dd0907008f
:104d70001e019000ae019000829fbe008a9fbe007f
:104d8000889fbe003e039000ce0390005e0290001c
:104d9000ee0290000001be00208c210031000700cf
:104da000ec8757001e00780010407800e14f50005b
:104db00027003a00510120001e007800c9090700b1
:104dc00070079800010f9800110120001e00780064
:104dd000c40907000005be00d10020001e007800b5
:104de000c00907000004be00910020001e007800ea
:104df000bc090700100f9800210f980051002000f7
:104e00001e007800b7090700300f9800410f980086
:104e1000110020001e007800b20907007e019000fa
:104e20008e099000829fbe008a9fbe00889fbe00b0
:104e30001e0b9000ae0b90003e0a9000ce0a900030
:104e40000001be00208f210006000700ec875700fc
:104e5000000000004f05be004f04be000080fa00b5
:104e6000000006000e00fa00000f780012079800fc
:104e700023079800340798004507980056079800c4
:104e8000670798001e0078001e019000ae01900098
:104e90000288be001e0078003eb99700ceb9970088
:104ea00062009800730098001e0078003e01900098
:104eb000ce01900022009800330098001e00780078
:104ec0001eb99700aeb99700020898001308980021
:104ed0001e0078005e019000ee01900042009800f4
:104ee000530098001e0078007eb197008eb997009d
:104ef0002208980033089800000000000080fa00a3
:104f0000000006005000fa0010c6800021c6800094
:104f10000001be008000eb000e0078007c08070056
:104f200030c6800041c680000001be004100200064
:104f30000e0078007608070050c6800061c6800029
:104f40000001be00810020000e00780070080700fc
:104f500070c6800081c680000001be00c100200034
:104f60000e0078006a08070090c68000a1c6800085
:104f70000001be00010120000e0078006408070057
:104f8000b0c68000c1c680000001be004101200003
:104f90000e0078005e08070090c78000a1c780005f
:104fa0000001be00810120000e00780058080700b3
:104fb000b0c78000c1c780000001be00c101200051
:104fc0000e00780052080700d0c78000e1c78000bb
:104fd0000001be00010220000e0078004c0807000e
:104fe000f0c7800001c880000001be00410220001f
:104ff0000e0078004608070010c8800021c8800015
:105000000001be00810220000e0078004008070069
:1050100030c8800041c880000001be00c1022000ed
:105020000e0078003a08070010c7800021c78000f2
:105030000001be00010320000e00780034080700c4
:1050400030c7800041c780000001be00410320003e
:105050000e0078002e08070050c7800061c780004e
:105060000001be00810320000e0078002808070020
:1050700070c7800081c780000001be00c10320000e
:105080000e0078002208070090c88000a1c88000a8
:105090000001be00010420000e0078001c0807007b
:1050a000b0c88000c1c880000001be0041042000db
:1050b0000e00780016080700d0c88000e1c8800004
:1050c0000001be00810420000e00780010080700d7
:1050d000f0c8800001c980000001be00c1042000aa
:1050e0000e0078000a0807000e0178000105200074
:1050f0001006200065010700000000000080fa0093
:10510000000006001200fa00889fbe0060079800a9
:1051100072079800030f98006e0090007e019000c7
:105120008e09900002109800131098006e009000f5
:1051300060029000f00290006e00900090009000dd
:10514000100078000001be000400be001eef070042
:1051500000017800010078008204780000047800e3
:105160006e009000f00090006000900001f0a2003e
:105170006e019000920190001201780012ef07007a
:1051800000017800010078008201780000017800b9
:1051900009007800880078000002be000300780053
:1051a000820078000001be007e0090008e08900012
:1051b00072080700008fbe006e0090009000900003
:1051c000100078001e0178009e019000ddef0700be
:1051d00080017800010178000300780082007800e7
:1051e0000001be006e00900022109800331098005d
:1051f0006e009000400c9000d00c90000200200047
:10520000a33724007e0090008e089000eeee070089
:105210000001780001007800820178000001780028
:1052200003007800820078000001be000800be0084
:1052300000ee07008001780001017800030078008b
:10524000820078000001be006e00900042089800c5
:10525000530898006e009000000a9000900a900099
:105260006e009000b0009000200090000001be0091
:105270000400be00d4ee07000001780001007800b1
:1052800082047800000478006e009000900890007e
:105290000008900001f0a2006e019000b2019000a1
:1052a00022019000c8ee070000017800010078009c
:1052b00082017800000178006e009000400b9000a1
:1052c000d00b900009007800880078000002be0032
:1052d00003007800820078000001be000600be00d6
:1052e000260807000001be006e00900042089800ea
:1052f000530898006e00900020029000b0029000c9
:105300006e009000d0089000400890000001be00a0
:105310000400be008bef07008001780001017800d7
:1053200003007800820078000001be006e0090004b
:1053300042109800531098006e009000f008900002
:10534000600890000001be007e0090008e08900072
:10535000afed0700000178000100780082027800bc
:105360000002780002002000a33724000500780026
:10537000840078000000be0072ef0700200798004c
:10538000310798006e009000200a9000b00a90004b
:105390006e009000d0009000400090000001be0020
:1053a0000400be0088ee07000001780001007800cc
:1053b00082047800000478006e009000b00890002d
:1053c0002008900001f0a2006e019000d201900030
:1053d000420190007cee0700000178000100780097
:1053e00082017800000178000900780088007800c8
:1053f0000002be0003007800820078000001be00b9
:105400002e009000be009000dc07070040079800c7
:10541000510798006e0090007e0190008e09900068
:1054200062089800730898006e009000d000900009
:10543000400090004e019000de01900041ef070017
:105440008001780001017800030078008200780074
:105450000001be006e00900062109800731098006a
:105460006e00900020129000b01290006e0090002c
:10547000d0109000401090000001be000400be005b
:105480006ced0700000178000100780082027800ce
:10549000000278006e009000f01090006010900004
:1054a0000001be0005007800840078000000be0006
:1054b00060ed0700000178000100780082007800ac
:1054c00081017800000178000300780082007800f4
:1054d0000000be004f04be000080fa00000006007d
:1054e0000000fa00d4c58000e5c5800090c48000ab
:1054f000a1c480000001be000400be0044ed07000e
:1055000080017800010178000300780082007800b3
:105510000000be0010c7880021c78800f4c58000c5
:1055200005c68000b0c48000c1c480000001be0078
:105530000400be0036ed070080017800010178000c
:1055400003007800820078000000be0090c8880048
:10555000a1c8880010c7800021c780000001be00dc
:10556000208c2100e7fe070090c58800a1c58800b7
:1055700090c88000a1c880000001be00208f2100db
:10558000e0fe0700b0c58800c1c58800b0c5800036
:10559000c1c5800094c58000a5c580000001be0083
:1055a0000400be0002050700000000000080fa00b1
:1055b000000006000a00fa00200798003107980052
:1055c000420798000040eb00004f78009e407800b2
:1055d000e0cfb30000c06800004f78002e009000bc
:1055e0004880de00004078009e40780000c06800df
:1055f000004f78002e009000004078009e40780018
:1056000000c06800004f78003e0090004880de0037
:10561000004078009e40780000c06800004f78008d
:105620003e009000004078009e40780000c0680076
:10563000004f78000000eb00100798000c003700c6
:105640001e009000e8004700110040001040780064
:105650009e40780000c06800004f78000e80e8008f
:105660008e80e8001108e80090007800110798008b
:105670009e0090003e009000808f5000f0ff3500ab
:105680001e4078000080fa00000006000e00fa00bc
:10569000889fbe008a1f7800400798005107980035
:1056a000620798008f0478000f00780000057800ea
:1056b0006a00470061002000108040008000e9007f
:1056c000210798000000e8000000d10080004000a1
:1056d0000f00780081874700600040003007980085
:1056e0000000eb00100798009e0090000e80e8007c
:1056f0000108e80010017800120798003e009000b1
