:020000040000fa
:080000000002040000000000f2
:020000040000fa
:040008005c04000094
:020000040000fa
:04000c005c04000090
:020000040000fa
:040010005c0400008c
:020000040000fa
:040014005c04000088
:020000040000fa
:040018005c04000084
:020000040000fa
:04001c005c04000080
:020000040000fa
:040020005c0400007c
:020000040000fa
:040024005c04000078
:020000040000fa
:040028005c04000074
:020000040000fa
:04002c005c04000070
:020000040000fa
:040030005c0400006c
:020000040000fa
:04003400fa020000cc
:020000040000fa
:040038005c04000064
:020000040000fa
:04003c005c04000060
:020000040000fa
:040040005c0400005c
:020000040000fa
:040044005c04000058
:020000040000fa
:040048005a03000057
:020000040000fa
:04004c005c04000050
:020000040000fa
:040050005c0400004c
:020000040000fa
:040054001404000090
:020000040000fa
:04005800e8030000b9
:020000040000fa
:04005c00c2030000db
:020000040000fa
:040060005c0400003c
:020000040000fa
:040064005c04000038
:020000040000fa
:040068005c04000034
:020000040000fa
:04006c005c04000030
:020000040000fa
:040070005c0400002c
:020000040000fa
:040074005c04000028
:020000040000fa
:040078005c04000024
:020000040000fa
:04007c005c04000020
:020000040000fa
:040080005c0400001c
:020000040000fa
:040084005c04000018
:020000040000fa
:040088005c04000014
:020000040000fa
:04008c005c04000010
:020000040000fa
:040090005c0400000c
:020000040000fa
:040094006403000001
:020000040000fa
:040098005c04000004
:020000040000fa
:04009c005c04000000
:020000040000fa
:0400a0005c040000fc
:020000040000fa
:0400a4005c040000f8
:020000040000fa
:0400a8005c040000f4
:020000040000fa
:0400ac005c040000f0
:020000040000fa
:0400b0005c040000ec
:020000040000fa
:0400b4005c040000e8
:020000040000fa
:0400b8005c040000e4
:020000040000fa
:0400bc005c040000e0
:020000040000fa
:0400c0005c040000dc
:020000040000fa
:0400c4005c040000d8
:020000040000fa
:0400c8005c040000d4
:020000040000fa
:0400cc005c040000d0
:020000040000fa
:0400d0005c040000cc
:020000040000fa
:0400d4005c040000c8
:020000040000fa
:0400d8005c040000c4
:020000040000fa
:0400dc005c040000c0
:020000040000fa
:0400e0005c040000bc
:020000040000fa
:0400e4005c040000b8
:020000040000fa
:0400e8005c040000b4
:020000040000fa
:0400ec005c040000b0
:020000040000fa
:0400f0005c040000ac
:020000040000fa
:0400f4005c040000a8
:020000040000fa
:0400f8005c040000a4
:020000040000fa
:0400fc005c040000a0
:020000040000fa
:040100005c0400009b
:020000040000fa
:040104005c04000097
:020000040000fa
:040108005c04000093
:020000040000fa
:04010c005c0400008f
:020000040000fa
:040110005c0400008b
:020000040000fa
:040114005c04000087
:020000040000fa
:040118005c04000083
:020000040000fa
:04011c005c0400007f
:020000040000fa
:040120005c0400007b
:020000040000fa
:040124005c04000077
:020000040000fa
:040128005c04000073
:020000040000fa
:04012c005c0400006f
:020000040000fa
:040130005c0400006b
:020000040000fa
:040134005c04000067
:020000040000fa
:040138005c04000063
:020000040000fa
:04013c005c0400005f
:020000040000fa
:040140005c0400005b
:020000040000fa
:040144005c04000057
:020000040000fa
:040148005c04000053
:020000040000fa
:04014c005c0400004f
:020000040000fa
:040150005c0400004b
:020000040000fa
:040154005c04000047
:020000040000fa
:040158005c04000043
:020000040000fa
:04015c005c0400003f
:020000040000fa
:040160005c0400003b
:020000040000fa
:040164005c04000037
:020000040000fa
:040168005c04000033
:020000040000fa
:04016c005c0400002f
:020000040000fa
:040170005c0400002b
:020000040000fa
:040174005c04000027
:020000040000fa
:040178005c04000023
:020000040000fa
:04017c005c0400001f
:020000040000fa
:040180005c0400001b
:020000040000fa
:040184005c04000017
:020000040000fa
:040188005c04000013
:020000040000fa
:04018c005c0400000f
:020000040000fa
:040190005c0400000b
:020000040000fa
:040194005c04000007
:020000040000fa
:040198005c04000003
:020000040000fa
:04019c005c040000ff
:020000040000fa
:0401a0005c040000fb
:020000040000fa
:0401a4005c040000f7
:020000040000fa
:0401a8005c040000f3
:020000040000fa
:0401ac005c040000ef
:020000040000fa
:0401b0005c040000eb
:020000040000fa
:0401b4005c040000e7
:020000040000fa
:0401b8005c040000e3
:020000040000fa
:0401bc005c040000df
:020000040000fa
:0401c0005c040000db
:020000040000fa
:0401c4005c040000d7
:020000040000fa
:0401c8005c040000d3
:020000040000fa
:0401cc005c040000cf
:020000040000fa
:0401d0005c040000cb
:020000040000fa
:0401d4005c040000c7
:020000040000fa
:0401d8005c040000c3
:020000040000fa
:0401dc005c040000bf
:020000040000fa
:0401e0005c040000bb
:020000040000fa
:0401e4005c040000b7
:020000040000fa
:0401e8005c040000b3
:020000040000fa
:0401ec005c040000af
:020000040000fa
:0401f0005c040000ab
:020000040000fa
:0401f4005c040000a7
:020000040000fa
:0401f8005c040000a3
:020000040000fa
:0401fc005c0400009f
:020000040000fa
:040200005c0400009a
:020000040000fa
:040204005c04000096
:020000040000fa
:040208005c04000092
:020000040000fa
:04020c005c0400008e
:020000040000fa
:040210005c0400008a
:020000040000fa
:040214005c04000086
:020000040000fa
:040218005c04000082
:020000040000fa
:04021c005c0400007e
:020000040000fa
:040220005c0400007a
:020000040000fa
:040224005c04000076
:020000040000fa
:040228005c04000072
:020000040000fa
:04022c005c0400006e
:020000040000fa
:040230005c0400006a
:020000040000fa
:040234005c04000066
:020000040000fa
:040238005c04000062
:020000040000fa
:04023c005c0400005e
:020000040000fa
:040240005c0400005a
:020000040000fa
:040244005c04000056
:020000040000fa
:040248005c04000052
:020000040000fa
:04024c005c0400004e
:020000040000fa
:040250005c0400004a
:020000040000fa
:040254005c04000046
:020000040000fa
:040258005c04000042
:020000040000fa
:04025c005c0400003e
:020000040000fa
:040260005c0400003a
:020000040000fa
:040264005c04000036
:020000040000fa
:100400006f9321000eff27000e01880000000000fe
:10041000000020000000e000020032000001200087
:100420002002880014000700250107000000e000fa
:1004300003003a00200223000100200002003700e0
:100440000000200001002000810f70000100320038
:100450000f000700000020000000e0000200320052
:100460000000020000000000fc110200000000007b
:100470000040da000000fe00200020000000e00044
:1004800002003200100020009001880000000600e9
:10049000a1028800800478000000eb001f003700f4
:1004a000e284440054a0b4009905ba00e2844400f8
:1004b00054a0b4009906ba00e284440054a0b400e9
:1004c0000006eb00476fde00fd07b200ae018800ba
:1004d000636ce10003003a000ad801000000eb0061
:1004e0000e003700606ce10008003a00004deb00a0
:1004f0000a05e800020039003420ec000af0a000f0
:100500008b05e900f9ff3e00040037006168e10057
:10051000010032000086eb000b00070019c7ba008b
:100520000e04e0001905ba0003003a000a00e000da
:10053000dbff3a0000000600fe07b200ae028800b2
:100540008a047800f5ff37000cd0a300e20f4d00bd
:100550001c003b0089027800354dba000a05e8000e
:10056000020039003420ec000af0a0008b05e900fd
:100570000f003200254dba000a05e80002003900dc
:100580003420ec000af0a0008b05e90008003200de
:100590000c00e0000600320015cdba000a05e800a4
:1005a000020039003420ec000af0a0008b05e900bd
:1005b0008984e80054a0b4000b00e000e2ff3a0098
:1005c000000006009902ba00055d78008b05e9007d
:1005d000f7ff3200c82ade00055d78008b05e900d0
:1005e000f3ff32000c00e000f1ff320019ddba0029
:1005f000eeff37003600f800809fbe00829fbe00ed
:10060000849fbe00869fbe000800fa000068a90013
:100610001812070052150700c60e0700e40c070069
:10062000e08180008000e800e1818800e101200095
:1006300001017800110009000200d8008000fd00cf
:100640000000e00013003a0090c38000a1c38000c6
:1006500001f0a2000001be008000eb000e00780057
:100660008713070050c3800061c380000001be00f3
:10067000410020000e007800811307000e01780071
:1006800081002000000420004a100700e60f070048
:10069000500b0700000000000080fa004f03be006e
:1006a0004f02be004f01be004f00be003600f900f1
:1006b000004006000000fa000108a9000000000048
:1006c0000080fa00004006003600f800809fbe005f
:1006d000829fbe00849fbe00869fbe000000fa007d
:1006e0000368a900c2818000d3818000100020002f
:1006f000010020000200400083804800c081880083
:10070000d1818800c0818000d1818000823e20009c
:1007100003002000c7000700800178000101780075
:100720000300780082007800e00f5000e08f58004e
:100730000b003a00207080004a00de00614060003b
:10074000614068000080fb00610060004a00dd003d
:100750002170800001a0a1000100700020708800bd
:10076000cc080700000000000080fa004f03be0024
:100770004f02be004f01be004f00be003600f90020
:1007800000400600801f78000000fa0001a8a900c0
:100790000018800060c988001018800070c98800a7
:1007a0002018800080c988003018800090c9880017
:1007b00040188000a0c9880010c0b30061f0b700e5
:1007c000000000000080fa004f00780000400600a2
:1007d0003600f800809fbe00829fbe00849fbe004e
:1007e000869fbe000000fa000188a900a182800057
:1007f00090828000808f5000020032007614070043
:10080000010037005670ef00000000000080fa0081
:100810004f03be004f02be004f01be004f00be009e
:100820003600f900004006003600f800809fbe0048
:10083000829fbe00849fbe00869fbe000000fa001b
:100840000168a900101180004200de0061406000d4
:10085000e14f500001003a002242a900101180002f
:100860000000d10061406000e14f500005003a00f7
:100870002222a900030037003011800000407800d8
:10088000ae15070010118000004078006140600044
:10089000e14f5000f8ff3200000000000080fa0035
:1008a0004f03be004f02be004f01be004f00be000e
:1008b0003600f900004006000040da000000fe00ab
:1008c0000000050014002000b2033700f4ff2f00e1
:1008d000b00337000001be00410007000470a7000c
:1008e00003f0a1006509b100160032000d003500cb
:1008f0006828e10006003500f0ff2f00f1ff270017
:100900000300e00013003b00010028000000050088
:1009100000004000818048008502e900fcff3a00a9
:1009200008003700f88f420002003c008000eb0016
:10093000000005008100d1000080d3008502e8009e
:10094000fcff3a000300e00002003b0060001000e2
:10095000e0801800000006000001be002000070033
:100960000470a70003f0a10003f8a30013003a00ed
:100970006509b10010003200090035006928e10066
:1009800002003500010028000000050000004000c2
:10099000818048008502e900fcff3a000000060063
:1009a000f88f4200050035008100d1000080d3009f
:1009b0008502e800fcff3a00000006008000eb0022
:1009c000000005004f89de00820178008c033700ab
:1009d0006011b8009a033700040020006d0337004f
:1009e000c70ade00f107b200f50fb20008003200be
:1009f000e1cf4200020032000170a0002400050097
:100a0000810f700001003200040805004400050059
:100a1000810f700002003a00140005008502e90011
:100a20000000400081c04800fcff3b000170a000b6
:100a300024000500df0307000400be0000000600dc
:100a400007f82700078361000638e10004003a0038
:100a5000f7072000878361008703710001003a00d7
:100a600003f0a200889fbe008a9fbe008c9fbe003c
:100a7000470ade000480a100c71ade000580a1003d
:100a8000070028000785600087856100f70f2000b8
:100a90000720e1009e0032000728e1009c003200a0
:100aa000010678000400e000b4003200f7072000df
:100ab000878060000170a0000500e000c0003200e7
:100ac000f7072000878161000370a000050652002f
:100ad0000f003a000b50e1000b0032000308e10068
:100ae00002003a000200e1007e00320002045000e1
:100af00083845800040031000001fd008101fd00e5
:100b00008402fd008a05fd006044b8002100370022
:100b10000520e10005003d000001fd008101fd0010
:100b20008402fd008a05fd00050652007a60e1009e
:100b3000050035000170a1004722dd0084807000af
:100b40008a807000630037006044b800ef026600de
:100b500007ff2f00070666000500e00006003400ce
:100b6000f08312008714dd000511de00071bdd0095
:100b7000060171008519de007060e1000500350096
:100b80000904780082047800030178008001eb00fa
:100b9000700656000b50e10003003a0002004000ce
:100ba000838048000400370060041400e0841c00c7
:100bb00002005800838058000188a300060032001c
:100bc0008100d1000080d3008984d3000884d30041
:100bd0000402e800270037000178a30025003a004e
:100be0000100e000030032008186cf0069865600d4
:100bf0000a0037008c0020000000e00004003a00ea
:100c000009007800880478000004eb0070025200ac
:100c10008086cf000d0646000c06e9007060e100fa
:100c2000060035008000780009007800880478000c
:100c30000004eb0070065600700252000c00e00049
:100c40000c0034008c08dd00f00316000703de0002
:100c5000868070000c00dd00074bde00060070008f
:100c60008c4cdd000743de00868474000c44dd00fc
:100c70000c0252006120e10020003500610160009b
:100c80000700280087816400f7ff2700878364003e
:100c9000070374000300e0000600320082037300c3
:100ca000040032000000e800e08048000188a30052
:100cb0000e003a00f70f20000720e1004a003d0037
:100cc0000170a1004722dd00810072008a8070005f
:100cd0000000be004f06be004f05be004f04be0020
:100ce000000006006000b800faff37008100d10064
:100cf0000080d3000402e800eeff37000401780012
:100d000089017400a10107008a807000f1ff37009b
:100d1000f7010700070278000001fd008101fd00d6
:100d2000f301070087027800850372000778a300ab
:100d3000040032000001fd008101fd0006020700f1
:100d4000e4ff3700850362000768a3000800320053
:100d50000b50e10003003200f0ff2f00f1ff2700ed
:100d6000dcff37000001fd008101fd00d9ff3700e5
:100d70000468a300d7ff3200faff3700f8ff27000e
:100d8000888360000b003a000000e00009003a0090
:100d90008303640082837300020032000200be00fd
:100da000ccff37000b50e100ceff3a000200be003e
:100db000c8ff370014002000810064003eff3700a8
:100dc000f8ff27008883610004003a000200e00079
:100dd00002003a008c007800beff370015002000aa
:100de0008301640039ff370001f82700000020006c
:100df00081007500b7ff3700889fbe008a9fbe0044
:100e00008c9fbe001b0020000202be000586680009
:100e100006002800060666004709de00f20fb20051
:100e2000820032000243e80080003200c729de0061
:100e3000f30fb2007d0032000343e8007b00320074
:100e4000f107b2000170a000f507b2000570a00024
:100e5000c708dd004903de00868070004700dd0022
:100e6000c72add004923de00868272004722dd00aa
:100e7000030551000403500085835800030031002e
:100e800000004000818048000a05e9008c1f7800be
:100e90008a9fbe0004005000858058000402420072
:100ea00085824a0000004000818048000005eb0078
:100eb0000004be006033b8000406be000d48e10027
:100ec00056003100110009004dccd8000c01b800cb
:100ed0000d02b8008481410060824a008283530081
:100ee00003045c0084845c0060055d000a00e0008f
:100ef00025003a00800578000d40e10049003100ee
:100f00008800780007007800110009004d88d8009b
:100f10000c01b8000d02b8008481410060824a00d3
:100f20006003110083835b0004045c00e0845c00c8
:100f30000900e00021003a004f01be000300e0007c
:100f40002b003200e3016000070673008c81710002
:100f500001003200640070004200de004e5edd00e1
:100f60000c007000c258de0001e0a0008301070001
:100f7000cf017800818071004f06be004f05be0092
:100f80004f04be00000006008c8343000d044c009b
:100f9000e0844c0060054d000000e9000a00e0001c
:100fa000d4ff32008c8343000d044c00e0844c00dd
:100fb00060054d000000e900ceff37000c03430040
:100fc0008d834b0060044c00e0844c000000e9007d
:100fd0000900e000d8ff32000c0343008d834b0072
:100fe00060044c00e0844c000000e900d2ff3700b0
:100ff0004200de004e5edd000c007000c258de00d4
:1010000001e0a000cf0178000300e000daff320029
:1010100060001000e0801800d7ff3700f0ff2f00bd
:10102000aaff3700f0ff2f00b9ff37000404be000d
:101030002f010700870678000004fd008104fd00f1
:101040002b010700078366000678a3000300320027
:101050000960a7000800be002c0037000d78a3002f
:10106000020032000800be00280037000778a30005
:1010700026003a0001f0a10009f0a1000668a300d3
:1010800003003200f1ff2700f0ff2f00baff370006
:101090000d68a300030032000800be008c807000c1
:1010a000b5ff37000768a30007003a000648a30011
:1010b00003003200f1ff2700f0ff2f00aeff3700e2
:1010c0000d48a300030032006000b8008c8070005f
:1010d000a9ff37000748a3000400320001f82700e9
:1010e000000020008c807000a3ff3700760107000d
:1010f0000004fd008104fd00020578007201070074
:101100000802be008a01780059ff37000160a00084
:10111000120220001283880097ff37000100e000d0
:10112000120032000500e00010003200889fbe006f
:101130008a9fbe008c9fbe000006eb0001f8a30052
:101140000300320060001000e08018000cf0a000e6
:1011500005f8a3000300320060021200e0821a00ca
:101160000cf0a2008005eb0041ff37006000b800e2
:1011700002000500038368000700280007036300de
:10118000470ade000480a100c71ade000580a10026
:10119000f70f20000720e100420032000728e1009d
:1011a00040003200889fbe008a9fbe008c1f7800de
:1011b000f107b200f307b2000400e000640032005f
:1011c0000170a0000500e000680032000370a0007c
:1011d00085054200eb07b1000204b8000302b80025
:1011e0008484440060854a00020ab8008484440074
:1011f0000a854a00030ab8000405450004003300cc
:101200000804d0008984d2000a85d2008b05e90049
:101210006158e1003d003500021020000901610025
:101220000308200089816100f7072000878364009c
:1012300008867300c84cde00c853dd008784740044
:101240004855de000300e00006003200820376000d
:10125000040032008904e80060054d000a88a300fc
:101260000c003a00f70f20000758e10044003d0051
:101270000a70a100c75ddd000a8575008a00730051
:10128000090078004f0678004f05be004f04be00ed
:10129000000006000a05d1008984d3008b05e80010
:1012a000f0ff3700881f78000604780090000700e0
:1012b000070278000001fd008101fd008c0007009d
:1012c00087027800850372000778a30005003200ca
:1012d0000001fd008101fd009f0007004f04780020
:1012e00000000600850372000748a30003003200d7
:1012f000f0ff2f00f1ff2700f8ff3700000020006b
:1013000001f8270088807000f4ff3700880178001a
:101310004848dd00808171004848de00c850dd008b
:1013200001007000c850de00060478000b01780050
:101330001600070088807000d2ff37000500e0002b
:1013400005003200170020003a0007009dff37001b
:1013500081037000f9ff3a00860078004f0678009c
:101360004f05be004f04be0000000500830371005e
:10137000f9ff3200270020002e00070094ff3700fd
:1013800001f8270086807000f4ff37000100e000bc
:1013900026003200610111007810e10023003c00ba
:1013a0006022b8007010e10004003500800278006f
:1013b000010078008000eb00700151000200e000a5
:1013c0000900340070031100062add00822ade00c5
:1013d0008603dd00878272000200de00860bdd00de
:1013e000070070008208de0084817100f4ff27008e
:1013f00004826200848171000400280084826200fb
:101400006102600005f0a600000006000482710081
:10141000070032000000e800e080480000000600fd
:101420000002be006000b800efff37006000b800a7
:1014300000000600889fbe000004eb006138e10058
:1014400016003a000100e00008003a00c800de0083
:101450004800dd00880020000100e00003003a00a1
:10146000c800de004800dd00680444008184cf002d
:10147000e9845400060034008908dd00f08314007c
:101480008703de00878070000900dd000904440046
:10149000610214004f04be00000006000300e000db
:1014a00008003a00c811de004811dd008800200065
:1014b0000300e00003003a00c811de004811dd001f
:1014c000680444008384cf00e9845400060034009b
:1014d0008919dd00f08314008713de008781710015
:1014e0000911dd0009044400e1021400e9ff37009e
:1014f0002700200001f0a70017002000470bde00a6
:10150000f60fb200040032000643e8000a00320081
:101510004702b3000000060001037800f607b2009e
:101520000603700002003a000703b3000000060043
:101530008702b3000000060001037800f607b2003e
:1015400006037000020032000770a00000000600d1
:101550000760a000000006000478a3000400320029
:101560000578a300030032000168a30001003a00df
:101570000200be000160a0000000060081017000b2
:10158000270032008002eb0001f8a30003003200c4
:1015900060001000e080180015002000f407200013
:1015a0000202420020003400f7032000870360009d
:1015b000060420000003630002082000000161000f
:1015c0004700de00c909dd0000807100c708de00a9
:1015d0000600e000080032008703710006003200b8
:1015e0001000b0000180b0000188a30002003200aa
:1015f000c108de000402e800f107b200f30f20008a
:101600000320e10003003d004722dd00810072005d
:101610002900370001f827000000eb002600370002
:101620006000b80000000600680212007f20e100a0
:10163000020034006000b8001f0037006011b800dd
:101640007020e1000400350080017800010078007e
:101650008000eb00700252000400e000090034003a
:10166000f00312000719dd008419de000703dd0016
:10167000868171000400de00070bdd0006007000ab
:101680008408de00f7ff270083836300870371006f
:101690000600280003036300070032000700e00093
:1016a00003003a0061016000028173000200320011
:1016b0001000b0000180b0000500a6000000060088
:1016c00001f0a000000006004f0ade004709de001e
:1016d000f107b200f20fb2000b003200f207b100c6
:1016e0000170a000c708dd00c901de008380700022
:1016f0004700dd000400a6000000060060001000a6
:10170000e080180000000600810f700001003a0020
:10171000000006008182cf000500e00010003e00be
:101720008082cf00ee8242007028e1000400390080
:1017300007003e00800078000000eb000e0037003c
:10174000708312008600de000500dd000a0037000d
:10175000708352008600dd000000eb0006003700b9
:10176000e28252008508dd00708312000603de006d
:10177000868070000500dd007507b0000501ea00f5
:101780000400a6000000060060001000e0801800c1
:1017900000000600889fbe008a9fbe00841f78005c
:1017a0007c0007004f00780011003300f0ff2f008d
:1017b000838f6c0006003b00040565000a00a7004b
:1017c0000800370009f0a6001000200008003700cc
:1017d000820f5400838f5c0003003900100020004a
:1017e00001003e000000200009f0a7000000ea0010
:1017f0004f05be004f04be000000e00000000600e0
:10180000881f7800030478000300e00007003d0013
:1018100060001000e080180060011900e0811900ec
:1018200002003b0001f02d00030037000400070018
:1018300008f0a70001f0a0004f04780000000600a7
:10184000889fbe008a9fbe00008270000402710063
:1018500004827100260032000004be000200be00b7
:101860006011b8006b092000950220000182cf00b2
:101870000a0039000541b1000082cf00070039009d
:101880000541b1000982cf00040039000541b100d3
:101890000882cf00010039000541b1000542520025
:1018a000120032000a003b00828171006101640075
:1018b0008100d1000080d3008984d3000884d30044
:1018c0008b05e8000442e800f7ff3a000700370004
:1018d0000804440089844c000000480081804800ce
:1018e0008b05e9000442e900f9ff3a000300070014
:1018f0004f05be004f04be0000000600810020001e
:10190000618055000b003d000b00200061fe2f00a0
:101910000100e1001d00340082817100610164005a
:101920008904d1000884d3000000e800faff3a00df
:10193000710020006100640003007000020060007c
:101940000900320061044400e0844c000988a500cd
:10195000050032008b05e8006808e10002003a004b
:101960008904d1000884d300f20f20000258e1005e
:1019700005003d00c75ddd00f907b20089807500f4
:1019800008007800000006000bf827008b007800a4
:10199000000005000004be0011fc07000003be00ab
:1019a0000405be000200be000dfc0700844f750058
:1019b000000006006022b800060220000000d000ef
:1019c0008180d2000482d2008582d2000000a00073
:1019d0000202520083825a000300310002024200d8
:1019e00083824a000000a1000603e900f3ff3a00e9
:1019f000000006000400fa000001be0003f0a10090
:101a0000a4fd200095f42300840f5100858f590018
:101a10000e003e00f4ff2f00f5972300840f5100c5
:101a2000858f59003a003e000200200003b82700cd
:101a30000cfc0700e0bf9f00f1bf9f0000002000ea
:101a400001f823000080fa00000006004f0ade00c3
:101a500005002000163d2500b7072400860f510021
:101a6000878f59001b003e0036be2c006701240002
:101a7000860f5100878f59000a003600b2fd200002
:101a8000930424000400e00004003200f5fb07008a
:101a90005c01070001f0a200eaff3700e8fb070045
:101aa000fbff37000400e00005003200b2fd20001b
:101ab00093fc2300ebfb0700dd010700e1ff37008b
:101ac0000001be00b0fd200091fc2300dcfb0700fc
:101ad000f9ff3700561d2300270e2400860f510002
:101ae000878f590014003e00f6dd2e00f70a24000f
:101af000860f5100878f590009003600b2fd200083
:101b0000930c24000400e00003003200d5fb070022
:101b10003c010700cbff3700c9fb0700fcff370083
:101b20000400e0000100320001f0a20042be2c00df
:101b300063092400e5ff3700f4ff2f00f5f72700c5
:101b4000840f5100858f5900040036000001be004b
:101b50000200be00bafb0700baff3700c2ff2f0029
:101b60000f0141005b010700630160006fb897003f
:101b7000ffb89700e10f510005003200e20f51005d
:101b8000c3ff32000200e000cbff3a00e0ff370065
:101b900001f0a200c8ff37000400fa00889fbe00d1
:101ba0008a9fbe000203410083834900e00f530077
:101bb000e08f5b000f0032000202be0005f0a100c2
:101bc0000800200009f82700880f5200898f5a006a
:101bd00008003e00a0bf9f00b1bf9f00470dde0080
:101be0000b002000f40f20000a056200840f55004e
:101bf00007003a005ffd07000001be007efc070001
:101c00004f05be004f04be000080fa000000060031
:101c10000002400081824800840f5300858f5b00e2
:101c200006003900840f5300858f5b00f4ff3a00f3
:101c30006011b8004ffd0700f1ff37000a00e00017
:101c40004c003a002fbb9700bfbb9700493add001c
:101c5000c732de00850272004932dd00e00f52001b
:101c6000e08f5a003f003d00610215002fbb970036
:101c7000bfbb9700040478000804e90003003300a8
:101c80000603430087834b00fbff37000602be00bc
:101c9000471bde00070020000683fb000600e00073
:101ca0003d003a00491cdd00c714de0089047400c1
:101cb0004914dd00e00f5400e08f5c0032003d006d
:101cc000e10313000204be008703e90003003300b0
:101cd0000804440089844c00fbff370008015200cf
:101ce00089815a00860f55002f003c00e00f5100fb
:101cf000e08f590004003500e00f5100e08f5900db
:101d0000cbff32000202be004728de0001002000a7
:101d1000e00f5000e08f58002e0032000a00e00073
:101d2000300034000000200001f82f0004024000c1
:101d3000858248006150b900c700dd000000200026
:101d400004007000858070006022b8000200280046
:101d5000bfb99700830261000000720081807200a9
:101d6000a7ff37000a05e9000402420085824a0005
:101d7000baff37002fba9700bfba9700f507b20035
:101d80000570a000c2ff37000603e9000804440004
:101d900089844c00c7ff37000204be00f907b20077
:101da0000970a000cdff3700e00f5100e08f59000f
:101db00004003500e00f5100e08f59009cff320015
:101dc0000202be000402420085824a000a05e900c0
:101dd000c2ff37000402420085824a000a05e9007a
:101de000c9ff3700610515000400be000a05e900bf
:101df000030033008100d1000080d300fbff3700d7
:101e0000d1ff37000400fa00889fbe000004be0026
:101e10008900780001f0a100a4fd200095f42300c2
:101e2000840f5000858f58001e003e00f4ff2f00e5
:101e3000f5972300840f5000858f580016003e0050
:101e40006000b80003f8270089806100e00f5000af
:101e5000e08f58000b003a000200200003382000f9
:101e60000800be00c3fc07000001be00c2bf9f0007
:101e7000d3bf9f000800be004f04be000080fa00e0
:101e8000000006000200200003b827000800be0082
:101e9000f4fa0700f4ff37000800be00e400070072
:101ea000180037004f49de0003002000143d2500d4
:101eb000b5072400840f5000858f58001d003e0098
:101ec00034be2c0065012400840f5000858f58001b
:101ed0000e003e000800be000200e000b2fd20003f
:101ee00093fc230005003200defa070045000700de
:101ef0000004be0009f0a200deff3700d0fa0700a0
:101f0000400007000004be00daff37000800be00f2
:101f10000200e000b2fd2000930424000300320020
:101f2000d0fa070001f0a200dcff3700c4fa070076
:101f3000fcff3700541d2300250e2400840f5000a1
:101f4000858f580017003e00f4dd2e00f50a2400ae
:101f5000840f5000858f580009003e000800be0025
:101f60000200e00042be2c0063092400020032009f
:101f7000bcfa0700e2ff3700b1fa0700dbff3700c9
:101f80000800be000200e000b2fd2000930c240017
:101f900002003200b3fa0700c0ff3700a8fa0700ba
:101fa000beff3700f2ff2f00f3f72700820f50002b
:101fb000838f5800050036000801be000800be00ef
:101fc0009ffa07000004be00aaff370082ff2f001f
:101fd0000f0141000800be003e00070063016000e1
:101fe0004fb89700dfb89700e10f5100c4ff3200ef
:101ff000e20f5100cbff32000200e000bbff3a00cd
:10200000a6ff37000400fa00889fbe008a9fbe002a
:102010008c9fbe000001be0056fc07000004be00fd
:102020000001be0053fc07000005be0002002000b6
:1020300003f02b000800be004efc07000200200049
:1020400003f8230087fa07000006be00f2a92a0061
:10205000a3d223000a00be0046fc07000001be0018
:102060000c00be007ffa07000002be0072a129002a
:10207000c37c23000800be0084bf9f0095bf9f0063
:102080003cfc0700f243200063ab23006cfa07001e
:102090000006be000a01be000800be0035fc0700b5
:1020a0000001be000c00be0032fc07000001be00b3
:1020b0000fba97009fba97000400be0069fa0700a4
:1020c0004f06be004f05be004f04be000080fa0060
:1020d000000006000400fa00889fbe008a9fbe0030
:1020e0008c9fbe000006780081047800820678008c
:1020f00001f0a100a2fd200093dc2400820f50001b
:10210000838f580023003e0032982f0023f22300d3
:102110008900780017fc07000200200003b42400a7
:1021200050fa07000200200003b4240044fa07001c
:102130000005be00e7f9070000047800a2fd2000ba
:1021400093fc23000a00be000afc07000001be0049
:102150000c0078008900780039fa07000002be0000
:10216000325a2800832823000a00be0084bf9f0043
:1021700095bf9f00fffb07000001be000fba97004c
:102180009fba97000400be002dfa0700808ebe00a3
:102190000b003700f2ff2f00f3f72700820f5000eb
:1021a000838f58000c003600000178008901780008
:1021b0008900780022fa0700808ebe000004eb0040
:1021c000080078004f06be004f05be004f04be0059
:1021d0000080fa0000000600890078004c0007002b
:1021e0000005be0032982f0023f22300e1fb070018
:1021f0000200200003f023001afa07005500070030
:10220000000478007efd070032982f0023f223009f
:10221000f9fa07000001be000a00be0008fa070034
:102220006000b800a0069800b1069800d7ff3700fc
:102230000400fa00889fbe008a9fbe008c9fbe00eb
:102240000006be000001be00cafb07000004be007d
:102250000001be000c00be00c6fb07000005be006a
:102260000801be000800be00c2fb07000a01be0054
:10227000c0fb07000002be00c2c326006363230048
:102280000800be0084bf9f0095bf9f00b9fb0700f8
:10229000f27c200003952300e9f907000001be004d
:1022a0000fba97009fba97000400be00b1fb070069
:1022b0000002be004288280083c023000800be0040
:1022c00084bf9f0095bf9f00aafb0700b2aa2a0007
:1022d000a3e22300daf907000a01be00a5fb07000c
:1022e0000c01be00dff907000001be000fba970025
:1022f0009fba97000400be00daf907004f06be003f
:102300004f05be004f04be000080fa00000006002a
:102310000400fa006011b800e2bf9f00f3bf9f0005
:102320006fbb9700ffbb97000002be00f0ff2f00bd
:10233000f1ff2f00f2ff2f00f3ff270000006200e3
:102340008180620002016300838163000080fa00e3
:10235000000006000003be00a1f907006011b800ec
:102360000470a70007f0a1006509b1001b0032004e
:1023700012003500860220000628e1000800350022
:10238000f3ff2700f2ff2f006110b9000700e00003
:1023900018003b00030028006000b80002000500a0
:1023a000000040008180480002014900838149000b
:1023b0008502e900faff3a0008003700f88f420072
:1023c00002003c008000eb00000005008100d1000d
:1023d0000080d3008502e800fcff3a000700e0001f
:1023e00004003b0060001000e0801800600119004c
:0823f000e08119000000060065
:020000040000fa
:1023f8000a00fa00ea0d0700360e0700290a07004e
:10240800980d07009d0507005d0607007606070082
:10241800470f0700350707003c070700e4808000e6
:10242800f5808000c2808000d380800000002000fa
:10243800010a2400809fbe0000002000010a240039
:10244800809fbe0000002000010a2400809fbe007b
:102458006033b800208f2100b4030700ec875700d1
:1024680024818000358180000281800013818000f2
:1024780000002000010a2400809fbe000000200008
:10248800010a2400809fbe0000002000010a2400e9
:10249800809fbe006033b800208c2100a303070092
:1024a800ec8757006000b800f0c5880001c68800b6
:1024b80084cea90084aea900848ea900856ea900e7
:1024c800754ea900040ea900052ea90095eea900d5
:1024d800054ea900746ea9000000eb00000f7800fb
:1024e80005003700a40e0700204798002e409000f2
:1024f800250907001e0fe800b90e07009e007800a6
:10250800808f5000f7ff35009c0d0700e14f500009
:102518002b013a009d0d0700940d07002007980035
:102528002e009000100078008000eb0026f90700cc
:1025380032332300330524000cfb07000001780028
:102548000100780082027800000278000200200072
:102558000358240005007800840078000000be00bd
:1025680023fa070030079800410798003e019000c1
:10257800ce01900000002000812024001cfa0700f2
:1025880000017800010078008202780000027800db
:1025980002002000030a2400050078008400780067
:1025a8000000be0024f907008001780001017800ce
:1025b80003007800820078000000be0030c4880064
:1025c80041c48800640047001080e80010007800cb
:1025d8008000eb00fcf807003233230033052400a9
:1025e800e2fa070000017800010078008202780012
:1025f800000278000200200003582400050078003b
:10260800840078000000be00f9f907003007980040
:10261800410798003e019000ce0190000000200084
:1026280081202400f2f907000001780001007800f9
:10263800820278000002780002002000030a2400c9
:1026480005007800840078000000be00faf8070052
:10265800800178000101780003007800820078008a
:102668000000be0010c4880021c488006400470030
:102678004100200010804000100078008000eb002e
:10268800d1f807003233230033052400b7fa0700d6
:1026980000017800010078008202780000027800ca
:1026a8000200200003582400050078008400780008
:1026b8000000be00cef907003007980041079800d7
:1026c8003e019000ce0190000000200081202400ef
:1026d800c7f907000001780001007800820278003d
:1026e8000002780002002000030a24000500780098
:1026f800840078000000be00cff807008001780051
:102708000101780003007800820078000000be0014
:10271800f0c3880001c488006400470061002000fd
:1027280010804000100078008000eb00a6f8070039
:1027380032332300330524008cfa070000017800a7
:102748000100780082027800000278000200200070
:102758000358240005007800840078000000be00bb
:10276800a3f9070030079800410798003e01900040
:10277800ce01900000002000812024009cf9070071
:1027880000017800010078008202780000027800d9
:1027980002002000030a2400050078008400780065
:1027a8000000be00a4f8070080017800010178004d
:1027b80003007800820078000000be00b0c38800e3
:1027c800c1c38800640047008100200010804000d9
:1027d800100078008000eb007bf8070032332300fc
:1027e8003305240061fa0700000178000100780031
:1027f80082027800000278000200200003582400ba
:1028080005007800840078000000be0078f9070011
:1028180030079800410798003e019000ce019000d3
:10282800000020008120240071f9070000017800d1
:10283800010078008202780000027800020020007f
:10284800030a240005007800840078000000be0018
:1028580079f807008001780001017800030078000a
:10286800820078000000be00d0c38800e1c3880061
:1028780030c4800041c480000200200003112400fd
:102888000ef807000000e00003003d006000b800fb
:1028980030c4880041c4880010c4800021c480006e
:1028a800020020000311240004f807000000e000e3
:1028b80003003d006000b80010c4880021c48800ef
:1028c800d0c38000e1c3800002002000031124006f
:1028d800faf707000000e00003003d006000b800c0
:1028e800d0c38800e1c38800b0c38000c1c38000a2
:1028f8000200200003112400f0f707000000e000a8
:1029080003003d006000b800b0c38800c1c3880060
:10291800f0c3800001c480000200200003112400dd
:10292800e6f707000000e00003003d006000b80083
:10293800f0c3880001c4880030c4800041c480000e
:1029480003f80700804078002092210001487800b1
:1029580010c4800021c48000fdf707008040780083
:102968002092210011409800f0c3800001c480002b
:10297800f7f7070080407800209221002140980056
:10298800b0c38000c1c38000f1f707008040780021
:102998002092210031409800d0c38000e1c380001c
:1029a800ebf7070080407800209221004140980012
:1029b8002292210051002000000320007b0707001d
:1029c80030c4800041c4800002002000032024009d
:1029d800baf707000000e00002003d0084cea8001e
:1029e8000100370084cea90010c4800021c48000f3
:1029f8000200200043212400b0f707000000e00097
:102a080002003d0084aea8000100370084aea90092
:102a1800f0c3800001c4800002002000432324008a
:102a2800a6f707000000e00002003d00848ea80021
:102a380001003700848ea900b0c38000c1c38000a4
:102a480002002000432124009cf707000000e0005a
:102a580002003d00856ea80001003700856ea900c0
:102a6800d0c38000e1c380000200200003202400be
:102a780092f707000000e00002003d00754ea80034
:102a880095fe3700754ea90093fe37000000fa0046
:102a980030d0bf000080fb006100b900b200200008
:102aa80003002000820f5000838f5800e3003e008f
:102ab800000601000b0037002c00370038003700f3
:102ac800580037005c0037007d0037008100370070
:102ad8009f003700a3003700c3003700c700370046
:102ae800d10037006000b800d0c58800e1c5880073
:102af8006000b800f0c5880001c688003830ef00d3
:102b08003a30ef00a803070010c0b30030f0b70058
:102b1800709221008040eb003140980070922100b3
:102b2800b0409000709221002140980070922100de
:102b3800a0409000709221001140980070922100ee
:102b4800904090007092210001487800c081800078
:102b580080407800709221004140980072922100d4
:102b68005100200000052000100707009081800018
:102b78000000e000b3003200c2818000d3818000f1
:102b88004006200001002000800f5100818f59006d
:102b9800ac00360020c0b30030f0b700a900370001
:102ba8000000200001f02300d0c58800e1c588009e
:102bb8006000b800f0c5880001c688007a030700e5
:102bc80030c0b30030f0b700709221008040eb00b5
:102bd8003140980070922100b0409000709221001e
:102be8002140980070922100a0409000709221002e
:102bf800114098007092210011c0b300014878007c
:102c0800c081800080407800709221004140980087
:102c1800729221005100200000052000e306070001
:102c280093003700908180000000e00087003200a8
:102c38009200070085003700d0cc2c00c1e42300a7
:102c4800d0c58800e1c588000000200001f82300f5
:102c5800f0c5880001c688005303070050c0b300c0
:102c680030f0b700709221008040eb0031409800ae
:102c780070922100b04090007092210001487800c5
:102c880070922100904078007092210011409800c5
:102c98007092210011c0b30021409800c0818000cb
:102ca8008040780070922100414098007292210083
:102cb8005100200000052000bc0607006c0037000a
:102cc800908180000000e000620032006b00070085
:102cd80060003700d0cc2c00c1e42300d0c58800a8
:102ce800e1c588000000200001f82b00f0c588002d
:102cf80001c688002c03070070c0b30030f0b7008d
:102d0800709221008040eb001140980070922100e1
:102d1800904090007092210021409800709221000c
:102d2800a040900070922100014878007092210024
:102d380011c0b30031409800c08180008040780005
:102d4800709221004140980017030700480037009f
:102d5800908180000000e00040003200470007003a
:102d68003e0037006000b800d0c58800e1c5880083
:102d7800305c2f00810c2400f0c5880001c6880053
:102d88000903070090c0b30030f0b700709221002b
:102d98008040eb003140980070922100b0409000d4
:102da800709221002140980070922100a04090006c
:102db80070922100014878007092210011c0b30080
:102dc80011409800c08180008040780070922100f6
:102dd8004140980072922100510020000005200017
:102de8007206070022003700908180000000e00092
:102df8001c003200210007001a0037006000b800ec
:102e0800d0c58800e1c58800305c2f00810c2c00fb
:102e1800f0c5880001c68800e3020700b0c0b3000f
:102e280030f0b70012003700908180000000e00009
:102e38000e003200110007000c0037003070ef0060
:102e48000b003700000000000900370000000000f8
:102e580007003700000000000500370000000000f0
:102e680003003700000000000100370000000000e8
:102e7800000000000080fa00000006000200fa00ce
:102e88000040eb00004f78000040eb00004f780056
:102e98002a70ef002b70ef002c70ef002d70ef0000
:102ea8002e70ef002f70ef00f0c3800001c4800087
:102eb800020020000322240080f607000000e00042
:102ec80003003d002fd0bf000024a0002ff0b70062
:102ed800b0c38000c1c3800002002000032024008a
:102ee80076f607000000e00003003d002dd0bf008b
:102ef8000014a0002df0b700d0c38000e1c380000b
:102f080002002000831c24006cf607000000e0008b
:102f180003003d002ed0bf000004a0002ef0b70033
:102f280010c4800021c48000020020000320240077
:102f380062f607000000e00003003d002bd0bf0050
:102f48000034a0002bf0b70030c4800041c48000da
:102f580002002000831c240058f607000000e0004f
:102f680003003d002cd0bf000044a0002cf0b700a7
:102f7800c1022100914078002bd0bf0080c07000b2
:102f88002fd0bf0080c070002dd0bf0080c070005f
:102f98002ed0bf0080c070002ad0bf0000c07000d3
:102fa8002af0b70030d0bf00e94f500009003a00be
:102fb80030d0bf00eb4f500006003a0030d0bf00c1
:102fc800e74f500003003a0030d0bf00e54f5000f3
:102fd8004d0032002ad0bf00f44f500006003200e6
:102fe8002ad0bf00ec4f5000030032002ad0bf00a7
:102ff800fc4f500003003a0030c0b300004f780087
:10300800410037002ad0bf00e54f500006003200cb
:103018002ad0bf00e64f5000030032002ad0bf007c
:10302800e74f500003003a0030c0b300004f78006b
:10303800350037002ad0bf00e44f50001500320099
:103048002ad0bf00ee4f5000120032002ad0bf0035
:10305800f74f50000f0032002ad0bf00ff4f50003a
:103068000c0032002ad0bf00ef4f50000900320098
:103078002ad0bf00fe4f5000060032002ad0bf0001
:10308800fd4f5000030032002ad0bf00f54f50001a
:1030980003003a0030c0b300004f78001a00370030
:1030a8002ad0bf00f04f5000060032002ad0bf00df
:1030b800e84f5000030032002ad0bf00f84f5000fc
:1030c80003003a0010c0b300004f78000e0037002c
:1030d8002ad0bf00e14f5000060032002ad0bf00be
:1030e800e24f5000030032002ad0bf00e34f5000e7
:1030f80003003a0020c0b300004f780002003700f8
:103108000040eb00004f78001e4078000004e0000b
:1031180003003a0020c0b30034f0b70017003700ae
:103128001e407800e24f500003003a0040c0b30050
:1031380034f0b700110037001e407800e14f50000e
:1031480003003a0060c0b30034f0b7000b0037004a
:103158001e407800e34f500003003a0080c0b300df
:1031680034f0b700050037001e407800e44f5000e7
:1031780002003a00a0c0b30034f0b70034d0bf005a
:103188000080fb0001032100914078008180fb0052
:103198008100e900810f50000200320034d0bf00e6
:1031a80030f0b700000000000080fa0000000600c0
:1031b8001a00fa00889fbe008a9fbe00000f7800a0
:1031c8001e007800104078000004e00027003a0054
:1031d800510120001e0078009c0907001007980084
:1031e80021079800110120001e00780097090700a8
:1031f8000005be00d10020001e00780093090700da
:103208000004be00910020001e0078008f0907000e
:103218003007980041079800510020001e007800f0
:103228008a090700500798006107980011002000dc
:103238001e007800850907001e019000ae0190006d
:10324800829fbe008a9fbe00889fbe003e039000fa
:10325800ce0390005e029000ee0290000001be00d6
:10326800208c210031000700ec8757001e007800f1
:1032780010407800e14f500027003a00510120002b
:103288001e0078007109070070079800010f980068
:10329800110120001e0078006c0907000005be001f
:1032a800d10020001e007800680907000004be0055
:1032b800910020001e00780064090700100f980094
:1032c800210f9800510020001e0078005f090700b8
:1032d800300f9800410f9800110020001e00780060
:1032e8005a0907007e0190008e099000829fbe0057
:1032f8008a9fbe00889fbe001e0b9000ae0b9000f8
:103308003e0a9000ce0a90000001be00208f2100e6
:1033180006000700ec875700000000004f05be00bc
:103328004f04be000080fa00000006000e00fa00fc
:10333800000f7800120798002307980034079800b8
:103348004507980056079800670798001e00780000
:103358001e019000ae0190000288be001e00780099
:103368003eb99700ceb997006200980073009800a4
:103378001e0078003e019000ce01900022009800c7
:10338800330098001e0078001eb99700aeb9970068
:1033980002089800130898001e0078005e0190004b
:1033a800ee01900042009800530098001e0078003b
:1033b8007eb197008eb997002208980033089800cc
:1033c800000000000080fa00000006005000fa002b
:1033d80010c6800021c680000001be008000eb00fe
:1033e8000e0078002408070030c6800041c680001f
:1033f8000001be00410020000e0078001e080700f2
:1034080050c6800061c680000001be008100200017
:103418000e0078001808070070c6800081c680007a
:103428000001be00c10020000e007800120807004d
:1034380090c68000a1c680000001be0001012000e6
:103448000e0078000c080700b0c68000c1c68000d6
:103458000001be00410120000e00780006080700a8
:1034680090c78000a1c780000001be008101200034
:103478000e00780000080700b0c78000c1c78000b0
:103488000001be00c10120000e007800fa07070005
:10349800d0c78000e1c780000001be000102200003
:1034a8000e007800f4070700f0c7800001c880000c
:1034b8000001be00410220000e007800ee07070060
:1034c80010c8800021c880000001be0081022000d1
:1034d8000e007800e807070030c8800041c8800067
:1034e8000001be00c10220000e007800e2070700bc
:1034f80010c7800021c780000001be000103200022
:103508000e007800dc07070030c7800041c7800044
:103518000001be00410320000e007800d607070016
:1035280050c7800061c780000001be0081032000f1
:103538000e007800d007070070c7800081c78000a0
:103548000001be00c10320000e007800ca07070072
:1035580090c88000a1c880000001be0001042000be
:103568000e007800c4070700b0c88000c1c88000fa
:103578000001be00410420000e007800be070700cd
:10358800d0c88000e1c880000001be00810420008e
:103598000e007800b8070700f0c8800001c9800055
:1035a8000001be00c10420000e007800b207070029
:1035b8000e01780001052000100620007b0407009a
:1035c800000000000080fa00000006001200fa0067
:1035d800889fbe006007980072079800030f980044
:1035e8006e0090007e0190008e09900002109800f5
:1035f800131098006e00900060029000f002900096
:103608006e00900090009000100078000001be004d
:103618000400be00f6f507000001780001007800fc
:1036280082047800000478006e009000f00090009a
:103638006000900001f0a2006e01900092019000dd
:1036480012017800eaf5070000017800010078000f
:10365800820178000001780009007800880078006d
:103668000002be0003007800820078000001be005e
:103678007e0090008e0890001a080700008fbe0098
:103688006e00900090009000100078001e017800f5
:103698009e019000b5f607008001780001017800ce
:1036a80003007800820078000001be006e009000e0
:1036b80022109800331098006e009000400c900083
:1036c800d00c900002002000a33724007e00900058
:1036d8008e089000c6f50700000178000100780008
:1036e80082017800000178000300780082007800e9
:1036f8000001be000800be00d8f407008001780071
:103708000101780003007800820078000001be0003
:103718006e00900042089800530898006e009000d0
:10372800000a9000900a90006e009000b00090008f
:10373800200090000001be000400be00acf50700a8
:103748000001780001007800820478000004780005
:103758006e009000900890000008900001f0a20010
:103768006e019000b201900022019000a0f50700c0
:1037780000017800010078008201780000017800db
:103788006e009000400b9000d00b9000090078006c
:10379800880078000002be000300780082007800ec
:1037a8000001be000600be00ce0707000001be00f3
:1037b8006e00900042089800530898006e00900030
:1037c80020029000b00290006e009000d008900097
:1037d800400890000001be000400be0063f6070028
:1037e80080017800010178000300780082007800e9
:1037f8000001be006e00900042109800531098001f
:103808006e009000f0089000600890000001be0073
:103818007e0090008e08900087f407000001780071
:10382800010078008202780000027800020020007f
:10383800a337240005007800840078000000be004b
:103848004af6070020079800310798006e0090009c
:10385800200a9000b00a90006e009000d0009000fe
:10386800400090000001be000400be0060f50700a3
:1038780000017800010078008204780000047800d4
:103888006e009000b00890002008900001f0a2009f
:103898006e019000d20190004201900054f507009b
:1038a80000017800010078008201780000017800aa
:1038b80009007800880078000002be000300780044
:1038c800820078000001be002e009000be0090002b
:1038d8008407070040079800510798006e00900081
:1038e8007e0190008e099000620898007308980085
:1038f8006e009000d0009000400090004e019000b3
:10390800de01900019f607008001780001017800b7
:1039180003007800820078000001be006e0090006d
:1039280062109800731098006e00900020129000aa
:10393800b01290006e009000d010900040109000df
:103948000001be000400be0044f407000001780036
:103958000100780082027800000278006e00900072
:10396800f0109000601090000001be000500780083
:10397800840078000000be0038f4070000017800d9
:103988000100780082007800810178000001780049
:1039980003007800820078000000be004f04be00db
:1039a8000080fa00000006000000fa00d4c580007c
:1039b800e5c5800090c48000a1c480000001be005d
:1039c8000400be001cf407008001780001017800a3
:1039d80003007800820078000000be0010c788004d
:1039e80021c78800f4c5800005c68000b0c48000e7
:1039f800c1c480000001be000400be000ef4070030
:103a080080017800010178000300780082007800c6
:103a18000000be0090c88800a1c8880010c78000b8
:103a280021c780000001be00208c2100e7fe0700ae
:103a380090c58800a1c5880090c88000a1c88000f2
:103a48000001be00208f2100e0fe0700b0c58800fd
:103a5800c1c58800b0c58000c1c5800094c580007c
:103a6800a5c580000001be000400be00aa0407002e
:103a7800000000000080fa00000006000000fa00c4
:103a880005e1a90000002000a13724000700070075
:103a98000421a9000068a9002068a80005e1a80081
:103aa800000000000080fa00000006000400fa0090
:103ab800008fbe00200880000040a1000050a10037
:103ac800200888001e0178009e019000001c2e002e
:103ad80041c62400c6f40700000178000100780000
:103ae800820278000002780002f02f00f3772400a9
:103af80005007800840078000000be0071f307001c
:103b08000000e0008d003400200880000040a00084
:103b18000050a100200888001e0178009e01900036
:103b2800001c2e0041c62400b1f4070000017800f3
:103b3800010078008202780000027800020020006c
:103b48000310240005007800840078000000be00ff
:103b5800a7f40700000178000100780082027800cd
:103b68000002780002f02f00f377240005007800a7
:103b7800840078000000be0052f307000000e00057
:103b880055003400200880000040a1000050a0002b
:103b9800200888001e0178009e019000001c2e005d
:103ba80041c6240092f40700000178000100780063
:103bb8008202780000027800020020000328240016
:103bc80005007800840078000000be0088f4070033
:103bd8000001780001007800820278000002780075
:103be80002f02f00f37724000500780084007800a5
:103bf8000000be0033f307000000e0001d003400a1
:103c0800200880000040a0000050a0002008880084
:103c18001e0178009e019000001c2e0041c6240061
:103c280073f4070000017800010078008202780030
:103c38000002780002002000033824000500780004
:103c4800840078000000be0069f4070000017800d5
:103c580001007800820178000001780003007800f4
:103c6800820078000000be0018f3070010088800e2
:103c7800400037001e0178009e019000001c2e00b5
:103c880041c624005af407000001780001007800ba
:103c98008202780000027800020020000328240035
:103ca80005007800840078000000be0050f407008a
:103cb8000001780001007800820178000001780096
:103cc80003007800820078000000be00fff20700c1
:103cd80010088800270037001e0178009e01900018
:103ce800001c2e0041c6240041f4070000017800a2
:103cf80001007800820278000002780002002000ab
:103d08000310240005007800840078000000be003d
:103d180037f407000001780001007800820178007c
:103d28000001780003007800820078000000be00df
:103d3800e6f20700100888000e0037001e01780020
:103d48009e019000001c2e0041c6240028f40700a4
:103d580000017800010078008201780000017800f5
:103d680003007800820078000000be00d7f2070048
:103d780010088800000000000080fa00000006001b
:103d88000000fa0013e1a90011e1a9001061a800e0
:103d98001021a900800880000040a1000050a10067
:103da800800888000a21ef000621ef0070722000c9
:103db8007008880000e02000600888002042800029
:103dc8000000a0000010a1000020a10020428800ef
:103dd8000108a9002108a80011e1a80000000000be
:103de8000080fa00000006000000fa001fe1a900a8
:103df80000002000a1472400070007001e21a90099
:103e08000368a9002368a8001fe1a80000000000bb
:103e18000080fa00000006000400fa00008fbe00cf
:103e2800f00880000040a1000050a100f0088800c0
:103e38001e0178009e019000001c2e0041c624003f
:103e4800ebf3070000017800010078008202780097
:103e58000002780002f02f00f377240005007800b4
:103e6800840078000000be0096f207000000e00021
:103e78008d003400f00880000040a0000050a10030
:103e8800f00888001e0178009e019000001c2e009a
:103e980041c62400d6f3070000017800010078002d
:103ea800820278000002780002002000031024003b
:103eb80005007800840078000000be00ccf30700fd
:103ec8000001780001007800820278000002780082
:103ed80002f02f00f37724000500780084007800b2
:103ee8000000be0077f207000000e0005500340033
:103ef800f00880000040a1000050a000f0088800f1
:103f08001e0178009e019000001c2e0041c624006e
:103f1800b7f30700000178000100780082027800fa
:103f28000002780002002000032824000500780021
:103f3800840078000000be00adf30700000178009f
:103f480001007800820278000002780002f02f0059
:103f5800f377240005007800840078000000be0094
:103f680058f207000000e0001d003400f00880004f
:103f78000040a0000050a000f00888001e01780052
:103f88009e019000001c2e0041c6240098f30700f3
:103f980000017800010078008202780000027800b1
:103fa800020020000338240005007800840078000f
:103fb8000000be008ef307000001780001007800c1
:103fc8008201780000017800030078008200780000
:103fd8000000be003df20700d0088800400037000e
:103fe8001e0178009e019000001c2e0041c624008e
:103ff8007ff3070000017800010078008202780052
:104008000002780002002000032824000500780040
:10401800840078000000be0075f3070000017800f6
:104028000100780082017800000178000300780020
:10403800820078000000be0024f20700d008880043
:10404800270037001e0178009e019000001c2e00fa
:1040580041c6240066f307000001780001007800db
:104068008202780000027800020020000310240079
:1040780005007800840078000000be005cf30700ab
:1040880000017800010078008201780000017800c2
:1040980003007800820078000000be000bf20700e1
:1040a800d00888000e0037001e0178009e0190009d
:1040b800001c2e0041c624004df3070000017800c3
:1040c8000100780082017800000178000300780080
:1040d800820078000000be00fcf10700d0088800cc
:1040e800000000000080fa00000006000000fa004e
:1040f800c301a800dca1ef00dea1ef00c1e1a80028
:10410800000000000080fa00000006000000fa002d
:10411800c305a800dca5ef00dea5ef00c1e5a800f7
:10412800000000000080fa00000006000800fa0005
:10413800889fbe008a9fbe0020808000318080005a
:104148000080880011808800608080007180800075
:104158004080880051808800300e80008000eb008d
:10416800008fbe00500e80008000eb00c000dd0014
:10417800000020001e0f40005e974800302e80008f
:104188008000eb002007980031079800502e80002f
:104198008000eb00c000dd00000020006401470043
:1041a800e4014700331940002391480012027800c7
:1041b8009202900024079800350798001e007800a6
:1041c8009e009000fdf10700c2532e007378230073
:1041d800e6f307000001780001007800820178000a
:1041e80000017800030078008200780020808800b1
:1041f800318088002e009000be009000eff107008b
:10420800c2532e0073782b00d8f307000001780002
:10421800010078008201780000017800030078002e
:104228008200780060808800718088002480800087
:104238003580800000808000118080000001be0071
:104248000400be00fcf107000001780001007800be
:10425800820178000001780003007800820078006d
:10426800808088009180880064808000758080004c
:1042780040808000518080000001be000400be0024
:10428800edf1070000017800010078008201780054
:10429800000178000300780082007800a080880080
:1042a800b18088008080800091808000020020001a
:1042b800a3372400adf307008001780001017800de
:1042c80003007800820078000000be0050c4880017
:1042d80061c48800a0808000b180800002002000b6
:1042e800a3372400a1f307008001780001017800ba
:1042f80003007800820078000000be0070c48800c7
:1043080081c4880054c4800065c4800070c48000e3
:1043180081c480000001be000400be00cff1070088
:10432800000178000100780082027800000278001d
:1043380002002000030024000500780084007800b3
:104348000000be00aaf20700800178000101780091
:1043580003007800820078000000be0090c4880046
:10436800a1c4880054c4800065c4800070c4800063
:1043780081c480000001be000400be00aef1070049
:1043880000017800010078008202780000027800bd
:1043980042b62300f3e52300050078008400780086
:1043a8000000be0092f20700800178000101780049
:1043b80003007800820078000000be00b0c48800c6
:1043c800c1c4880030c5800041c58000d0c48800c1
:1043d800e1c4880050c5800061c58000f0c4880031
:1043e80001c5880070c5800081c5800010c588009f
:1043f80021c58800d8c48000e9c480009ac4800020
:10440800abc4800070c5800081c5800077f50700c7
:104418000001be000a00be0054f307000001780046
:104428000100780082027800000278000200200073
:10443800a337240005007800840078000000be003f
:104448006bf2070000017800010078008201780013
:104458000001780003007800820078000001be00a7
:104468000800be007df10700800178000101780096
:1044780003007800820078000000be0030c5880084
:1044880041c58800f8c4800009c580009ac480002e
:10449800abc4800070c5800081c5800057f6070056
:1044a8000001be000a00be0030f3070000017800da
:1044b80001007800820278000002780002002000e3
:1044c800a337240005007800840078000000be00af
:1044d80047f20700000178000100780082017800a7
:1044e8000001780003007800820078000001be0017
:1044f8000800be0059f1070080017800010178002a
:1045080003007800820078000000be0050c58800d3
:1045180061c5880018c5800029c58000b0c4800026
:10452800c1c4800002002000a337240030f2070035
:10453800000178000100780082017800000178000d
:1045480003007800820078000001be000800be0069
:1045580042f107008001780001017800030078002b
:10456800820078000000be0070c5880081c5880000
:1045780070c5800081c58000b2fd2000930424002e
:10458800d0f007000000e0000c00340070c5800087
:1045980081c58000b2fd2000930c240026f107009d
:1045a800800178000101780003007800820078001b
:1045b8000000be0070c5880081c5880070c58000f5
:1045c80081c58000b2fd200093042c00bbf00700d9
:1045d8000000e000010035000c00370070c58000c5
:1045e80081c58000b2fd2000930c24001bf1070058
:1045f80080017800010178000300780082007800cb
:104608000000be0070c5880081c588000000000059
:104618004f05be004f04be000080fa0000000600ef
:104628001800fa00c0818000d18180000001780064
:10463800810178008000eb000e007800ab030700d2
:1046480030c5800041c580000001be004100200047
:104658000e0078008803070050c5800061c58000ff
:104668000001be00810020000e00780082030700d0
:1046780070c5800081c580000001be00c100200017
:104688000e0078007c03070090c48000a1c480005d
:104698000001be00010120000e007800760307002b
:1046a800b0c48000c1c480000001be0041012000e8
:1046b8000e007800700307000e01780081012000c9
:1046c8000006200039000700000000000080fa0002
:1046d800000006000a00fa00200798003107980039
:1046e800420798000040eb00004f78009e40780099
:1046f800e0cfb30000c06800004f78002e009000a3
:104708004880de00004078009e40780000c06800c5
:10471800004f78002e009000004078009e407800fe
:1047280000c06800004f78003e0090004880de001e
:10473800004078009e40780000c06800004f780074
:104748003e009000004078009e40780000c068005d
:10475800004f78000000eb00100798000c003700ad
:104768001e009000e800470011004000104078004b
:104778009e40780000c06800004f78000e80e80076
:104788008e80e8001108e800900078001107980072
:104798009e0090003e009000808f5000f0ff350092
:1047a8001e4078000080fa00000006000e00fa00a3
:1047b800889fbe008a1f780040079800510798001c
:1047c800620798008f0478000f00780000057800d1
:1047d8006a00470061002000108040008000e90066
:1047e800210798000000e8000000d1008000400088
:1047f8000f0078008187470060004000300798006c
:104808000000eb00100798009e0090000e80e80062
:104818000108e80010017800120798003e00900097
:1048280001004000e1cfb300014878004e0090003d
:10483800c880de001e0190000e80e8000208e80033
:104848009001780013079800814078003e0090009e
:1048580002004000014878009e0090000e80e800a9
:104868000108e80010017800120798004e00900037
:10487800004178003e0090000100400002487800a6
:104888005e009000c880de001e0190000e80e800e7
:104898000208e8009001780013079800814078002a
:1048a8003e00900002004000014878009e00900001
:1048b8000e80e8000108e80010017800120798004f
:1048c8005e009000004178003e009000010040002a
:1048d800024878000000eb00000f78000d00370058
:1048e8001e007800ec004700910040001e01900077
:1048f8000e80e8000208e80090017800130798008d
:10490800914078003e009000020040000148780085
:104918001e0fe8005e0090009e007800808f500017
:10492800efff35001e0490000e80e8000808e8003c
:1049380090007800110798006e019000de0090004a
:104948004e00900063ff0700804078003e00900012
:1049580008004000014878006a0047006200200013
:10496800900041003e009000d90307008a077800b4
:1049780000000000890778004f0578004f04be004a
:104988000080fa00000006000400fa0020479800a2
:1049980050828000e30f500025003200e30f5000e2
:1049a80007003c00e10f500012003200e10f5000f8
:1049b80017003c000000e000080032004f003700fc
:1049c800e50f500030003200e50f50001f003500a1
:1049d800e60f50003a003200480037002e409000a1
:1049e800e24f400047003a00100020005082880043
:1049f800440037000e80e8001080fb004800dd000e
:104a08006082880020002000508288004000370023
:104a18000e80e8001080fb006182800001004000e9
:104a280060828800300020005082880038003700fb
:104a38000e80e8001080fb004800dd0070828800ce
:104a48004000200050828800310037000e80e800c6
:104a58001080fb0071828000010040007082880095
:104a68005030ef00708280000000e00003003a0040
:104a78006000200050828800250037005000200088
:104a88005082880022003700818280000100e800ff
:104a9800808288004006210001004000ae4090005e
:104aa800014878008182800070828000808f5000e9
:104ab800160035006000200050828800130037007f
:104ac80071828000608280004206210001ff070099
:104ad800004f78002e4090009e40780080cf500014
:104ae80004003a0071828000608280004206210042
:104af8000a0007004a30ef00050037004a30ef008f
:104b0800030037000000000001003700000000002b
:104b1800000000000080fa00000006000600fa000d
:104b2800000f780011079800220798002005200040
:104b38009e007800808f50000c0032000006200094
:104b48009e007800808f50000c0032001005200075
:104b58009e007800808f50000b003a002e009000d5
:104b6800104078000e0007000a0037002e00900061
:104b7800104078003e000700060037002e00900025
:104b88008bf907000300370010052000000f78009c
:104b980000000000000000000080fa00000006008d
:104ba8000200fa00004f78001e80fb00e60f50005c
:104bb8001c003200e60f500007003c00e20f5000d6
:104bc80012003200e40f5000130032000000e00031
:104bd8000d00320021003700ea0f500017003200a4
:104be800ea0f500003003c00e80f500010003200ac
:104bf8001a003700ec0f500013003200ee0f50007f
:104c080013003200150037003070ef0020c0b300e9
:104c180030f0b7001300370040c0b30030f0b700e1
:104c28001000370060c0b30030f0b7000d00370047
:104c380080c0b30030f0b7000a003700a0c0b3004e
:104c480030f0b70007003700c0c0b30030f0b7003d
:104c5800e0c0b30030f0b700020037003070ef005a
:104c680000000000000000000080fa0000000600bc
:104c78000200fa00004f78001e4078000004e000af
:104c8800030032001e4078000004e00002003200f9
:104c98001e80fb0090818800000000000080fa0060
:104ca800000006000000fa00854ea80002ccbf00f4
:104cb8000000a1000010a1000020a10002ecb70034
:104cc80000962000206088001061800000a0a000ed
:104cd80000b0a0001061880023cca80023eca80035
:104ce80030002000206188001062800000a0a00031
:104cf80000b0a0001062880043cca80043eca800d4
:104d0800300020002062880001eca80000000000ac
:104d18000080fa00000006000800fa00008fbe00bc
:104d2800220798003307980042b62300f3dd2300da
:104d38002e009000be0090000cf1070000017800e2
:104d48000100780082027800000278001e017800d5
:104d58009e01900005007800840078000000be00e5
:104d68003eef070000017800010078008202780019
:104d78000002780002002000c3202c000500780003
:104d8800840078000000be00f8f007008001780079
:104d98000101780003007800820078000000be005e
:104da80070c3880081c3880042b62300f3dd230066
:104db8002e009000be009000ecf007000001780083
:104dc8000100780082017800000178000300780073
:104dd800820078000001be001e0078009e0090004e
:104de80015ef0700000178000100780082027800c2
:104df8000002780002002000c3202400050078008b
:104e0800840078000000be00d8f007008001780018
:104e18000101780003007800820078000000be00dd
:104e280030c3880041c3880070c3800081c38000fc
:104e380004002000852c240002002000832c2c0074
:104e48002802070030c3800041c38000040020000e
:104e5800852c240002002000832c2c00210207004e
:104e6800000000000080fa00000006000000fa00c0
:104e7800889fbe0054c3800065c3800030c3800093
:104e880041c380000001be000400be008bee070095
:104e98000000e00014003d0038c3800049c38000d2
:104ea80054c3800065c38000308280004182800046
:104eb8000001be000400be00e8ee07000001780013
:104ec8000100780082027800000278000801be0024
:104ed80005007800840078000000be00ea010700a1
:104ee80050c3880061c3880054c3800065c3800034
:104ef80030c3800041c380000001be000400be0032
:104f080070ee07000000e0001400340038c3800091
:104f180049c3800054c3800065c38000308280008c
:104f2800418280000001be000400be00c2ee0700fe
:104f38000001780001007800820278000002780001
:104f48000801be0005007800840078000000be005b
:104f5800b601070050c3880061c3880050c38000b1
:104f680061c380006011b80056ee07000000e00041
:104f78001e00340050c3800061c38000020020007e
:104f8800031c240079f00700000178000100780074
:104f9800820278000002780010828000218280005e
:104fa8000001be0005007800840078000000be0003
:104fb800aaee07000001780001007800820178005d
:104fc8000001780003007800820078000000be002d
:104fd8005fee070030618800108280002182800027
:104fe8005bee0700706188001e00370010828000a9
:104ff8002182800056ee07003061880050c380008f
:1050080061c3800001f0a20002002000031c2400fc
:1050180056f007000001780001007800820278004d
:105028000002780010828000218280000001be000a
:1050380005007800840078000000be0087ee0700b5
:1050480000017800010078008201780000017800f2
:1050580003007800820078000000be003cee0700e4
:105068007061880094c38000a5c3800070c380006d
:1050780081c380000001be000400be000fee0700df
:105088000000e00014003d0078c3800089c3800060
:1050980094c38000a5c380003082800041828000d4
:1050a8000001be000400be006cee0700000178009d
:1050b8000100780082027800000278000801be0032
:1050c80005007800840078000000be006e0107002b
:1050d80090c38800a1c3880094c38000a5c3800042
:1050e80070c3800081c380000001be000400be00c0
:1050f800f4ed07000000e0001400340078c38000dd
:1051080089c3800094c38000a5c3800030828000da
:10511800418280000001be000400be0046ee070088
:10512800000178000100780082027800000278000f
:105138000801be0005007800840078000000be0069
:105148003a01070090c38800a1c3880090c380007b
:10515800a1c380006011b800daed07000000e0008c
:105168001e00350090c38000a1c38000020020000b
:10517800031c2400fdef07000001780001007800ff
:10518800820278000002780010828000218280006c
:105198000001be0005007800840078000000be0011
:1051a8002eee0700000178000100780082017800e7
:1051b8000001780003007800820078000000be003b
:1051c800e3ed0700306288001082800021828000b1
:1051d800dfed0700706288001e0037001082800033
:1051e80021828000daed07003062880090c38000d9
:1051f800a1c3800001f0a20002002000031c2400cb
:10520800daef0700000178000100780082027800d8
:105218000002780010828000218280000001be0018
:1052280005007800840078000000be000bee07003f
:105238000001780001007800820178000001780000
:1052480003007800820078000000be00c0ed07006f
:1052580070628800000000004f04be000080fa0061
:10526800000006000800fa0020079800310798009f
:10527800b2fd2000930424002e009000be00900090
:10528800eded070000017800010078008202780047
:1052980000027800b2fd2000930c2400050078007d
:1052a800840078000000be0039f20700b2fd20003b
:1052b80093042400e9ed0700008fbe00b2fd200032
:1052c800930424001e0078009e009000e3ed070080
:1052d800000178000100780082027800000278005e
:1052e800b2fd2000930c24000500780084007800ab
:1052f8000000be0026f20700b2fd2000930424003f
:10530800cded0700000178000100780082007800e8
:10531800810178000001780003007800820078009d
:105328000000be000080fa00000006000c00fa0031
:105338002007980031079800420798005307980003
:105348002e019000be0190004e009000de009000fb
:10535800b9ed0700000178000100780082017800ab
:105368000001780003007800820078000000be0089
:10537800bcff0700008fbe00b2fd2000930424008c
:105388001e0078009e0090004eed07000000e0002f
:105398000600340032982f0023f223001e00780004
:1053a8009e009000a4ed0700008fbe002e01900023
:1053b800be0190001e0078009e009000a7ed070037
:1053c80000017800010078008200780081017800ef
:1053d8000001780003007800820078000000be0019
:1053e8000080fa00000006000a00fa003007980062
:1053f800410798004e009000e6004700110f40005a
:105408001e007800100178009001900012079800a3
:10541800230798009e0090002e00900081017800dc
:105428000001780003007800820078000000be00c8
:105438000080fa00000006000600fa001007980035
:10544800210798002e0090008e80e800110f400080
:105458001e0078009000780010009000810178000c
:105468000001780003007800820078000000be0088
:105478000080fa00000006000c00fa0020079800df
:105488003107980042079800530798000e80e800fb
:105498006808470090007800110798000000eb00aa
:1054a800000f78000b0037001e0078008e80e8009f
:1054b8009100400066004700100178001e0041007e
:1054c80064014700120040009140780001487800cc
:1054d8001e0fe8001e007800e30f5000f2ff3400b2
:1054e800000000000080fa00000006000c00fa002e
:1054f8002007980031079800420798005307980042
:105508000e80e800680847009000780011079800ae
:105518000000eb00000f78000c003700300020007e
:105528001e0050008e80e800910040006600470091
:10553800100178001e00410064014700120040007d
:1055480091407800014878001e0fe8001e0078009e
:10555800e30f5000f1ff3400000000000080fa0063
:10556800000006000c00fa00200798003107980098
:1055780042079800530798000e80e8006808470023
:1055880090007800110798000000eb00000f7800e9
:105598000b0037001e0078008e80e8009100400064
:1055a80066004700100178001e00410064014700b2
:1055b8001200400091407800014878001e0fe80072
:1055c8001e007800e70f5000f2ff340000000000d2
:1055d8000080fa00000006000400fa00008fbe00f8
:1055e8006011b8001e0078009e009000b5ec07001e
:1055f8000000e000030035001e0078009e009000c7
:10560800030037001e0078009e00900001f0a20001
:10561800800178000101780003007800820078009a
:105628000000be000080fa00000006000800fa0032
:10563800008fbe0022079800330798002e019000c3
:10564800be0190001e0078009e0090009dec0700af
:105658000000e000030034009e0078001e00900067
:1056680002003700ae0090003e00900081017800f3
:105678000001780003007800820078000000be0076
:105688000080fa00000006000800fa00008fbe0043
:1056980022079800330798002e019000be01900061
:1056a8001e0078009e00900084ec07000000e000d7
:1056b80003003d009e0078001e00900002003700a5
:1056c800ae0090003e009000810178000001780053
:1056d80003007800820078000000be000080fa0015
:1056e800000006000c00fa00008fbe002207980098
